:100000000C942B020C9453020C9453020C94530244
:100010000C9453020C9453020C94111A0C94530236
:100020000C9453020C9453020C9453020C945302FC
:100030000C9453020C9453020C9453020C945302EC
:100040000C946E0B0C9453020C94DE0B0C94B80BB6
:100050000C9453020C9453020C9453020C945302CC
:100060000C9453020C94530208000000BE922449E1
:10007000123EABAAAA2ABECDCCCC4C3E00000080DA
:10008000BEABAAAAAA3E00000000BF000000803F4D
:100090000000000000084178D3BB4387D1133D190D
:1000A0000E3CC3BD4282AD2B3E68EC8276BED98F3A
:1000B000E1A93E4C80EFFFBE01C4FF7F3F0000007E
:1000C000000000407A10F35A00A0724E1809001088
:1000D000A5D4E80000E87648170000E40B540200BD
:1000E00000CA9A3B000000E1F505000080969800E8
:1000F000000040420F000000A08601000000102711
:1001000000000000E80300000000640000000000A0
:100110000A00000000000100000000002C76D888D2
:10012000DC674F0823DFC1DFAE59E1B1B796E5E3E5
:10013000E453C63AE651997696E8E6C28426EB89FE
:100140008C9B62ED407C6FFCEFBC9C9F40F2BAA59B
:100150006FA5F490055A2AF75C936B6CF9676DC133
:100160001BFCE0E40D47FEF520E6B500D0ED902E37
:100170000300943577050080841E080000204E0A95
:10018000000000C80C333333330F986E12831141D3
:10019000EF8D2114893BE65516CFFEE6DB18D1849E
:1001A0004B381BF77C1D901DA4BBE42420328472C5
:1001B0005E228100C9F124ECA1E53D275B494E494F
:1001C000545D2053797374656D2072656164792C78
:1001D000207363686564756C6572207374617274F2
:1001E000696E670A005B4552525D205461736B2053
:1001F0006372656174696F6E206661696C65640A1B
:10020000005B494E49545D204372656174696E67B5
:10021000207461736B732E2E2E0A005B4552525D63
:100220002053796E63206F626A6563747320666120
:10023000696C65640A005B494E49545D2053656EE4
:10024000736F72733A204E544320546865726D691F
:1002500073746F722028413029202B204448543178
:100260003120284437290A005B494E49545D204C0F
:10027000616235202D2053656E736F72204D6F6E55
:1002800069746F72696E672053797374656D0A00C3
:100290005B4143515D204163717569736974696F96
:1002A0006E207461736B20737461727465640A00EC
:1002B0005B5448525D205468726573686F6C6420AB
:1002C0007461736B20737461727465640A003D3DE0
:1002D0003D3D3D3D3D3D3D3D3D3D3D3D3D3D3D3D4E
:1002E0003D3D3D3D3D3D3D3D3D3D3D0A005B434F78
:1002F0004E465D20484947483D32362E30204C4F0F
:10030000573D32342E302043207C2044626E633AC5
:1003100025750A005B44485431315D20576169748A
:10032000696E6720666F722076616C696420646113
:1003300074612E2E2E0A004E4F524D414C00414CFE
:1003400045525421005B44485431315D2054656D61
:10035000703A2533642043207C2048756D3A25335C
:10036000642525207C202553202825752F257529D7
:100370000A004E4F524D414C00414C455254210011
:100380005B544845524D5D205261773A25347520C3
:100390007C2054656D703A25732043207C202553C2
:1003A000202825752F2575290A005B4453505D20B0
:1003B0004D757465782074696D656F75740A003DBC
:1003C0003D3D3D3D3D3D2053454E534F522052450E
:1003D000504F5254203D3D3D3D3D3D3D0A005B4464
:1003E00053505D20446973706C6179207461736B44
:1003F00020737461727465640A00000000002400B8
:1004000027002A0000000000250028002B00000023
:1004100000080002010000030407000000000000C3
:1004200000000404040404040404020202020202A0
:1004300003030303030301020408102040800102A8
:10044000040810200102040810200000000023000E
:1004500026002900241B11241FBECFEFD8E0DEBFE9
:10046000CDBF11E0A0E0B1E0EAE0F9E402C0059000
:100470000D92AE36B107D9F723E0AEE6B1E001C088
:100480001D92A430B207E1F712E0CBE2D2E004C043
:100490002197FE010E94A521CA32D107C9F70E9407
:1004A000141A0C9483240C940000CF92DF92EF92E4
:1004B000FF920F931F93CF93DF93EC017A016901B1
:1004C000E881F9810190F081E02D0995E881F981B9
:1004D0000084F185E02D9801A601B701CE01DF91DE
:1004E000CF911F910F91FF90EF90DF90CF900994E3
:1004F0006F927F928F929F92AF92BF92CF92DF9234
:10050000EF92FF920F931F93CF93DF93CDB7DEB798
:10051000AC970FB6F894DEBF0FBECDBFDC011696C8
:10052000ED91FC91319609F480C059013A016B01BB
:100530008C01FE0131964F0188E2DF011D928A9500
:10054000E9F7D801ED91FC910488F589E02DB4011B
:10055000C80109957C01892B09F051C01AA619A67A
:100560001CA61BA6D801ED91FC910688F789E02D09
:100570009E01255D3F4FAE01475D5F4FB401C8014D
:1005800009957C01892BD9F5A114B10439F088E2D1
:10059000F401D50101900D928A95E1F709A51AA5FC
:1005A000C114D10479F0612F772767FD7A95072E62
:1005B000000C880B990B0E94C722F601608371839F
:1005C000828393836114710489F08CA5682F782F3E
:1005D000770F770B072E000C880B990B0E94C72210
:1005E000D3016D937D938D939C931397012B39F4D5
:1005F0008BA59CA5892B19F496E1E92EF12CC70156
:10060000AC960FB6F894DEBF0FBECDBFDF91CF9191
:100610001F910F91FF90EF90DF90CF90BF90AF9020
:100620009F908F907F906F90089587E1E82EF12C36
:10063000E6CF8F929F92AF92BF92CF92DF92EF92CE
:10064000FF920F931F93CF93DF93EC018B016A010D
:100650007901E881F9810288F389E02D0995B82EA6
:10066000B801685F7F4FE881F9810288F389E02D46
:10067000CE010995982EB801605F7F4FE881F9811E
:100680000288F389E02DCE010995A82EB801685E95
:100690007F4FE881F9810288F389E02DCE01099529
:1006A000882EB801605E7F4FE881F9810288F38966
:1006B000E02DCE0109959B2D990D9A0D980D89136A
:1006C00019C09A2D882DF601918380839B2D892D49
:1006D000F7019183808390E080E0DF91CF911F91BB
:1006E0000F91FF90EF90DF90CF90BF90AF909F90D1
:1006F0008F90089585E190E0F0CF47E050E080E0F2
:10070000FB012191BF01042E01C0220F0A94EAF7D8
:10071000820F41505109A0F70895FC01828590E0B5
:100720000895FC01818590E00895CF92DF92EF92C9
:10073000FF920F931F93CF93DF93EC017A0169012E
:10074000E881F9810190F081E02D0995E881F98136
:100750000480F581E02D9801A601B701CE01DF915B
:10076000CF911F910F91FF90EF90DF90CF90099460
:10077000CF92DF92EF92FF920F931F93CF93DF936D
:10078000CDB7DEB728970FB6F894DEBF0FBECDBF4A
:10079000DC011696ED91FC91319609F440C08A0176
:1007A0007B0119821A821B821C821D821E821F827B
:1007B0001886DC01ED91FC910084F185E02DAE01FD
:1007C0004B5F5F4FBE016F5F7F4F09956C01892BB7
:1007D000B1F4E114F10441F069817A818B819C814B
:1007E0000E948F22F70160830115110541F06D8190
:1007F0007E818F8198850E948F22D8016C93C601DB
:1008000028960FB6F894DEBF0FBECDBFDF91CF9113
:100810001F910F91FF90EF90DF90CF90089587E1A7
:10082000C82ED12CECCF262F2D7F29F4FC01608718
:1008300090E080E0089588E190E00895DC0117964B
:100840007C936E931697FB01EA5CFB4FE49119963B
:10085000EC9319976E5D7B4FFB0164911A966C9334
:100860000895CF93DF93EC019A01AB018A859B85B4
:10087000009729F00197B9F0DF91CF910895688131
:1008800079818A819B810E94182287FF0AC089850D
:100890008F5F89879885891778F381E090E09B873F
:1008A0008A871986E9CF6C817D818E819F810E9424
:1008B00077231816B4F789858F5F898798858917FC
:1008C000D8F21B861A86EDCF90E0FC01E25FFB4F69
:1008D0002491FC01EA5CFB4F3491FC01EE5DFB4F7F
:1008E000E491EE23C9F0222339F0233001F1A8F47A
:1008F000213019F1223029F1F0E0EE0FFF1FEC5FFB
:10090000FB4FA591B4918FB7F894EC91611126C07B
:1009100030953E233C938FBF08952730A9F02830AF
:10092000C9F0243049F7809180008F7D03C0809109
:1009300080008F7780938000DFCF84B58F7784BD70
:10094000DBCF84B58F7DFBCF8091B0008F77809314
:10095000B000D2CF8091B0008F7DF9CF3E2BDACF9F
:10096000CF93DF9390E0FC01EA5CFB4F24918E5D16
:100970009B4FFC0184918823C9F090E0880F991F58
:10098000FC01E650FC4FA591B491FC01EC5FFB4FDC
:10099000C591D49161110DC09FB7F8948C912095A9
:1009A00082238C938881282328839FBFDF91CF9156
:1009B0000895623051F49FB7F8943C91822F80954E
:1009C00083238C93E8812E2BEFCF8FB7F894EC9193
:1009D0002E2B2C938FBFEACF3FB7F89480918902DA
:1009E00090918A02A0918B02B0918C0226B5A89BAF
:1009F00005C02F3F19F00196A11DB11D3FBFBA2FB1
:100A0000A92F982F8827BC01CD01620F711D811D70
:100A1000911D42E0660F771F881F991F4A95D1F7F5
:100A200008953F924F925F926F927F928F929F9222
:100A3000AF92BF92CF92DF92EF92FF920F931F93EC
:100A4000CF93DF93EC01162F7A0169010E94EC0429
:100A50004B015C01312C111139843601660C771C75
:100A6000660C771C85E0681A71082701440C551C38
:100A7000440C551C85E0481A510810E000E060E085
:100A800070E0CB012A813B814C815D8126173707BD
:100A9000480759070CF10115110599F582E0E81690
:100AA000F1041CF0C2010197F1F70E94EC046819EF
:100AB00079098A099B09EA85F0E0EE0FFF1FE65BE2
:100AC000FB4FA591B4912C910F5F1F4F39852323C4
:100AD000231105C097FFD6CF6FEF7FEFCB01DF91DA
:100AE000CF911F910F91FF90EF90DF90CF90BF902B
:100AF000AF909F908F907F906F905F904F903F90BE
:100B0000089582E0C816D10484F2C301CCCFAF921D
:100B1000BF92CF92DF92EF92FF920F931F93CF93EA
:100B2000DF936C017B018B01040F151FEB015E014C
:100B3000AE18BF08C017D10759F06991D601ED91E1
:100B4000FC910190F081E02DC6010995892B79F780
:100B5000C501DF91CF911F910F91FF90EF90DF9032
:100B6000CF90BF90AF900895FC01538D448D252FF9
:100B700030E0842F90E0821B930B541710F0CF9637
:100B8000089501970895FC01918D828D981761F069
:100B9000A28DAE0FBF2FB11D5D968C91928D9F5F80
:100BA0009F73928F90E008958FEF9FEF0895FC015F
:100BB000918D828D981731F0828DE80FF11D858D12
:100BC00090E008958FEF9FEF0895FC01918D228DA5
:100BD000892F90E0805C9F4F821B91098F7399272A
:100BE000089581ED91E00E94E50521E0892B09F44B
:100BF00020E0822F08950E94F10581110C940000DD
:100C0000089580E090E0892B11F00C94FB05089585
:100C1000FC01A48DA80FB92FB11DA35ABF4F2C9171
:100C2000848D90E001968F739927848FA689B78968
:100C30002C93A089B1898C91837080648C93938D5F
:100C4000848D981306C00288F389E02D80818F7D02
:100C500080830895EF92FF920F931F93CF93DF93BA
:100C6000EC0181E0888F9B8D8C8D98131AC0E889E8
:100C7000F989808185FF15C09FB7F894EE89FF89B7
:100C80006083E889F98980818370806480839FBF55
:100C900081E090E0DF91CF911F910F91FF90EF9055
:100CA0000895F62E0B8D10E00F5F1F4F0F73112765
:100CB000E02E8C8D8E110CC00FB607FCFACFE889A0
:100CC000F989808185FFF5CFCE010E940806F1CF1A
:100CD000EB8DEC0FFD2FF11DE35AFF4FF0829FB714
:100CE000F8940B8FEA89FB8980818062CFCFCF9304
:100CF000DF93EC01888D8823B9F0AA89BB89E88944
:100D0000F9898C9185FD03C0808186FD0DC00FB6E9
:100D100007FCF7CF8C9185FFF2CF808185FFEDCF67
:100D2000CE010E940806E9CFDF91CF91089581EDB1
:100D300091E00E94E505892BD1F381ED91E00C94BF
:100D4000C305CF93C82F8A3029F46DE081ED91E07F
:100D50000E942A066C2F81ED91E00E942A0690E005
:100D600080E0CF9108958F929F92AF92BF92CF92E1
:100D7000DF92EF92FF920F931F93CF93DF93EC01DB
:100D80008B0188E2FB0111928A95E9F761E08E817F
:100D90000E94B00460E08E810E9464040E94EC0412
:100DA0004B015C01F4E1CF2ED12CE12CF12C0E94FF
:100DB000EC04681979098A099B09683E734081052A
:100DC0009105A8F3F1E0CF1AD108E108F10828EE67
:100DD000820E23E0921EA11CB11CC114D104E104B7
:100DE000F10429F761E08E810E94640468858E8198
:100DF0000E94B0048FE590E00197F1F7E881F98156
:100E00000088F189E02D26E030E04AE050E060E023
:100E1000CE0109956E317105810591059CF4982FDD
:100E2000872F762F66276061CB01DF91CF911F91CD
:100E30000F91FF90EF90DF90CF90BF90AF909F9079
:100E40008F900895E881F9810088F189E02D26E0EE
:100E500030E04AE050E061E0CE0109957801F8E227
:100E6000EF0EF11C623371058105910534F4982F62
:100E7000872F762F66276161D7CFE881F9810088B7
:100E8000F189E02D26E030E04AE050E060E0CE015C
:100E90000995683171058105910534F4982F872FE4
:100EA000762F66276261C0CFE881F9810088F189D9
:100EB000E02D26E030E04AE050E061E0CE01099507
:100EC0006B3071058105910534F4982F872F762FAB
:100ED00066276361A9CF21E069327105810591051B
:100EE0000CF420E0F80121938F01EE15FF0529F69F
:100EF000E881F9810088F189E02D26E030E04AE0C0
:100F000050E060E0CE0109956831710581059105D9
:100F100034F4982F872F762F6627646185CF70E091
:100F200060E082CF0E946E24CF93DF9300D0CDB7D4
:100F3000DEB780EB92E09F938F930E94941CC12CAC
:100F4000D12C80EDE82E81E4F82EC092AE01D09233
:100F5000AF01E092B001F092B10140E050E060ECEE
:100F600071E44093B2015093B3016093B401709364
:100F7000B50185E08093B6011092B7011092B901D6
:100F80001092B801C092A201D092A301E092A401F4
:100F9000F092A5014093A6015093A7016093A80188
:100FA0007093A9018093AA011092AB011092AD0138
:100FB0001092AC010E949E0E9A8389830F900F902D
:100FC00070E060E08091CF019091D0010E941513F4
:100FD000813009F066C08090C2019090C301A0905A
:100FE000C401B090C501C090C601D090C701E09087
:100FF000C801F090C9011091CE018091CF0190916C
:10100000D0010E94B711B501A4018EEA91E00E94BF
:101010003104112331F0B701A60182EA91E00E9468
:10102000310470E060E08091CF019091D0010E9486
:1010300015138130F1F48091B8019091B90190932A
:10104000BB018093BA018091B7018093BC0180916C
:10105000AC019091AD019093BE018093BD01809150
:10106000AB018093BF018091CF019091D0010E948C
:10107000B7118091B8019091B90161E0019739F001
:101080008091AC019091AD01019709F060E08DE095
:101090000E94640463E070E0CE0101960E94E212B7
:1010A0008FCF10E0C12CD12C760146015701ABCF78
:1010B000EF92FF920F931F93CF93DF9300D0CDB7A2
:1010C000DEB7E091E101F091E20182E08083E091FE
:1010D000DD01F091DE011082E091DF01F091E0018D
:1010E0008FEC80831092E901E091E501F091E60137
:1010F00086E08083E091E301F091E40180818061EA
:101100008083E091E301F091E40180818860808335
:10111000E091E301F091E401808180688083E091B7
:10112000E301F091E40180818F7D80831A8219822E
:1011300089819A818033954730F489819A8101961B
:101140009A838983F5CF81EA96E090938701809313
:101150008601109289011092880182E080938101BA
:1011600010928B0110928A011092790110927801ED
:1011700087E996E090937B0180937A0111E01093C8
:10118000730110927D0110927C018EE791E09093A3
:1011900001038093000380E791E09093FF02809326
:1011A000FE0288E692E09F938F930E94941C86E350
:1011B00092E09F938F930E94941C8EE080939F01F6
:1011C00060E00E94B0040F900F900F900F908091FC
:1011D000970181112CC08BE091E090938D01809359
:1011E0008C0180E291EAA7E0B0E080938E019093B9
:1011F0008F01A0939001B09391018FEF9FEF909397
:1012000093018093920110929401809395018093B1
:10121000960167E070E08CE891E00E941E0487E28E
:1012200091E090938D0180938C01109397018CE84D
:1012300091E09093A1018093A00161E08DE00E9474
:10124000B00460E08DE00E9464048FE190E00E94B1
:10125000CB188C01009791F0FC019183808381E091
:10126000838F148EC8010E94FB0EF8011582148230
:10127000118210821682C8010E94B7111093D0010A
:101280000093CF01012B49F48BE192E09F938F9360
:101290000E94941C0F900F90FFCF81E092E09F93EB
:1012A0008F930E94941C10E000E023E040EA50E09D
:1012B00061E571E089E79AE00E94E918E82E22E0F2
:1012C00040E850E065E571E084E997E00E94E918A4
:1012D000F82E21E048EC50E06CE571E085E999E0FA
:1012E0000E94E9180F900F90F1E0EF1215C0FF1265
:1012F00013C0813089F48CEB91E09F938F930E940F
:10130000941C0F900F900F900F90DF91CF911F9131
:101310000F91FF90EF90089585EE91E09F938F934A
:101320000E94941C0F900F90FFCFCF93DF93CDB707
:10133000DEB763970FB6F894DEBF0FBECDBF8EED5C
:1013400093E09F938F930E94941C0E949E0E9A8715
:1013500089870F900F90CE0101965C016FE170E0DC
:10136000CE0109960E94E21263E070E08091CF0105
:101370009091D0010E941513813009F051C0209046
:10138000C0013090C1018091C2019091C301A09130
:10139000C401B091C5018B879C87AD87BE87C09083
:1013A000C601D090C701E090C801F090C9014090FB
:1013B000CA015090CB016090CC017090CD0190910A
:1013C000CE019F87A091BA01B091BB01B98BA88BC8
:1013D0009090BC018091BD019091BE019B8B8A8B46
:1013E0008090BF018091CF019091D0010E94B711F0
:1013F000850121E045E06B857C858D859E850E9479
:10140000511BAFEBB3E0BF93AF930E94941C0F90BE
:101410000F9088899989019761F489E793E00BC05F
:10142000AAEAB3E0BF93AF930E94941C0F900F9071
:1014300095CF82E793E01F9225E02F931F929F9212
:101440009F938F93BF92AF923F922F9280E893E049
:101450009F938F930E94941C0FB6F894DEBF0FBE2B
:10146000CDBF9F859923E1F1AA89BB8987E393E0EA
:10147000119711F48EE393E01F9225E02F931F92B2
:101480008F929F938F93C301B2010E948F227F930B
:101490006F93C701B6010E948F227F936F9385E4FB
:1014A00093E09F938F930E94941C0FB6F894DEBF35
:1014B0000FBECDBF1F9285E08F938DEE92E09F937C
:1014C0008F930E94941C8EEC92E09F938F930E94C6
:1014D000941C0F900F900F900F900F900F903ECF95
:1014E000A4E1B3E0BF93AF930E94941C0F900F90C0
:1014F000E1CFCF93DF9300D000D01F92CDB7DEB7FE
:1015000080E992E09F938F930E94941C0E949E0E0C
:101510009A8389830F900F9010E000E080919F01E3
:101520008E3008F08E508770806480937C008091AC
:101530007A00806480937A0080917A0086FDFCCFE7
:101540002090780030907900C10101978E3F934040
:1015500008F08EC0B10190E080E00E94C5226B01CE
:101560007C0120E030E44CE156E40E94CC234B01A6
:101570005C01A701960160E070EC8FE794E40E94A3
:10158000AB219B01AC01C501B4010E941D2220E0EA
:1015900030E44CE156E40E941D220E94842320E0A6
:1015A00030EE46E755E40E941D222FE03FEC4BE56C
:1015B0005BE30E94AC219B01AC0160E070E080E83D
:1015C0009FE30E941D2223E333E948E853E40E948D
:1015D000AB212B013C010832110508F478C0809141
:1015E000A0019091A101009709F04AC0C12CD12C13
:1015F0007601460157011D8210E000E00F5F1F4F8A
:1016000070E060E08091CF019091D0010E941513AD
:10161000813039F53092C1012092C0014092C2015F
:101620005092C3016092C4017092C5012D812223A2
:1016300091F08092C6019092C701A092C801B09229
:10164000C901C092CA01D092CB01E092CC01F092C4
:10165000CD018093CE018091CF019091D0010E9465
:10166000B71163E070E0CE0101960E94E21256CFFE
:10167000412C80EC582E89E7682E84EC782EABCF75
:101680001C821B82DC01ED91FC910480F581E02D30
:1016900030E020E0AE014D5F5F4FBE016C5F7F4FD9
:1016A0000995892B09F0A2CF6C8170E090E080E071
:1016B0000E94C5224B015C016B8170E090E080E0EC
:1016C0000E94C5226B017C01B1E0BD8395CFC12C86
:1016D000D12C7601460157011D8290CF1F920F92A7
:1016E0000FB60F9211242F933F938F939F93AF9335
:1016F000BF938091850290918602A0918702B0915C
:1017000088023091840223E0230F2D3758F501968B
:10171000A11DB11D209384028093850290938602BF
:10172000A0938702B09388028091890290918A02E7
:10173000A0918B02B0918C020196A11DB11D8093E6
:10174000890290938A02A0938B02B0938C02BF917E
:10175000AF919F918F913F912F910F900FBE0F905E
:101760001F90189526E8230F0296A11DB11DD2CF18
:101770001F920F920FB60F9211242F933F934F9306
:101780005F936F937F938F939F93AF93BF93EF93E9
:10179000FF9381ED91E00E940806FF91EF91BF91C8
:1017A000AF919F918F917F916F915F914F913F91F9
:1017B0002F910F900FBE0F901F9018951F920F92B0
:1017C0000FB60F9211242F938F939F93EF93FF9354
:1017D000E091E101F091E2018081E091E701F09177
:1017E000E80182FD1BC090818091EA018F5F8F73B9
:1017F0002091EB01821741F0E091EA01F0E0EF5215
:10180000FE4F958F8093EA01FF91EF919F918F9109
:101810002F910F900FBE0F901F9018958081F4CFDD
:10182000E091A102F091A2028081811107C08FEFA7
:101830009FEF90939702809396020895E091A10202
:10184000F091A2020580F681E02D80819181F1CF97
:10185000CF93DF93FC01A085B185828193812481A0
:101860003581EC013D832C83C481D5819B838A83A0
:1018700011968D919C9112978E179F0721F41296C5
:10188000DC93CE931197118610868C9181508C93A6
:10189000DF91CF9108950F931F93CF93DF938C0126
:1018A000FB0180819181D80113968F3F9807F1F455
:1018B000E801AF81B88512968D919C91139793831F
:1018C0008283EC01FD83EC83B583A4831396FC93A0
:1018D000EE93129711870087F80180818F5F8083D4
:1018E000DF91CF911F910F910895D90112962D91FB
:1018F0003C911397E9014881598184179507A8F70E
:10190000DACFFC010396928381832FEF3FEF34837C
:101910002383968385839087878310820895FC01B3
:1019200073836283918780874617570790F0421B25
:10193000530B8485958548175907C8F4BF016E5F1E
:101940007F4F80919202909193020E944B0C80E015
:1019500008954217530718F46217730740F4BF0144
:101960006E5F7F4F8091940290919502EECF81E05F
:101970000895EF92FF920F931F93CF93DF93EC01A3
:101980008B017A016C857D85600F711F9801A7011D
:10199000CE010E948F0C811107C0DF91CF911F9162
:1019A0000F91FF90EF9008958C859D85080F191F6A
:1019B000E889F989CE010995E5CFEF92FF920F935F
:1019C0001F93CF93DF938C017B01E0919402F09100
:1019D00095020580F681E02DC681D781CE01029661
:1019E0000E94280C8A8982FF0FC0A701B801CE018E
:1019F0000E94B90CE889F989CE01DF91CF911F913E
:101A00000F91FF90EF9009948E7F8A8BF3CFE09136
:101A10009402F0919502808181110DC08091920213
:101A2000909193029093950280939402F093930285
:101A3000E093920208950580F681E02D6FEF7FEF2D
:101A4000808191810E94DD0CE2CFBF92CF92DF9224
:101A5000EF92FF920F931F93CF93DF93EC01B62E7B
:101A6000C0909C02D0909D020091A1021091A20210
:101A7000E0909F02F090A0028091F7029091F8020E
:101A800002960E94280CCF3FDC0709F042C0BB2021
:101A900009F43FC0E091A402F091A502A091F702E1
:101AA000B091F8021596FC93EE931497A091F7026B
:101AB000B091F8028481958117969C938E93169726
:101AC0008091F7029091F802A481B5810296139655
:101AD0009C938E9312978091F7029091F802029650
:101AE00095838483E091F702F091F80283EA92E013
:101AF000938782878091A3028F5F8093A302DF91F7
:101B0000CF911F910F91FF90EF90DF90CF90BF90FA
:101B10000895CC0DDD1DE091F702F091F802D3831A
:101B2000C2836091F7027091F8026E5F7F4FCC150F
:101B3000DD0560F4C701DF91CF911F910F91FF90F8
:101B4000EF90DF90CF90BF900C944B0CC8010E9497
:101B50004B0C8091960290919702C817D90778F69E
:101B6000D0939702C0939602CACFFC01DB010FB657
:101B7000F8940F9240919C0250919D022D913C91BE
:101B800011972F3F320711F18181928160919E025E
:101B90007081761749F04817590730F01D921C9252
:101BA00081E00F900FBE0895481B590B4217530751
:101BB000A8F7241B350B2D933C9380919E028083C4
:101BC00080919C0290919D029283818380E0E9CF75
:101BD000CF93DF93DC011596ED91FC910680F781A0
:101BE000E02DA489B5898685978520893189EC0106
:101BF0003D832C83C089D1899B838A83CF010C9636
:101C000011962D913C9112972817390721F41296BD
:101C1000DC93CE931197158A148A2C9121502C9322
:101C200020919B02211157C0A285B38584819581A3
:101C300026813781EC013D832C83C681D7819B832C
:101C40008A83CF01029611962D913C911297281705
:101C5000390721F41296DC93CE93119713861286DE
:101C60002C9121502C93C6892091F4022C1710F44A
:101C7000C093F40229E02C9FE0011124C053DD4FF2
:101C80000980DA81C02DD583C4834C815D8157835F
:101C90004683AC81BD8113969C938E9312979D834E
:101CA0008C83A689A29FD0011124A053BD4FB38776
:101CB000A2878C918F5F8C93A091F702B091F8026C
:101CC000968956968C91891730F581E080939A0217
:101CD000DF91CF910895A091B602B091B702B78776
:101CE000A68714962D913C911597318B208B1496D5
:101CF000CD91DC9115979B838A8315969C938E9347
:101D0000149785EB92E0958B848B8091B5028F5F61
:101D10008093B502D1CF80E0DBCFCF93DF93EB018F
:101D20006091F7027091F802645F7F4F0E944B0C44
:101D300061E0CE01DF91CF910C94250D0FB6F894A0
:101D40000F9280919C0290919D020F900FBE08957A
:101D500080919B028F5F80939B0208950FB6F89449
:101D60000F92FC01928D0F900FBE81E0911180E0E7
:101D70000895EF92FF920F931F93CF93DF93EC019F
:101D80000FB6F8940F921E8D7C0181E1E80EF11CD4
:101D900001E01116D4F08FEF8E8F0F900FBE0FB6AB
:101DA000F8940F921D8D7E0188E0E80EF11C01E091
:101DB0001116B4F08FEF8D8F0F900FBEDF91CF9182
:101DC0001F910F91FF90EF9008958989882319F34F
:101DD000C7010E94E80D811100939A021150D9CFDA
:101DE0008885882339F3C7010E94E80D811100938B
:101DF0009A021150DDCFCF93DF93EC010FB6F89428
:101E00000F92888199812B8D4C8DBC01249F600D90
:101E1000711D11247D836C831A8E9B838A832150CC
:101E2000330B429FB001439F700D1124860F971F03
:101E30009F838E838FEF8D8F8E8FCE0108960E94A9
:101E4000810CCE0141960E94810C0F900FBE81E063
:101E5000DF91CF9108950F920FB6F8940F921F92D1
:101E600011242F923F924F925F926F927F928F92A6
:101E70009F92AF92BF92CF92DF92EF92FF920F9319
:101E80001F932F933F934F935F936F937F938F9302
:101E90009F93AF93BF93CF93DF93EF93FF93A09163
:101EA000F702B091F8020DB60D920EB60D92809128
:101EB0009B02882321F081E080939A0261C01092F6
:101EC0009A02A091F702B091F802E091F702F09126
:101ED000F8022D913C918789908D82179307A8F085
:101EE0008091F7029091F8028091F7029091F802A8
:101EF000259A2D9A2FEF87EA91E621508040904055
:101F0000E1F700C000001D9AF5CF2091F40289E0AE
:101F100001C02150422F50E0849FF001859FF00DB9
:101F20001124E053FD4F9081992399F3A181B2814F
:101F300012966D917C9172836183289FC001112458
:101F40008D529D4F6817790721F485819681928380
:101F5000818389E0849FF001859FF00D1124E05377
:101F6000FD4F0180F281E02D868197819093F802E8
:101F70008093F7022093F4028091F7029091F80287
:101F8000A091F702B091F802CD91CDBFDD91DEBFF7
:101F9000FF91EF91DF91CF91BF91AF919F918F9181
:101FA0007F916F915F914F913F912F911F910F9171
:101FB000FF90EF90DF90CF90BF90AF909F908F9069
:101FC0007F906F905F904F903F902F901F900F9059
:101FD0000FBE0F9008958F929F92BF92CF92DF9283
:101FE000EF92FF920F931F93CF93DF930FB6F89466
:101FF0000F9280919B02815080939B0280919B0263
:10200000882379F080E00F900FBEDF91CF911F9170
:102010000F91FF90EF90DF90CF90BF909F908F90A7
:1020200008958091F902882369F3E090BA02F09054
:10203000BB02F0E0E0E039E041E08091B5028111BF
:102040005EC0EF2B11F00E94100CE0909802F0900F
:102050009902E114F10409F47DC189E0D82ECC2461
:10206000C3940FEF1FEF80919B02811161C1C0915A
:102070009C02D0919D024E018FEF881A980A90928F
:102080009D0280929C0281149104B9F48091A10276
:102090009091A20220919F023091A0023093A2025F
:1020A0002093A1029093A00280939F0280919E02B0
:1020B0008F5F80939E020E94100C809196029091F7
:1020C0009702B12C8816990608F026C1E091F70214
:1020D000F091F802E689DE9EF0011124E053FD4FF5
:1020E0008081823010F0BB24B39480919A028111D8
:1020F00003C0BB2009F425C1C0929A0222C1D701B6
:102100001696ED91FC91A489B589668577858089BD
:102110009189EB019D838C8380899189EC017B837C
:102120006A83BF01645F7F4F11960D911C911297D6
:102130000617170721F412969C938E931197158A10
:10214000148A8C9181508C93A285B385848195816A
:1021500066817781EC017D836C8366817781EB01F9
:102160009B838A83CF01029611960D911C91129741
:102170000817190721F412967C936E931197138612
:1021800012862C9121502C93A6892091F4022A17B3
:1021900010F4A093F4023A9FD0011124A053BD4F34
:1021A00011960D90BC91A02DB583A48314966D91CA
:1021B0007C9115977783668314966D917C91159722
:1021C000EB019B838A8315969C938E931497968933
:1021D000939FD0011124A053BD4FB387A2878C9148
:1021E0008F5F8C93A091F702B091F80256968C9174
:1021F000891708F022CF40939A021FCFE091A102E5
:10220000F091A2020580F681E02D0680F781E02D95
:10221000828193818816990628F49093970280937F
:10222000960254CFC285D3858481958126813781DA
:10223000DC0115963C932E93149726813781D901A2
:1022400013969C938E931297CF01029649815A81DF
:102250004817590711F43A83298313861286288177
:1022600021502883A489B5891097F9F026853785F0
:1022700040895189E9015D834C8340895189EA0194
:102280003B832A8311966D917C9112979F01245F65
:102290003F4F6217730721F412965C934E93119788
:1022A000158A148A2C9121502C93A6892091F4022E
:1022B0002A1710F4A093F402DA9ED0011124A0533F
:1022C000BD4F11960D90BC91A02DB583A48314969B
:1022D0002D913C9115973783268314962D913C912F
:1022E0001597E9019B838A8315969C938E93149787
:1022F00096899D9DD0011124A053BD4FB387A2871D
:102300008C918F5F8C93E091F702F091F8028689AF
:10231000891710F4BB24B394E091A102F091A202BA
:10232000808181116BCF1093970200939602CECEDD
:1023300080919802909199020196909399028093CE
:102340009802D1E0ED1AF10809F08DCE10929902B1
:102350001092980280919A02882309F453CE8091BA
:10236000F7029091F8020E942B0F81E04CCEAF92C1
:10237000BF92DF92EF92FF920F931F93CF93DF9361
:1023800000D000D01F92CDB7DEB78C011D821C8219
:1023900080E0780198E0E90EF11C0FB6F8940F92F6
:1023A000D8015A962C915A975B969C915B97291766
:1023B00008F0B0C05A96DC905A975C964C915C97A6
:1023C00041118CC08D919C91892B11F080E00AC045
:1023D000F801E480F580E114F10431F580E0F801C2
:1023E00015821482D394D8015A96DC925A9751964A
:1023F0009C91992321F0C80141960E94E80D81111A
:102400000E942B0F0F900FBE81E00F900F900F9046
:102410000F900F90DF91CF911F910F91FF90EF9050
:10242000DF90BF90AF900895D7019A968C919A97BC
:1024300081509A968C939A9756962C915697999686
:102440009C91291759F28111C9CF5701B2E0AB0E07
:10245000B11CC5010E94280CF70181A5868B482F6D
:1024600050E024E030E0241B350B35872487909121
:10247000F402981710F48093F40289E0849FD0014D
:10248000859FB00D1124A053BD4F11960D90BC91A6
:10249000A02DF701B583A48314962D913C91159737
:1024A000378326831496ED91FC911597B382A2820F
:1024B0001596BC92AE921497D7015696EC9156970A
:1024C000E89FF0011124E053FD4F1B96FC93EE931F
:1024D0001A9780818F5F808381E081CF50E070E028
:1024E00060E012968D919C910E947324F801848D76
:1024F00022813381820F932F911D938382832481C4
:1025000035818217930708F461CF8081918193838D
:1025100082835CCF2C813D81232B21F40F900FBE51
:1025200080E073CF811109C080919E0289838091E0
:102530009C0290919D029B838A830F900FBE0E9404
:10254000A80E0FB6F8940F92F801858D8F3F09F40D
:10255000158ED8015E968C915E978F3F11F45E9632
:102560001C920F900FBEBE016C5F7F4FCE01019693
:102570000E94B50D811120C00FB6F8940F92F8019A
:10258000928D838D0F900FBE981310C06C817D814A
:10259000C7010E948D0EC8010E94B90E0E94EB0F68
:1025A000811102C00E942B0F81E0F7CEC8010E946A
:1025B000B90E0E94EB0FF8CFC8010E94B90E0E941D
:1025C000EB0FAECF0F931F93CF93DF93EC018B01F3
:1025D0000E94A80E20919C0230919D024881598151
:1025E000CA01800F911F998388832417350780F4CF
:1025F0008417950780F0C0E00E94EB0F811102C0A4
:102600000E942B0F8C2FDF91CF911F910F91089576
:102610008417950718F02817390768F760E0821BC0
:10262000930B0E94250DC1E0E7CF7F928F929F927E
:10263000AF92BF92CF92DF92EF92FF920F931F93D0
:10264000CF93DF9300D000D01F92CDB7DEB78C01BF
:102650007D836C83D12C90E0580121E1A20EB11C46
:1026600089E0782E24E0822E912C0FB6F8940F92F8
:10267000D8015A968C915A978823C9F181505A965D
:102680008C935A978D919C91892B71F4E091F7026C
:10269000F091F802309719F082A58F5F82A7D801D8
:1026A0001596FC93EE931497F8018085882339F0F2
:1026B000C80108960E94E80D81110E942B0F0F900F
:1026C0000FBEDD24D3948D2D0F900F900F900F909F
:1026D0000F90DF91CF911F910F91FF90EF90DF90BE
:1026E000CF90BF90AF909F908F907F9008952C8156
:1026F0003D81232B21F40F900FBED12CE4CF9111FB
:1027000009C080919E02898380919C0290919D02D4
:102710009B838A830F900FBE0E94A80E0FB6F89479
:102720000F92D8015D968C915D978F3F11F45D9665
:102730001C92F801868D8F3F09F4168E0F900FBE04
:10274000BE016C5F7F4FCE0101960E94B50D8111D5
:10275000AFC0C8010E94AE0E882309F4A3C0D801FF
:102760008D919C91892B09F078C00FB6F8940F9247
:10277000F801E480F580E114F10409F491C0D70177
:1027800056968C915697E091F702F091F80296894F
:10279000891708F07AC01C962D913C911D9737FD42
:1027A0000CC0E091F702F091F80296899401291B80
:1027B00031091D963C932E931C97879DC0011124CF
:1027C00080539D4FF701228533852817390709F07B
:1027D00054C06701F2E0CF0ED11CC6010E94280C44
:1027E000E091F702F091F802E689D7015696EC9352
:1027F0008091F4028E1710F4E093F4027E9EF001B3
:102800001124E053FD4F0180F281E02DD701159690
:10281000FC93EE9314978481958117969C938E93E5
:102820001697A481B5811396DC92CE921297D58229
:10283000C482D7015696EC915697E79DF00111247A
:10284000E053FD4F1B96FC93EE931A9780818F5FA8
:102850008083DD24D3940F900FBE6C817D81C501F0
:102860000E948D0EC8010E94B90E0E94EB0F8111CB
:1028700002C00E942B0F91E0F8CEE091F702F09198
:10288000F8028689F701868BE4CFE091F702F09198
:10289000F802DD24D39499969C9186899817D8F2F2
:1028A000D12CD9CFC8010E94B90E0E94EB0FE3CF03
:1028B000C8010E94B90E0E94EB0FC8010E94AE0E23
:1028C0008823C9F2DD2009F4FECE0FB6F8940F92EA
:1028D000F8018189882309F47BC00688F789E02DF7
:1028E000908184E0891BD80114960D911C910115EB
:1028F000110509F400CFF80191A5981708F4982F55
:10290000D80156968C915697981709F4F4CE9A965A
:102910002C919A97213009F0EECE56969C935697BB
:102920001C962D913C911D9737FD08C024E030E0A6
:10293000291B31091D963C932E931C97B9E08B9F60
:10294000C001112480539D4FF8012285338528173B
:10295000390709F0D0CE7801F2E0EF0EF11CC70183
:102960000E94280CF801A6898091F4028A1710F4BD
:10297000A093F40289E08A9FD0011124A053BD4F97
:1029800011960D90BC91A02DF801B583A4831496E7
:102990002D913C911597378326831496ED91FC91E8
:1029A0001597F382E2821596FC92EE921497D80165
:1029B0005696EC915697E89FF0011124E053FD4F95
:1029C0001B96FC93EE931A9780818F5F808393CE42
:1029D00080E089CF0F920FB6F8940F921F921124C6
:1029E0002F923F924F925F926F927F928F929F921F
:1029F000AF92BF92CF92DF92EF92FF920F931F930D
:102A00002F933F934F935F936F937F938F939F93F6
:102A1000AF93BF93CF93DF93EF93FF93A091F70210
:102A2000B091F8020DB60D920EB60D9213BE8091C4
:102A30009B028111F9C080919C0290919D020196A8
:102A400090939D0280939C02009781F52091A102B2
:102A50003091A20240919F025091A0025093A20295
:102A60004093A1023093A00220939F0220919E02E6
:102A70002F5F20939E02E091A102F091A20220819B
:102A8000211107C02FEF3FEF30939702209396025A
:102A90000DC0E091A102F091A2020580F681E02D27
:102AA00020813181309397022093960220919602E3
:102AB000309197028217930710F420E0A1C020E024
:102AC00039E0D32EE091A102F091A20230813111C0
:102AD00007C08FEF9FEF909397028093960290C06C
:102AE000E091A102F091A2020580F681E02D06801E
:102AF000F781E02D428153818417950728F4509384
:102B00009702409396027CC0A285B385448155818B
:102B100066817781EA017D836C8366817781EB0131
:102B20005B834A83AF014E5F5F4F11960D911C91FD
:102B300012970417150721F412967C936E93119740
:102B4000138612863C9131503C93A489B589109725
:102B5000F9F06685778500891189EB011D830C8367
:102B600000891189E8017B836A831196ED90FC90BE
:102B70001297BF01645F7F4FE616F70621F41296A5
:102B80001C930E931197158A148A3C9131503C93F3
:102B9000A6893091F4023A1710F4A093F402DA9E59
:102BA000D0011124A053BD4F11960D90BC91A02DC2
:102BB000B583A48314966D917C9115977783668372
:102BC00014966D917C911597EB015B834A83159662
:102BD0005C934E93149746894D9DD0011124A053C8
:102BE000BD4FB387A2873C913F5F3C93E091F702D2
:102BF000F091F8023689341708F064CF21E062CFF3
:102C0000E091F702F091F802E689D9E0ED9FF0013A
:102C10001124E053FD4F8081823008F021E0809143
:102C20009A0281110EC00AC0809198029091990277
:102C3000019690939902809398026CC0222309F424
:102C400069C080919B02882321F081E080939A02E1
:102C500061C010929A02A091F702B091F802E0913F
:102C6000F702F091F8022D913C918789908D82179F
:102C70009307A8F08091F7029091F8028091F702F3
:102C80009091F802259A2D9A2FEF87EA91E621502C
:102C900080409040E1F700C000001D9AF5CF2091E0
:102CA000F40289E001C02150422F50E0849FF001DE
:102CB000859FF00D1124E053FD4F9081992399F3E6
:102CC000A181B28112966D917C9172836183289F5C
:102CD000C00111248D529D4F6817790721F4858119
:102CE00096819283818389E0849FF001859FF00D16
:102CF0001124E053FD4F0180F281E02D8681978100
:102D00009093F8028093F7022093F4028091F702E7
:102D10009091F802A091F702B091F802CD91CDBF49
:102D2000DD91DEBFFF91EF91DF91CF91BF91AF9128
:102D30009F918F917F916F915F914F913F912F91D3
:102D40001F910F91FF90EF90DF90CF90BF90AF90C9
:102D50009F908F907F906F905F904F903F902F90BB
:102D60001F900F900FBE0F900895CF93DF930097A1
:102D700051F0EC010E94A80ECE010E940B1CDF91C5
:102D8000CF910C94EB0FDF91CF910895CF93DF9308
:102D9000CDB7DEB72A970FB6F894DEBF0FBECDBF12
:102DA00085E0B82ECE0101967C01E0919402F0916D
:102DB00095021081D12CC12C112329F00580F681B8
:102DC000E02DC080D1800E94A80E0E949E0E4C0172
:102DD00080918E0290918F028816990608F090C01B
:102DE0000E94070D90928F0280928E020E94EB0F3C
:102DF000D701EB2D1D92EA95E9F700919002109111
:102E000091021A86198680E04801F1E18F0E911C2B
:102E10000FB6F8940F92D8015A96DC905A97DD209D
:102E200009F42FC15C964C915C974423F9F050E073
:102E300016968D919C911797840F951F17969C93CA
:102E40008E93169714962D913C91159782179307A0
:102E500038F08D919C91119717969C938E931697AD
:102E6000F80166817781C7010E947324DA94D80142
:102E70005A96DC925A9718968C91882339F0C8019B
:102E800008960E94E80D81110E942B0F0F900FBE33
:102E9000A980A7FCB2CF0C811D81D8011A968D9113
:102EA0009C91892B21F0C80102960E94280C0E9457
:102EB0009E0E6C0180918E0290918F02C816D906E9
:102EC00010F40E94070DD0928F02C0928E02EFEF95
:102ED000EA0DE93008F091CF0E2E000CFF0BE958F7
:102EE000F84ED80152968C9152970C94A521FA175E
:102EF000FA173D1825183718FA17FA173D1825182C
:102F000090928F0280928E02112351F08C149D04B6
:102F100070F00E94EB0FB401C6010E94DD0C68CF77
:102F2000E0919202F091930261E08081811160E072
:102F300000919002109191020FB6F8940F92D8016F
:102F40005D968C915D978F3F11F45D961C92F80110
:102F5000868D8F3F09F4168E0F900FBED8015A96BA
:102F60008C915A9781113CC05296ED91FC91A091A1
:102F7000F702B091F8021F96FC93EE931E97A09172
:102F8000F702B091F8028481958151969C938E93BB
:102F900050978091F7029091F802A481B5810C9628
:102FA00013969C938E9312978091F7029091F8025A
:102FB0000C9695838483E091F702F091F802C801A2
:102FC0004196958B848BF80181898F5F818BC60137
:102FD00088199909662311F08FEF9FEF0E94250D44
:102FE000C8010E94B90E0E94EB0F811101CF0E940F
:102FF0002B0FFECE8160F801828B8A809B806485D6
:103000007585680D791D9401A601C8010E948F0C79
:10301000882309F4F2CED80152968C91529782FF00
:1030200010C01C966D917C91680D791DA601C80198
:103030000E94B90CD8015096ED91FC91C8010995F8
:10304000DCCE8E7FF801828BF5CF816052968C9317
:1030500052976A817B811D967C936E931C976C0DB1
:103060007D1D9601A601C8010E948F0CC6CE81FD70
:1030700004C0C8010E94B516C0CE8E7FF801828BB5
:10308000BCCE29853A85232B19F40F900FBE8DCE27
:10309000811109C080919E028E8380919C02909143
:1030A0009D0298878F830F900FBE0E94A80E0FB6C7
:1030B000F8940F92F801858D8F3F09F4158ED80191
:1030C0005E968C915E978F3F11F45E961C920F90E6
:1030D0000FBEBE01675F7F4FCE0106960E94B50D01
:1030E00081111BC0C8010E94AE0E882381F0698542
:1030F0007A85C4010E948D0EC8010E94B90E0E94FB
:10310000EB0F811102C00E942B0F81E081CEC8011C
:103110000E94B90E0E94EB0FF8CFC8010E94B90EB1
:103120000E94EB0FC8010E94AE0E882371F33DCEC2
:1031300000E010E080918D0281110CC08091D002DE
:10314000823010F00E942B0F0115110599F30E9497
:10315000FB05F0CF0FB6F8940F92E091B102F09119
:10316000B202C681D781CE0102960E94280C8091BE
:10317000F90281508093F90280918D0281508093F1
:103180008D020F900FBE8F89988D0E94B516CE01CB
:103190000E94B516CFCFCF93DF93EC010E94A80E0B
:1031A000CE010E946F1BEC010E94EB0F209769F487
:1031B000259A2D9A2FEF80E792E021508040904091
:1031C000E1F700C000001D9AF5CFCE01DF91CF914D
:1031D00008957F928F929F92AF92BF92CF92DF928B
:1031E000EF92FF920F931F93CF93DF93982EA92E08
:1031F000762E872E7A01B22ECA010E94CB186C015E
:10320000892B09F4EDC080E390E00E94CB18EC011B
:10321000892B09F4E2C080E3DE011D928A95E9F76B
:10322000D88ECF8AA70165EA70E0C6010E947C248F
:10323000B1E0EB1AF108EF89F88DEE0DFF1D672D57
:10324000782DCE0149969B01205F3F4FDB014D91C8
:10325000BD01DC014D93CD01AB0141505109DA01B3
:103260004C91442319F02617370781F718A6BE8A18
:10327000B9A61B861A861D8A1C8AD987C88784E04E
:1032800090E08B1991099D878C87DB8BCA8B90828C
:10329000DF011197AC9211971C92119780E88C93E3
:1032A00011971C9257971C9211971C92B397F98310
:1032B000E8830115110519F0F801D183C0830FB619
:1032C000F8940F928091F9028F5F8093F9028091B8
:1032D000F7029091F802892B09F091C0D093F8027F
:1032E000C093F7028091F902813081F580ED92E080
:1032F0000E94810C89ED92E00E94810C82EE92E0A6
:103300000E94810C8BEE92E00E94810C87EC92E08F
:103310000E94810C8EEB92E00E94810C85EB92E082
:103320000E94810C8CEA92E00E94810C83EA92E078
:103330000E94810C87EC92E09093A2028093A102FC
:103340008EEB92E09093A00280939F028091F50211
:103350008F5F8093F502AE898091F4028A1710F492
:10336000A093F40229E02A9FD0011124A053BD4F5D
:1033700011960D90BC91A02DBD83AC8314968D91B8
:103380009C9115979F838E831496ED91FC911597D0
:10339000CE0102969383828315969C938E93149705
:1033A000EE89E29FF0011124E053FD4FFB87EA878D
:1033B00080818F5F80830F900FBE8091F6028823FB
:1033C00051F0E091F702F091F80296898E899817F2
:1033D00010F40E942B0F81E004C0C6010E94B516B4
:1033E0008FEFDF91CF911F910F91FF90EF90DF90C2
:1033F000CF90BF90AF909F908F907F9008958091D5
:10340000F6028111A3CFE091F702F091F8029689BC
:103410008E89891708F49ACFD093F802C093F702E7
:1034200095CF0E94EA141895CF93DF93CDB7DEB7FE
:1034300060970FB6F894DEBF0FBECDBF789484B509
:10344000826084BD84B5816084BD85B5826085BDA0
:1034500085B5816085BD80916E00816080936E002E
:103460001092810080918100826080938100809120
:1034700081008160809381008091800081608093D1
:1034800080008091B10084608093B1008091B00091
:1034900081608093B00080917A00846080937A008C
:1034A00080917A00826080937A0080917A008160B6
:1034B00080937A0080917A00806880937A001092DD
:1034C000C10020910501309106018FEF98E0821B29
:1034D000930B90930201809301010E945808A1E68A
:1034E000B1E0FE013196BF018D918193882321F0D7
:1034F00081E0A137B807C1F70EE612E020E040EC0A
:1035000050E088E998E10E94E918882309F490C006
:10351000813009F08DC00FB6F8940F92809190021F
:1035200090919102892B51F589E792E00E94810CDC
:1035300080E792E00E94810C89E792E090939502E7
:103540008093940280E792E090939302809392029A
:1035500081E590E00E94CB188C01009759F04F96BE
:10356000F801918380838AE0838F85E0848FC8018E
:103570000E94FB0E10939102009390020F900FBED9
:103580008091900290919102892B09F451C002E838
:1035900012E023E04CE550E066E671E086EC96E14F
:1035A0000E94E918813009F043C0F8942FEF3FEFF3
:1035B00030939702209396028093F60210929D0218
:1035C00010929C02A89588E190EC0FB6F894A8950B
:1035D000809360000FBE90936000A091F702B091BD
:1035E000F802CD91CDBFDD91DEBFFF91EF91DF916C
:1035F000CF91BF91AF919F918F917F916F915F918B
:103600004F913F912F911F910F91FF90EF90DF907D
:10361000CF90BF90AF909F908F907F906F905F9072
:103620004F903F902F901F900F900FBE0F900895D6
:10363000809100010E94580800E010E0011511057A
:10364000E9F30E94FB05FACFE1EDF1E0138212826B
:1036500088EE93E0A0E0B0E084839583A683B783EF
:1036600083E491E09183808385EC90E09587848763
:1036700084EC90E09787868780EC90E0918B808B3C
:1036800081EC90E0938B828B82EC90E0958B848B25
:1036900086EC90E0978B868B118E128E138E148E93
:1036A0000895EF920F931F93CF93DF93E80134E0D7
:1036B00047FD34E1042E000C550B57FF03C0519514
:1036C00041955109E32E022F242FAE010E94931E33
:1036D000CE01DF91CF911F910F91EF9008950F933D
:1036E0001F93CF93DF938230910510F482E090E036
:1036F000E091FC02F091FD0230E020E0B0E0A0E0BB
:10370000309799F42115310509F44AC0281B390B6B
:1037100024303105D8F58A819B816115710589F1C5
:10372000FB0193838283FE0111C04081518102819C
:10373000138148175907E0F04817590799F4109773
:1037400061F012960C93129713961C933296CF0148
:10375000DF91CF911F910F9108950093FC02109378
:10376000FD02F4CF2115310551F04217530738F00F
:10377000A901DB019A01BD01DF01F801C1CFEF0111
:10378000F9CF9093FD028093FC02CDCFFE01E20FB2
:10379000F31F819391932250310939832883D7CF26
:1037A0002091FA023091FB02232B41F42091030176
:1037B000309104013093FB022093FA022091010121
:1037C000309102012115310541F42DB73EB74091EA
:1037D000050150910601241B350BE091FA02F0918E
:1037E000FB02E217F307A0F42E1B3F0B2817390743
:1037F00078F0AC014E5F5F4F2417350748F04E0F4D
:103800005F1F5093FB024093FA02819391939FCFE5
:10381000F0E0E0E09CCFCF93DF930097E9F0FC016C
:10382000329713821282A091FC02B091FD02ED0149
:1038300030E020E01097A1F420813181820F931FA6
:103840002091FA023091FB022817390709F061C074
:10385000F093FB02E093FA02DF91CF910895EA0121
:10386000CE17DF07E8F54A815B819E0141155105BE
:10387000B1F7E901FB83EA8349915991C40FD51F40
:10388000EC17FD0761F4808191810296840F951FEA
:10389000E90199838883828193819B838A83F0E005
:1038A000E0E012968D919C9113970097B9F52D91B8
:1038B0003C911197CD010296820F931F2091FA023D
:1038C0003091FB022817390739F6309751F51092DD
:1038D000FD021092FC02B093FB02A093FA02BCCF4F
:1038E000D383C28340815181840F951FC817D907A4
:1038F00061F44E5F5F4F88819981480F591F518352
:1039000040838A819B81938382832115310509F04D
:10391000B0CFF093FD02E093FC029ECFFD01DC01ED
:10392000C0CF13821282D7CFB0E0A0E0EAE9FCE179
:103930000C947C21AE01495F5F4FDA016D917D915E
:10394000AD010EEF12E0F80182819381DC01139644
:103950002C911397286013962C930E94B91CD801C0
:103960001296ED91FC912381277F2383E4E00C9450
:103970009821ABE0B0E0EFEBFCE10C946E217C0110
:103980003B018A01FC0117821682838181FFC8C135
:10399000CE0101965C01F7019381F30193FD8591BE
:1039A00093FF81913F01882309F453C1853239F493
:1039B00093FD859193FF81913F01853229F4B701F1
:1039C00090E00E94E020E7CF912C212C312CFFE1E8
:1039D000F31538F08B3211F190F4803209F1833213
:1039E00029F137FC3CC020ED280F2A3050F536FE77
:1039F00020C08AE0989E200D1124922E06C08D32A0
:103A000091F0803371F7689430F8F30193FD85915C
:103A100093FF81913F018111DACF21C0689431F881
:103A2000689432F8F2CF689433F8EFCF689434F8A2
:103A3000ECCFEAE02E9E200D1124222E689435F85A
:103A4000E4CF8E3229F436FC04C1689436F8DDCF19
:103A50008C3619F4689437F8D8CF8836B1F2982F9D
:103A60009F7D95549330E0F08336A1F18337C1F107
:103A7000833509F063C02801F2E04F0E511CF801B4
:103A8000C080D180692D70E036FC02C06FEF7FEFFF
:103A9000C6010E94CA204C01689437F882010AC00E
:103AA0000C5F1F4FFFE3F98388248394912C6501F9
:103AB000E89437F833FE2DC0522C8114910471F52F
:103AC000552009F468CFB70180E290E00E94E02021
:103AD0005A94F6CFF801808189830E5F1F4FE4CF9F
:103AE0002801F2E04F0E511CF801C080D180692DF1
:103AF00070E036FC02C06FEF7FEFC6010E94D52058
:103B00004C018201D5CFB70180E290E00E94E02015
:103B10002A942814190409F0B0F7CECFF60137FC27
:103B2000859137FE81916F01B70190E00E94E020FE
:103B300051105A94F1E08F1A9108BFCF843619F0D2
:103B4000893609F077C0F80137FE6BC0608171815A
:103B5000828193810C5F1F4FF32DFF763F2E97FFDD
:103B600009C090958095709561957F4F8F4F9F4FBD
:103B7000689437F82AE030E0A5010E941021C82E91
:103B8000CA188C2C432C36FE0CC0E89440F8C9149B
:103B900040F434FE05C032FC03C0F32DFE7E4F2EF0
:103BA000892C44FE95C0FE01EC0DF11D808180330F
:103BB00009F087C0242D297E422E842D8870582E2E
:103BC00043FC95C040FE8FC09C2C821418F42C0C32
:103BD000922C981844FE91C0B70180E390E00E94B7
:103BE000E02042FE09C088E790E041FE02C088E57F
:103BF00090E0B7010E94E020C91408F48AC0CA947A
:103C0000D12C9FEFC91AD90ACA0CDB1CF60182918C
:103C10006F01B70190E00E94E020AC14BD04B1F741
:103C20004FCF60817181072E000C880B990B0E5FBE
:103C30001F4F92CFD32CE894D4F82AE030E0853798
:103C400039F1232D297FD22E8F3601F148F48835A2
:103C5000A9F0F701868197812B96E2E10C948A21E5
:103C6000803749F08837A9F7D4FE02C06894D2F8AB
:103C700020E130E00DC06894D4F8F6CF34FE03C0E4
:103C8000822F8660D82E20E132E002C028E030E0AA
:103C9000F801D7FE0FC060817181828193810C5F32
:103CA0001F4FA5010E941021C82ECA183D2CE89470
:103CB00037F867CF6081718190E080E00E5F1F4F21
:103CC000F0CF42FC02C0839478CF8394839475CF65
:103CD000842D867809F471CFF6CFB70180E290E0A9
:103CE0000E94E02083948214C0F3512C73CF522C95
:103CF0005818821408F46ECFF8CF842D867809F412
:103D00007BCF8BE241FE80E247FC8DE2B70190E081
:103D100071CFB70180E390E00E94E0209A946CCFCD
:103D20008FEF9FEF99CFA9E0B0E0E9E9FEE10C94B5
:103D300074216A01F22EB02E102FFBE3AF2EA016D5
:103D400008F41BE31F5F012F27E0AE014F5F5F4FB9
:103D50000E94F21FBC018981982F9970913009F45B
:103D60003FC09BE2E1FC04C09E2D9170E0FC3AC094
:103D70005E2D5071E82FE87083FF46C084E09111FA
:103D800001C083E0EF2DE81B8F1508F0E0E0D601BD
:103D90008E2F20E2552351F1992329F0D6019C93CF
:103DA000C60101966C0196012D5F3F4FE2FE24C0D3
:103DB0008EE4D6018C9391E411969C931197129600
:103DC0008C93D9018E2F90E281111BC0E20FF32F4B
:103DD000F11D10828EEF9FEF2996ECE00C9490215C
:103DE0009DE2C6CF90E2C4CF2D9381508111FCCFCC
:103DF000CE0ED11CE0E0D0CF8EE6D6018C9391E6BA
:103E0000DBCF9D938150E0CF482F447082FF3DC0AF
:103E100084E0911101C083E08F1510F4EF2DE81BB1
:103E2000D6018E2F20E2552309F1992329F0D601DE
:103E30009C93C60101966C0196012D5F3F4FE2FEF7
:103E40001BC089E4D6018C938EE411968C93119754
:103E500086E412968C93D9018E2F90E2882309F480
:103E6000B5CF9D938150FACF2D9381508111FCCF16
:103E7000CE0ED11CE0E0D9CF89E6D6018C938EE638
:103E800011968C93119786E6E4CF9B0177FF02C0D1
:103E900030E020E0A1E0B0E0911102C0B0E0A0E08D
:103EA000F9013196AE0FBF1F8B2C912CBB2009F46A
:103EB00061C05401EFEFAE1ABE0AAA0DBB1DFA167F
:103EC0001B0619F014F04F2D4A1B511188C0E3FC5A
:103ED00059C07601A42FB0E2A1114FC0C40ED11C6D
:103EE000992309F45BC040E0D6011196F601908356
:103EF0006D01552309F448C0012F060F9A81582FF0
:103F0000507184FF03C0913309F4015010160CF076
:103F100047C0093008F008E0EEE2FE2E5B01A01A6F
:103F2000B10885019194819491082F3F320729F4BB
:103F3000D601FC92F60131966F016217730794F176
:103F4000021713077CF5DB01A21BB30BAA24A39471
:103F5000B12CAC0EBD1EAA0DBB1D11968C9121502B
:103F60003109D601119628153905F4F0F601808340
:103F70006D01DBCFB12CA12CA0CFF701B1937F0154
:103F8000A150AACF9111B0CFD601942F50E302C017
:103F90005D9391509111FCCFC40ED11C40E0ACCF89
:103FA00001E0BACF80E3DBCF6217730731F49633B9
:103FB00088F4953311F4552369F0F6018083FD01EF
:103FC000842F90E2811108C0A40FB11D1C9290E0D3
:103FD00080E002CF81E3F1CF91938150F3CF911133
:103FE00083CF8ACF283008F027E03327DA01990FF2
:103FF000311D87FD916000966105710539F43260CD
:104000002E5F3D9330E32A95E1F708959F3F30F00E
:1040100080387105610509F03C5F3C5F3D9391304C
:1040200008F08068911DDF93CF931F930F93FF9249
:10403000EF92192F987F9695E92F96959695E90F0F
:10404000FF27E45EFE4F99273327EE24FF24A701C4
:10405000E70105900894079428F4360FE71EF81E30
:10406000491F511D660F771F881F991F0694A1F7DE
:104070000590079428F4E70EF81E491F561FC11D2E
:10408000770F881F991F661F0694A1F70590079464
:1040900028F4F80E491F561FC71FD11D880F991FFE
:1040A000661F771F0694A1F70590079420F4490F27
:1040B000561FC71FD81F990F661F771F881F0694AA
:1040C000A9F784911095177041F0D695C79557952B
:1040D0004795F794E7941A95C1F7E2ECF0E06894FD
:1040E0001590159135916591959105907FE27395A5
:1040F000E118F10A430B560BC90BD009C0F7E10CCC
:10410000F11E431F561FC91FD01D7EF4703311F4DA
:104110008A95E6CFE894015030F0080F0AF40027A2
:10412000021708F4202F2395022F7A3328F079E321
:104130007D932A95E9F710C07D932A9589F6069418
:1041400097956795379517951794E118F10A430BE2
:10415000560BC90BD00998F023957E9173957A334D
:1041600008F070E37C932013B8F77E9170617D9323
:1041700030F0839571E37D9370E32A95E1F7112484
:10418000EF90FF900F911F91CF91DF91992787FDBD
:1041900090950895FC010590615070400110D8F78A
:1041A000809590958E0F9F1F0895FC01615070407F
:1041B00001900110D8F7809590958E0F9F1F08955C
:1041C0000F931F93CF93DF93182F092FEB018B8150
:1041D00081FD09C01FEF0FEF812F902FDF91CF914D
:1041E0001F910F91089582FF14C02E813F818C8111
:1041F0009D81281739073CF4E881F981CF010196A8
:104200009983888310838E819F8101969F838E83FB
:10421000E3CFE885F985812F0995892BA1F3DACFC2
:10422000FA01AA27283051F1203181F1E8946F93E7
:104230006E7F6E5F7F4F8F4F9F4FAF4FB1E03ED08D
:10424000B4E03CD0670F781F891F9A1FA11D680F2B
:10425000791F8A1F911DA11D6A0F711D811D911D5E
:10426000A11D20D009F468943F912AE0269F1124D3
:104270003019305D3193DEF6CF010895462F477037
:10428000405D4193B3E00FD0C9F7F6CF462F4F7092
:10429000405D4A3318F0495D31FD4052419302D0F0
:1042A000A9F7EACFB4E0A695979587957795679596
:1042B000BA95C9F700976105710508959B01AC0196
:1042C0000A2E06945795479537952795BA95C9F7BD
:1042D000620F731F841F951FA01D08952F923F9298
:1042E0004F925F926F927F928F929F92AF92BF9206
:1042F000CF92DF92EF92FF920F931F93CF93DF93B2
:10430000CDB7DEB7CA1BDB0B0FB6F894DEBF0FBE0E
:10431000CDBF09942A88398848885F846E847D845B
:104320008C849B84AA84B984C884DF80EE80FD805D
:104330000C811B81AA81B981CE0FD11D0FB6F894D3
:10434000DEBF0FBECDBFED010895EE0FFF1F05903C
:10435000F491E02D09945058BB27AA270E94C3214D
:104360000C943D230E942F2338F00E94362320F026
:1043700039F49F3F19F426F40C942C230EF4E095A5
:10438000E7FB0C942623E92F0E944E2358F3BA171B
:10439000620773078407950720F079F4A6F50C945B
:1043A00070230EF4E0950B2EBA2FA02D0B01B9014E
:1043B00090010C01CA01A0011124FF27591B99F09B
:1043C000593F50F4503E68F11A16F040A22F232FA7
:1043D000342F4427585FF3CF469537952795A795F7
:1043E000F0405395C9F77EF41F16BA0B620B730B9E
:1043F000840BBAF09150A1F0FF0FBB1F661F771F0F
:10440000881FC2F70EC0BA0F621F731F841F48F4C3
:10441000879577956795B795F7959E3F08F0B0CF4C
:104420009395880F08F09927EE0F97958795089533
:104430000E94022308F481E008950E9431220C9426
:104440003D230E94362358F00E942F2340F029F488
:104450005F3F29F00C94262351110C9471230C9486
:104460002C230E944E2368F39923B1F3552391F333
:10447000951B550BBB27AA2762177307840738F0D3
:104480009F5F5F4F220F331F441FAA1FA9F335D030
:104490000E2E3AF0E0E832D091505040E695001CE4
:1044A000CAF72BD0FE2F29D0660F771F881FBB1F9E
:1044B000261737074807AB07B0E809F0BB0B802D7C
:1044C000BF01FF2793585F4F3AF09E3F510578F0A8
:1044D0000C9426230C9471235F3FE4F3983ED4F3AD
:1044E000869577956795B795F7959F5FC9F7880F7C
:1044F000911D9695879597F90895E1E0660F771FCE
:10450000881FBB1F621773078407BA0720F0621B5E
:10451000730B840BBA0BEE1F88F7E09508950E9489
:1045200096226894B1110C94712308950E94562329
:1045300088F09F5798F0B92F9927B751B0F0E1F064
:10454000660F771F881F991F1AF0BA95C9F714C014
:10455000B13091F00E947023B1E008950C94702363
:10456000672F782F8827B85F39F0B93FCCF386954D
:1045700077956795B395D9F73EF4909580957095AA
:1045800061957F4F8F4F9F4F0895E89409C097FB27
:104590003EF490958095709561957F4F8F4F9F4F1A
:1045A0009923A9F0F92F96E9BB279395F69587955E
:1045B00077956795B795F111F8CFFAF4BB0F11F421
:1045C00060FF1BC06F5F7F4F8F4F9F4F16C08823C8
:1045D00011F096E911C0772321F09EE8872F762FFE
:1045E00005C0662371F096E8862F70E060E02AF03F
:1045F0009A95660F771F881FDAF7880F969587952B
:1046000097F90895990F0008550FAA0BE0E8FEEFFF
:1046100016161706E807F907C0F012161306E40786
:10462000F50798F0621B730B840B950B39F40A267F
:1046300061F0232B242B252B21F408950A2609F45D
:10464000A140A6958FEF811D811D089597F99F6761
:1046500080E870E060E008959FEF80EC089500240A
:104660000A941616170618060906089500240A94D7
:1046700012161306140605060895092E0394000C5D
:1046800011F4882352F0BB0F40F4BF2B11F460FFEC
:1046900004C06F5F7F4F8F4F9F4F089557FD905815
:1046A000440F551F59F05F3F71F04795880F97FBF6
:1046B000991F61F09F3F79F08795089512161306B0
:1046C0001406551FF2CF4695F1DF08C016161706DF
:1046D0001806991FF1CF8695710561050894089514
:1046E000E894BB2766277727CB0197F908950E94A6
:1046F000022308F48FEF089516F00C9439240C94DB
:104700002C2368940C9426230E945623A8F3992303
:10471000C1F3AEF3DF93CF931F930F93FF92C92F93
:10472000DD2788232AF02197660F771F881FDAF785
:1047300020E030E040E85FEB9FE3883920F0803EE6
:1047400038F021968F770E94AC21E8E6F0E004C0B3
:104750000E94AC21E5E9F0E00E9447248B01BE01F4
:10476000EC01FB2E6F5771097595771F880B990B1C
:104770000E94C72228E132E741E35FE30E94DF2382
:10478000AF2D9801AE01FF900F911F91CF91DF9156
:104790000E94C3210C943D230E94DF230C943D23EF
:1047A0000E942F2338F00E94362320F0952311F029
:1047B0000C9426230C942C2311240C9471230E9416
:1047C0004E2370F3959FC1F3950F50E0551F629FE4
:1047D000F001729FBB27F00DB11D639FAA27F00D5A
:1047E000B11DAA1F649F6627B00DA11D661F829F81
:1047F0002227B00DA11D621F739FB00DA11D621F66
:10480000839FA00D611D221F749F3327A00D611D82
:10481000231F849F600D211D822F762F6A2F112464
:104820009F5750409AF0F1F088234AF0EE0FFF1F97
:10483000BB1F661F771F881F91505040A9F79E3FEE
:10484000510580F00C9426230C9471235F3FE4F310
:10485000983ED4F3869577956795B795F795E79544
:104860009F5FC1F7FE2B880F911D9695879597F94D
:1048700008959F3F31F0915020F487957795679583
:10488000B795880F911D9695879597F90895DF93B1
:10489000CF931F930F93FF92EF92DF927B018C01D6
:1048A000689406C0DA2EEF010E94DF23FE01E8942F
:1048B000A5912591359145915591A6F3EF010E945F
:1048C000C321FE019701A801DA9469F7DF90EF9008
:1048D000FF900F911F91CF91DF91089581E090E0BB
:1048E000F8940C948324FB01DC0102C001900D922A
:1048F00041505040D8F70895DC0101C06D934150FC
:0A4900005040E0F70895F894FFCF4F
:10490A0003000004038000000000001E041304B822
:10491A000395039207920791038D0311057D039274
:10492A00071903000000001E041304B80395037856
:10493A0002550291038D0311057D03B30619030085
:10494A000000002A068705B4057706E505C305D7E2
:10495A000541637100546872657368004469737035
:0E496A000049444C4500546D722053766300A2
:00000001FF
