:100000000C9475020C949D020C949D020C949D021C
:100010000C949D020C949D020C948A2C0C949D02CD
:100020000C949D020C949D020C949D020C949D02D4
:100030000C949D020C949D020C949D020C949D02C4
:100040000C94B40E0C949D020C94240F0C94FE0E90
:100050000C949D020C949D020C949D020C949D02A4
:100060000C949D020C949D0208000000BE9224494D
:10007000123EABAAAA2ABECDCCCC4C3E00000080DA
:10008000BEABAAAAAA3E00000000BF000000803F4D
:100090000000000000084178D3BB4387D1133D190D
:1000A0000E3CC3BD4282AD2B3E68EC8276BED98F3A
:1000B000E1A93E4C80EFFFBE01C4FF7F3F0000007E
:1000C000000000407A10F35A00A0724E1809001088
:1000D000A5D4E80000E87648170000E40B540200BD
:1000E00000CA9A3B000000E1F505000080969800E8
:1000F000000040420F000000A08601000000102711
:1001000000000000E80300000000640000000000A0
:100110000A00000000000100000000002C76D888D2
:10012000DC674F0823DFC1DFAE59E1B1B796E5E3E5
:10013000E453C63AE651997696E8E6C28426EB89FE
:100140008C9B62ED407C6FFCEFBC9C9F40F2BAA59B
:100150006FA5F490055A2AF75C936B6CF9676DC133
:100160001BFCE0E40D47FEF520E6B500D0ED902E37
:100170000300943577050080841E080000204E0A95
:10018000000000C80C333333330F986E12831141D3
:10019000EF8D2114893BE65516CFFEE6DB18D1849E
:1001A0004B381BF77C1D901DA4BBE42420328472C5
:1001B0005E228100C9F124ECA1E53D275B494E494F
:1001C000545D2053797374656D2072656164792C78
:1001D000207363686564756C6572207374617274F2
:1001E000696E670A005B4552525D205461736B2053
:1001F0006372656174696F6E206661696C65640A1B
:10020000005B494E49545D204372656174696E67B5
:10021000207461736B732E2E2E0A005B4552525D63
:100220002053796E63206F626A6563747320666120
:10023000696C65640A005B494E49545D2053656EE4
:10024000736F72733A204E544320546865726D691F
:1002500073746F722028413029202B204448543178
:100260003120284437290A005B494E49545D204C0F
:10027000616236202D2053656E736F72204D6F6E54
:1002800069746F72696E672053797374656D0A00C3
:100290005B464154414C5D20537461636B206F7623
:1002A0006572666C6F7720696E207461736B3A209B
:1002B00025730A005B464154414C5D204D616C6CD6
:1002C0006F63206661696C65640A005B4143515D40
:1002D000204163717569736974696F6E207461730D
:1002E0006B20737461727465640A005B434F4E5DEA
:1002F00020436F6E646974696F6E696E6720746104
:10030000736B20737461727465640A005B544852A5
:100310005D205468726573686F6C64207461736BE0
:1003200020737461727465640A003D3D3D3D3D3D3E
:100330003D3D3D3D3D3D3D3D3D3D3D3D3D3D3D3DED
:100340003D3D3D3D3D3D3D0A005B434F4E465D20FA
:10035000484947483D32362E30204C4F573D3234C5
:100360002E302043207C2044626E633A25750A00BB
:100370005B44485431315D2057616974696E672070
:10038000666F722076616C696420646174612E2EE0
:100390002E0A004E4F524D414C00414C45525421C3
:1003A000005B44485431315D2054656D703A25330B
:1003B000642043207C2048756D3A25336425252030
:1003C0007C202553202825752F2575290A004E4F9E
:1003D000524D414C00414C45525421005B412D543B
:1003E00048525D2053746174653A25532028257561
:1003F0002F2575290A005B544845524D5D20414424
:10040000433A253475207C205261773A2573204386
:10041000207C205361743A25732043207C204D6555
:10042000643A25732043207C20574D413A257320A0
:1004300043207C2056616C69643A25630A005B4462
:1004400053505D204D757465782074696D656F75C6
:10045000740A003D3D3D3D3D3D3D2053454E534FCB
:1004600052205245504F5254203D3D3D3D3D3D3D73
:100470000A005B4453505D20446973706C617920BD
:100480007461736B20737461727465640A00000098
:100490000000240027002A0000000000250028009A
:1004A0002B00000000080002010000030407000008
:1004B0000000000000000404040404040404020218
:1004C00002020202030303030303010204081020D3
:1004D00040800102040810200102040810200000DE
:1004E0000000230026002900532D11241FBECFEF4A
:1004F000D8E0DEBFCDBF11E0A0E0B1E0E0E9FDE66D
:1005000002C005900D92A837B107D9F723E0A8E7FC
:10051000B1E001C01D92AF32B207E1F712E0C5E7CA
:10052000D2E004C02197FE010E94E833C437D1070E
:10053000C9F70E948D2C0C94C6360C940000CF9203
:10054000DF92EF92FF920F931F93CF93DF93EC0113
:100550007A016901E881F9810190F081E02D099526
:10056000E881F9810084F185E02D9801A601B701A9
:10057000CE01DF91CF911F910F91FF90EF90DF900F
:10058000CF9009946F927F928F929F92AF92BF9279
:10059000CF92DF92EF92FF920F931F93CF93DF934F
:1005A000CDB7DEB7AC970FB6F894DEBF0FBECDBFA8
:1005B000DC011696ED91FC91319609F480C0590149
:1005C0003A016B018C01FE0131964F0188E2DF0197
:1005D0001D928A95E9F7D801ED91FC910488F5897F
:1005E000E02DB401C80109957C01892B09F051C0A7
:1005F0001AA619A61CA61BA6D801ED91FC91068887
:10060000F789E02D9E01255D3F4FAE01475D5F4FAD
:10061000B401C80109957C01892BD9F5A114B10455
:1006200039F088E2F401D50101900D928A95E1F745
:1006300009A51AA5C114D10479F0612F772767FDA8
:100640007A95072E000C880B990B0E940A35F6014B
:1006500060837183828393836114710489F08CA514
:10066000682F782F770F770B072E000C880B990BCC
:100670000E940A35D3016D937D938D939C931397BC
:10068000012B39F48BA59CA5892B19F496E1E92E51
:10069000F12CC701AC960FB6F894DEBF0FBECDBFEC
:1006A000DF91CF911F910F91FF90EF90DF90CF904E
:1006B000BF90AF909F908F907F906F90089587E14B
:1006C000E82EF12CE6CF8F929F92AF92BF92CF92FD
:1006D000DF92EF92FF920F931F93CF93DF93EC0182
:1006E0008B016A017901E881F9810288F389E02DA3
:1006F0000995B82EB801685F7F4FE881F9810288BB
:10070000F389E02DCE010995982EB801605F7F4FE7
:10071000E881F9810288F389E02DCE010995A82EA0
:10072000B801685E7F4FE881F9810288F389E02D86
:10073000CE010995882EB801605E7F4FE881F9816E
:100740000288F389E02DCE0109959B2D990D9A0D14
:10075000980D891319C09A2D882DF60191838083F5
:100760009B2D892DF7019183808390E080E0DF91BC
:10077000CF911F910F91FF90EF90DF90CF90BF909E
:10078000AF909F908F90089585E190E0F0CF47E083
:1007900050E080E0FB012191BF01042E01C0220F37
:1007A0000A94EAF7820F41505109A0F70895FC011D
:1007B000828590E00895FC01818590E00895CF92B4
:1007C000DF92EF92FF920F931F93CF93DF93EC0191
:1007D0007A016901E881F9810190F081E02D0995A4
:1007E000E881F9810480F581E02D9801A601B70127
:1007F000CE01DF91CF911F910F91FF90EF90DF908D
:10080000CF900994CF92DF92EF92FF920F931F93B4
:10081000CF93DF93CDB7DEB728970FB6F894DEBF3E
:100820000FBECDBFDC011696ED91FC91319609F417
:1008300040C08A017B0119821A821B821C821D82A0
:100840001E821F821886DC01ED91FC910084F185E7
:10085000E02DAE014B5F5F4FBE016F5F7F4F09958B
:100860006C01892BB1F4E114F10441F069817A81C2
:100870008B819C810E94D234F701608301151105A0
:1008800041F06D817E818F8198850E94D234D8019C
:100890006C93C60128960FB6F894DEBF0FBECDBF8D
:1008A000DF91CF911F910F91FF90EF90DF90CF904C
:1008B000089587E1C82ED12CECCF262F2D7F29F467
:1008C000FC01608790E080E0089588E190E0089561
:1008D000DC0117967C936E931697FB01E653FB4F52
:1008E000E4911996EC9319976A547B4FFB0164913C
:1008F0001A966C930895CF93DF93EC019A01AB01A4
:100900008A859B85009729F00197B9F0DF91CF91F7
:100910000895688179818A819B810E945B3487FF79
:100920000AC089858F5F89879885891778F381E068
:1009300090E09B878A871986E9CF6C817D818E81C3
:100940009F810E94BA351816B4F789858F5F898711
:1009500098858917D8F21B861A86EDCF90E0FC01A6
:10096000EE55FB4F2491FC01E653FB4F3491FC0103
:10097000EA54FB4FE491EE23C9F0222339F02330EF
:1009800001F1A8F4213019F1223029F1F0E0EE0F45
:10099000FF1FE856FB4FA591B4918FB7F894EC91E7
:1009A000611126C030953E233C938FBF08952730B8
:1009B000A9F02830C9F0243049F7809180008F7D5C
:1009C00003C0809180008F7780938000DFCF84B553
:1009D0008F7784BDDBCF84B58F7DFBCF8091B00056
:1009E0008F778093B000D2CF8091B0008F7DF9CF08
:1009F0003E2BDACFCF93DF9390E0FC01E653FB4F21
:100A000024918A549B4FFC0184918823C9F090E083
:100A1000880F991FFC01E257FB4FA591B491FC018F
:100A2000E856FB4FC591D49161110DC09FB7F89462
:100A30008C91209582238C938881282328839FBFC3
:100A4000DF91CF910895623051F49FB7F8943C91B3
:100A5000822F809583238C93E8812E2BEFCF8FB745
:100A6000F894EC912E2B2C938FBFEACF3FB7F894DC
:100A70008091C2029091C302A091C402B091C502BC
:100A800026B5A89B05C02F3F19F00196A11DB11DE9
:100A90003FBFBA2FA92F982F8827BC01CD01620F25
:100AA000711D811D911D42E0660F771F881F991FE0
:100AB0004A95D1F708953F924F925F926F927F923D
:100AC0008F929F92AF92BF92CF92DF92EF92FF925E
:100AD0000F931F93CF93DF93EC01162F7A016901D7
:100AE0000E9436054B015C01312C1111398436010D
:100AF000660C771C660C771C85E0681A7108270164
:100B0000440C551C440C551C85E0481A510810E053
:100B100000E060E070E0CB012A813B814C815D8187
:100B200026173707480759070CF10115110599F5E4
:100B300082E0E816F1041CF0C2010197F1F70E946F
:100B40003605681979098A099B09EA85F0E0EE0FF4
:100B5000FF1FE252FB4FA591B4912C910F5F1F4FE5
:100B600039852323231105C097FFD6CF6FEF7FEF81
:100B7000CB01DF91CF911F910F91FF90EF90DF900C
:100B8000CF90BF90AF909F908F907F906F905F902D
:100B90004F903F90089582E0C816D10484F2C301BB
:100BA000CCCFAF92BF92CF92DF92EF92FF920F9392
:100BB0001F93CF93DF936C017B018B01040F151FF3
:100BC000EB015E01AE18BF08C017D10759F069915B
:100BD000D601ED91FC910190F081E02DC6010995BF
:100BE000892B79F7C501DF91CF911F910F91FF906C
:100BF000EF90DF90CF90BF90AF900895FC01538DA0
:100C0000448D252F30E0842F90E0821B930B5417E6
:100C100010F0CF96089501970895FC01918D828D73
:100C2000981761F0A28DAE0FBF2FB11D5D968C910C
:100C3000928D9F5F9F73928F90E008958FEF9FEF4B
:100C40000895FC01918D828D981731F0828DE80F07
:100C5000F11D858D90E008958FEF9FEF0895FC01C1
:100C6000918D228D892F90E0805C9F4F821B91098E
:100C70008F73992708958CE192E00E942F0621E05E
:100C8000892B09F420E0822F08950E943B068111F0
:100C90000C940000089580E090E0892B11F00C94F2
:100CA00045060895FC01A48DA80FB92FB11DA35AC4
:100CB000BF4F2C91848D90E001968F739927848F7C
:100CC000A689B7892C93A089B1898C91837080649F
:100CD0008C93938D848D981306C00288F389E02D40
:100CE00080818F7D80830895EF92FF920F931F93F1
:100CF000CF93DF93EC0181E0888F9B8D8C8D9813CF
:100D00001AC0E889F989808185FF15C09FB7F894DA
:100D1000EE89FF896083E889F98980818370806426
:100D200080839FBF81E090E0DF91CF911F910F9171
:100D3000FF90EF900895F62E0B8D10E00F5F1F4F80
:100D40000F731127E02E8C8D8E110CC00FB607FC8F
:100D5000FACFE889F989808185FFF5CFCE010E941D
:100D60005206F1CFEB8DEC0FFD2FF11DE35AFF4F33
:100D7000F0829FB7F8940B8FEA89FB8980818062AB
:100D8000CFCFCF93DF93EC01888D8823B9F0AA8968
:100D9000BB89E889F9898C9185FD03C0808186FD36
:100DA0000DC00FB607FCF7CF8C9185FFF2CF808185
:100DB00085FFEDCFCE010E945206E9CFDF91CF91A2
:100DC00008958CE192E00E942F06892BD1F38CE1EB
:100DD00092E00C940D06CF93C82F8A3029F46DE071
:100DE0008CE192E00E9474066C2F8CE192E00E94EC
:100DF000740690E080E0CF9108958F929F92AF9219
:100E0000BF92CF92DF92EF92FF920F931F93CF93F7
:100E1000DF93EC018B0188E2FB0111928A95E9F7DF
:100E200061E08E810E94FA0460E08E810E94AE042F
:100E30000E9436054B015C01F4E1CF2ED12CE12C50
:100E4000F12C0E943605681979098A099B09683EC8
:100E5000734081059105A8F3F1E0CF1AD108E108AC
:100E6000F10828EE820E23E0921EA11CB11CC114D1
:100E7000D104E104F10429F761E08E810E94AE04FF
:100E800068858E810E94FA048FE590E00197F1F762
:100E9000E881F9810088F189E02D26E030E04AE020
:100EA00050E060E0CE0109956E3171058105910534
:100EB0009CF4982F872F762F66276061CB01DF91F6
:100EC000CF911F910F91FF90EF90DF90CF90BF9047
:100ED000AF909F908F900895E881F9810088F18903
:100EE000E02D26E030E04AE050E061E0CE010995D7
:100EF0007801F8E2EF0EF11C62337105810591056E
:100F000034F4982F872F762F66276161D7CFE88139
:100F1000F9810088F189E02D26E030E04AE050E0D8
:100F200060E0CE010995683171058105910534F4C1
:100F3000982F872F762F66276261C0CFE881F981CD
:100F40000088F189E02D26E030E04AE050E061E0E1
:100F5000CE0109956B3071058105910534F4982F08
:100F6000872F762F66276361A9CF21E0693271054B
:100F7000810591050CF420E0F80121938F01EE1515
:100F8000FF0529F6E881F9810088F189E02D26E046
:100F900030E04AE050E060E0CE010995683171052B
:100FA0008105910534F4982F872F762F6627646189
:100FB00085CF70E060E082CF0E94B136CF93DF939F
:100FC00000D0CDB7DEB78CE093E09F938F930E9463
:100FD000C32E00E010E020ED31E40093E701109310
:100FE000E8012093E9013093EA0140E050E060EC31
:100FF00071E44093EB015093EC016093ED01709329
:10100000EE0185E08093EF011092F0011092F20161
:101010001092F1010093DB011093DC012093DD01BC
:101020003093DE014093DF015093E0016093E101D2
:101030007093E2018093E3011092E4011092E601C3
:101040001092E5010E947C119A8389830F900F9082
:1010500070E060E080911A0290911B020E94511C86
:10106000813051F58090050290900602A090070211
:10107000B090080200910902C0901102D0901202B3
:10108000E0901302F09014021091190280911A025C
:1010900090911B020E941C1B002331F0B501A4019A
:1010A00087EE91E00E947B04112331F0B701A60185
:1010B0008BED91E00E947B0470E060E080911A0269
:1010C00090911B020E94511C8130F1F48091F1013A
:1010D0009091F2019093F4018093F3018091F001DB
:1010E0008093F5018091E5019091E6019093F701DD
:1010F0008093F6018091E4018093F80180911A02B7
:1011000090911B020E941C1B8091F1019091F201B1
:1011100061E0019739F08091E5019091E601019736
:1011200009F060E08DE00E94AE0463E070E0CE0163
:1011300001960E94741E8CCFCF93DF93CDB7DEB79C
:10114000E5970FB6F894DEBF0FBECDBF8BEE92E0F1
:101150009F938F930E94C32EE0EBF1E084EC91E02B
:101160000F900F901192119211921192108A118A80
:10117000128A138A8E179F07A9F71092D80110922E
:10118000D9011092DA010E947C119AA789A770E018
:1011900060E080911A0290911B020E94511C8130E4
:1011A00009F0E8C1D0900C02E0900D02F0900E0220
:1011B00090900F021091100280911A0290911B02E0
:1011C0000E941C1B112309F4E7C120E030E040EA33
:1011D00051EC6D2D7E2D8F2D992D0E945B3487FD56
:1011E000A2C020E030E040EA52E46D2D7E2D8F2D2C
:1011F000992D0E94BA3518160CF09CC0812C312C08
:1012000010EA212E22E42FA78091D80190E0FC0162
:10121000EE0FFF1FEE0FFF1FE055FE4F482D532D21
:10122000622D7FA54083518362837383019665E0BD
:1012300070E00E94D433282F8093D8018091DA0186
:10124000853018F48F5F8093DA013091DA01DE0186
:101250005596CD0100E02150301371C0FE0131964A
:1012600080E0081384C09E012B5F3F4F39AB28AB51
:10127000CC24C394C01608F084C0A8A9B9A94D9085
:101280005D906D907D90B9ABA8AB1FEF1C0DA12EAA
:10129000012E000CBB08F501EE0FFF1FEE0FFF1F24
:1012A00021E030E02C0F3D1FE20FF31F8081918180
:1012B000A281B3818BA79CA7ADA7BEA79FEFA91A58
:1012C000B90A2BA53CA54DA55EA5C301B2010E949C
:1012D0005B3487FF14C0AA0CBB1CAA0CBB1CE1E04A
:1012E000F0E0EC0FFD1FEA0DFB1D8BA59CA5ADA545
:1012F000BEA580839183A283B383115040F6E12F72
:10130000110FFF0B3196EE0FFF1FEE0FFF1FA1E035
:10131000B0E0AC0FBD1FEA0FFB1F4082518262821A
:101320007382C394A7CF812C312CB0EA2B2E31ECE1
:101330003FA76ACF8D2C3E2C2F2C9FA665CFE22F86
:10134000E01BE7FF02C0EB5FFCCF44E0E402F001EA
:101350001124E055FE4F4081518162817381FC016F
:101360004193519361937193CF010F5F75CF4D916D
:101370005D916D917D9141935193619371938F5FD5
:1013800070CFA02FA695EA2FF0E000FD52C0A1502B
:1013900024E0A29FD001112481E090E08C0F9D1FDA
:1013A000A80FB91FEE0FFF1FEE0FFF1FE80FF91F69
:1013B00020813181428153816D917D918D919C91EC
:1013C0000E94EF3320E030E040E05FE30E940F3600
:1013D0006BA7672E782EA92E8091D90190E0FC0191
:1013E000EE0FFF1FEE0FFF1FEC53FE4F4BA5562DC8
:1013F000672D7A2D4083518362837383019665E064
:1014000070E00E94D433C82E8093D901002309F4E0
:10141000ACC0BB24B394B00E11E0512C412C18AADF
:1014200019AA1AAA1BAA8C2D811B87FF12C08B5FD9
:10143000FCCFEE0FFF1FEE0FFF1FA1E0B0E0AC0FDF
:10144000BD1FEA0FFB1FB081BBA761807280A38024
:10145000C3CFE5E0E11BF0E0E15CFE4F0081E4E09A
:101460008E02C00111249C012C533E4F3DAB2CAB8E
:10147000602F70E090E080E00E940835ACA9BDA923
:101480002D913D914D915C910E940F369B01AC01D5
:1014900068A979A98AA99BA90E94EF3368AB79ABA7
:1014A0008AAB9BAB400E511C1F5FB112BCCF4114E5
:1014B000510409F45AC0B20190E080E00E9408355E
:1014C0009B01AC0168A979A98AA99BA90E946034F3
:1014D000B62EC72E8C014424439470E060E08091C6
:1014E0001A0290911B020E94511C8130B9F58D2D7A
:1014F0009E2DAF2DB92D8093F9019093FA01A09301
:10150000FB01B093FC01882D932DA22DBFA58093E4
:10151000FD019093FE01A093FF01B09300028BA503
:10152000962DA72DBA2D8093010290930202A093CD
:101530000302B09304028B2D9C2DD80180930502E9
:1015400090930602A0930702B0930802409209020A
:1015500080911A0290911B020E941C1B63E070E0B4
:10156000CE0189960E94741E12CEB12CC12C00E0CF
:1015700010E0B1CFD12CE12CF12C912C412CB12CCD
:10158000C12C00E010E01BA6612C712CA12C812C39
:10159000312C212C1FA6A1CFBD2CCE2C0F2D192D07
:1015A000DBA63701A92C8D2C3E2C2F2C9FA6412C7D
:1015B00094CFCF93DF93CDB7DEB7EC970FB6F89407
:1015C000DEBF0FBECDBF82E794E09F938F930E9452
:1015D000C32E0E947C119AA389A30F900F907E01C5
:1015E00029E1E20EF11C6E0181E1C80ED11C1E0141
:1015F00099E0290E311C6FE170E0CE0181960E94C6
:10160000741E63E070E080911A0290911B020E94A8
:10161000511C813009F00FC1A0910A02ABAFB0910B
:101620000B02BCAF8091110290911202A0911302A3
:10163000B09114028BA39CA3ADA3BEA3809115020D
:1016400090911602A0911702B09118028FA398A74B
:10165000A9A7BAA7909119029BA78091F90190912F
:10166000FA01A091FB01B091FC018CA79DA7AEA748
:10167000BFA74090FD015090FE016090FF01709067
:1016800000028090010290900202A0900302B090AC
:1016900004028091050290910602A0910702B09188
:1016A000080288AB99ABAAABBBAB909109029CAB8B
:1016B000A091F301B091F401BEABADABB091F501D7
:1016C000BFAB8091F6019091F70199AF88AF9091EF
:1016D000F8019AAF80911A0290911B020E941C1B84
:1016E000870121E045E06CA57DA58EA59FA50E9400
:1016F000802D860121E045E0C301B2010E94802DCA
:10170000810121E045E0C501B4010E94802D8E01D8
:101710000F5F1F4F21E045E068A979A98AA99BA91D
:101720000E94802DA3E5B4E0BF93AF930E94C32E27
:101730000F900F908CA9811187C08EE41F928F9318
:1017400081E090E08C0F9D1F9F938F933F922F928B
:10175000DF92CF92FF92EF929CAD9F93ABADAF9390
:1017600086EF93E09F938F930E94C32E0FB6F89459
:10177000DEBF0FBECDBFADA9BEA98EEC93E0119721
:1017800011F485ED93E01F9225E02F931F92BFA9DE
:10179000BF939F938F938CED93E09F938F930E94C1
:1017A000C32E0FB6F894DEBF0FBECDBF9BA5992305
:1017B00009F44CC0A8ADB9AD83E993E0119711F4D9
:1017C0008AE993E01F9225E02F931F92BAADBF9351
:1017D0009F938F936FA178A589A59AA50E94D23473
:1017E0007F936F936BA17CA18DA19EA10E94D234A7
:1017F0007F936F9381EA93E09F938F930E94C32E10
:101800000FB6F894DEBF0FBECDBF1F9285E08F9359
:1018100089E493E09F938F930E94C32E8AE293E022
:101820009F938F930E94C32E0F900F900F900F9055
:101830000F900F90E0CEAEE3B4E0BF93AF930E9461
:10184000C32E0F900F90D7CE89E578CFA0E7B3E0F5
:10185000BF93AF930E94C32E0F900F90D6CFCF931C
:10186000DF9300D000D01F92CDB7DEB78BEC92E0B3
:101870009F938F930E94C32E0E947C119A83898329
:101880000F900F9010E000E08091AD018E3008F0D5
:101890008E508770806480937C0080917A00806491
:1018A00080937A0080917A0086FDFCCF20907800AA
:1018B00030907900C10101978E3F934008F09EC09F
:1018C000B10190E080E00E9408356B017C0120E0CE
:1018D00030E44CE156E40E940F364B015C01A70155
:1018E000960160E070EC8FE794E40E94EE339B0178
:1018F000AC01C501B4010E94603420E030E44CE149
:1019000056E40E9460340E94C73520E030EE46E77E
:1019100055E40E9460342FE03FEC4BE55BE30E940E
:10192000EF339B01AC0160E070E080E89FE30E9430
:10193000603423E333E948E853E40E94EE332B019B
:101940003C010832110508F488C08091AE019091E5
:10195000AF01009709F05AC0C12CD12C7601460185
:1019600057011D8210E000E00F5F1F4F70E060E044
:1019700080911A0290911B020E94511C8130B9F58E
:1019800030920B0220920A0240920C0250920D02F9
:1019900060920E0270920F023324339420E030E004
:1019A00048E453ECC301B2010E94BA3518160CF09A
:1019B000312C309210022D81222399F08092110255
:1019C00090921202A0921302B0921402C0921502D9
:1019D000D0921602E0921702F092180281E08093F2
:1019E000190280911A0290911B020E941C1B63E055
:1019F00070E0CE0101960E94741E46CF412C80EC0F
:101A0000582E89E7682E84EC782E9BCF1C821B828F
:101A1000DC01ED91FC910480F581E02D30E020E0C7
:101A2000AE014D5F5F4FBE016C5F7F4F0995892B03
:101A300009F092CF6C8170E090E080E00E94083560
:101A40004B015C016B8170E090E080E00E94083502
:101A50006B017C01B1E0BD8385CFC12CD12C760117
:101A6000460157011D8280CFDF92EF92FF920F93C4
:101A70001F93CF93DF9300D0CDB7DEB7E0912C0258
:101A8000F0912D0282E08083E0912802F0912902FA
:101A90001082E0912A02F0912B028FEC8083109249
:101AA0003402E0913002F091310286E08083E091CF
:101AB0002E02F0912F02808180618083E0912E02BE
:101AC000F0912F02808188608083E0912E02F09156
:101AD0002F02808180688083E0912E02F0912F0296
:101AE00080818F7D80831A82198289819A818033D7
:101AF000954730F489819A8101969A838983F5CF3D
:101B00008BEE96E090939101809390011092930157
:101B10001092920182E080938B01109295011092B5
:101B20009401109283011092820181EE96E09093CD
:101B300085018093840111E010937D01109287014B
:101B40001092860188E891E090932C0380932B03F8
:101B50008AE791E090932A038093290388E692E034
:101B60009F938F930E94C32E86E392E09F938F935F
:101B70000E94C32E8EE08093AD0160E00E94FA04C3
:101B80000F900F900F900F908091A10181112CC0A8
:101B90008BE091E0909397018093960180E291EA27
:101BA000A7E0B0E08093980190939901A0939A01E7
:101BB000B0939B018FEF9FEF90939D0180939C01C9
:101BC00010929E0180939F018093A00167E070E0D6
:101BD00086E991E00E94680487E291E09093970182
:101BE000809396011093A10186E991E09093AF0153
:101BF0008093AE0161E08DE00E94FA0460E08DE028
:101C00000E94AE048FE190E00E94992A8C01009717
:101C100009F446C0FC019183808381E0838F148E98
:101C20000FB6F8940F9280819181238D448DBC0171
:101C3000249F600D711D112475836483128E93831C
:101C400082832150330B429FB001439F700D1124BA
:101C5000860F971F978386838FEF858F868FC801A6
:101C60000B96928781872FEF3FEF348723879687E4
:101C70008587908B878710860996938B828B358B0F
:101C8000248B978B868B918F808F118A0F900FBE3C
:101C900015821482118210821682C8010E941C1BB8
:101CA00010931B0200931A02012B49F48BE192E07E
:101CB0009F938F930E94C32E0F900F90FFCF81E0D0
:101CC00092E09F938F930E94C32E10E000E023E0E8
:101CD00048E750E06EE571E08FE29CE00E94CB2A7D
:101CE000D82E22E04EE650E062E671E08CE998E002
:101CF0000E94CB2AE82E22E04EE650E067E671E033
:101D00008EED97E00E94CB2AF82E21E046E950E0C4
:101D10006EE671E089ED9AE00E94CB2A0F900F9059
:101D2000F1E0DF1218C0EF1216C0FF1214C08130AC
:101D300091F48CEB91E09F938F930E94C32E0F90B0
:101D40000F900F900F90DF91CF911F910F91FF9007
:101D5000EF90DF90089585EE91E09F938F930E941E
:101D6000C32E0F900F90FFCF1F920F920FB60F92BE
:101D700011242F933F938F939F93AF93BF938091A1
:101D8000BE029091BF02A091C002B091C1023091F9
:101D9000BD0223E0230F2D3758F50196A11DB11D7B
:101DA0002093BD028093BE029093BF02A093C00215
:101DB000B093C1028091C2029091C302A091C4026B
:101DC000B091C5020196A11DB11D8093C2029093EE
:101DD000C302A093C402B093C502BF91AF919F917B
:101DE0008F913F912F910F900FBE0F901F901895DC
:101DF00026E8230F0296A11DB11DD2CF1F920F928C
:101E00000FB60F9211242F933F934F935F936F93CD
:101E10007F938F939F93AF93BF93EF93FF938CE147
:101E200092E00E945206FF91EF91BF91AF919F9176
:101E30008F917F916F915F914F913F912F910F9073
:101E40000FBE0F901F9018951F920F920FB60F9212
:101E500011242F938F939F93EF93FF93E0912C0284
:101E6000F0912D028081E0913202F091330282FDE7
:101E70001BC09081809135028F5F8F732091360255
:101E8000821741F0E0913502F0E0E45EFD4F958F5E
:101E900080933502FF91EF919F918F912F910F9039
:101EA0000FBE0F901F9018958081F4CF0FB6F89455
:101EB0000F92FC01928D0F900FBE81E0911180E096
:101EC0000895CF93DF93FC01A085B1858281938132
:101ED00024813581EC013D832C83C481D5819B8392
:101EE0008A8311968D919C9112978E179F0721F4EA
:101EF0001296DC93CE931197118610868C918150A7
:101F00008C93DF91CF9108950F931F93CF93DF931D
:101F10008C01FB0180819181D80113968F3F980736
:101F2000F1F4E801AF81B88512968D919C911397D9
:101F300093838283EC01FD83EC83B583A4831396A2
:101F4000FC93EE93129711870087F80180818F5FD1
:101F50008083DF91CF911F910F910895D90112963F
:101F60002D913C911397E901488159818417950778
:101F7000A8F7DACFBF92CF92DF92EF92FF920F9342
:101F80001F93CF93DF93EC01B62EC090C702D09081
:101F9000C8020091CC021091CD02E090CA02F090EC
:101FA000CB02809122039091230302960E94610F3D
:101FB000CF3FDC0709F042C0BB2009F43FC0E091ED
:101FC000CF02F091D002A0912203B0912303159685
:101FD000FC93EE931497A0912203B0912303848184
:101FE000958117969C938E931697809122039091DA
:101FF0002303A481B581029613969C938E93129726
:102000008091220390912303029695838483E0912B
:102010002203F09123038EEC92E0938782878091D4
:10202000CE028F5F8093CE02DF91CF911F910F91EF
:10203000FF90EF90DF90CF90BF900895CC0DDD1D05
:10204000E0912203F0912303D383C28360912203A2
:10205000709123036E5F7F4FCC15DD0560F4C701DF
:10206000DF91CF911F910F91FF90EF90DF90CF9074
:10207000BF900C94840FC8010E94840F8091BB0212
:102080009091BC02C817D90778F6D093BC02C093D0
:10209000BB02CACFE091CC02F091CD0280818111C8
:1020A00007C08FEF9FEF9093BC028093BB0208950F
:1020B000E091CC02F091CD020580F681E02D808187
:1020C0009181F1CFFC01DB010FB6F8940F924091A2
:1020D000C7025091C8022D913C9111972F3F3207B2
:1020E00011F1818192816091C9027081761749F066
:1020F0004817590730F01D921C9281E00F900FBED7
:102100000895481B590B42175307A8F7241B350B9A
:102110002D933C938091C90280838091C702909156
:10212000C8029283818380E0E9CFCF93DF93DC0103
:102130001596ED91FC910680F781E02DA489B58973
:102140008685978520893189EC013D832C83C08960
:10215000D1899B838A83CF010C9611962D913C9156
:1021600012972817390721F41296DC93CE93119712
:10217000158A148A2C9121502C932091AB012111A6
:1021800057C0A285B3858481958126813781EC0172
:102190003D832C83C681D7819B838A83CF0102969E
:1021A00011962D913C9112972817390721F4129618
:1021B000DC93CE931197138612862C9121502C9389
:1021C000C68920911F032C1710F4C0931F0329E028
:1021D0002C9FE0011124C550DD4F0980DA81C02D0C
:1021E000D583C4834C815D8157834683AC81BD8197
:1021F00013969C938E9312979D838C83A689A29F9E
:10220000D0011124A550BD4FB387A2878C918F5F59
:102210008C93A0912203B0912303968956968C91BA
:10222000891730F581E08093C602DF91CF91089540
:10223000A091E102B091E202B787A68714962D9192
:102240003C911597318B208B1496CD91DC9115978D
:102250009B838A8315969C938E93149780EE92E0CD
:10226000958B848B8091E0028F5F8093E002D1CFC9
:1022700080E0DBCFEF92FF920F931F93CF93DF931A
:10228000EC010FB6F8940F921E8D7C0181E1E80EEF
:10229000F11C01E01116D4F08FEF8E8F0F900FBE5E
:1022A0000FB6F8940F921D8D7E0188E0E80EF11CA8
:1022B00001E01116B4F08FEF8D8F0F900FBEDF91FC
:1022C000CF911F910F91FF90EF90089589898823F6
:1022D00019F3C7010E94951081110093C602115095
:1022E000D9CF8885882339F3C7010E9495108111C1
:1022F0000093C6021150DDCF0FB6F8940F92809173
:10230000C7029091C8020F900FBE08958091AB0153
:102310008F5F8093AB0108950F920FB6F8940F92E0
:102320001F9211242F923F924F925F926F927F9251
:102330008F929F92AF92BF92CF92DF92EF92FF92D5
:102340000F931F932F933F934F935F936F937F93BD
:102350008F939F93AF93BF93CF93DF93EF93FF93AD
:10236000A0912203B09123030DB60D920EB60D92EB
:102370008091AB01882321F081E08093C60265C77C
:102380001092C602A0912203B0912303E091220390
:10239000F09123032D913C918789908D82179307AB
:1023A00008F418C780912203909123034996209145
:1023B000220330912303009711F486E591E09F9367
:1023C0008F9380E992E09F938F930E94C32EF7ED45
:1023D0008F2EF4E09F2EF4012491A3ECAA2EA4E00A
:1023E000BA2EF50184910F900F900F900F908823D3
:1023F00099F090E0880F991FFC01E257FB4FA591DF
:10240000B491FC01E856FB4F859194918FB7F894F5
:102410009C91292B2C938FBF7FEA472E74E0572E77
:10242000C9E0D1E00FEF1FEFF2018491F401949124
:10243000F5012491222309F43EC0882371F18330F1
:1024400069F028F48130B1F08230C1F026C08730C5
:10245000C9F08830E9F0843001F506C08091800031
:102460008F778093800019C0809180008F7D80934A
:10247000800013C084B58F7784BD0FC084B58F7D75
:1024800084BD0BC08091B0008F778093B00005C0F1
:102490008091B0008F7D8093B000E22FF0E0EE0FCE
:1024A000FF1FE856FB4FA591B4918FB7F8942C917C
:1024B000922B9C938FBF8091AB018F5F8093AB0178
:1024C0004091C7025091C8026090CC027090CD023A
:1024D0008091CA029091CB02E0912203F0912303F4
:1024E00022853385E480F58066817781D701159652
:1024F0007C936E93149766817781DB011396FC922F
:10250000EE9212977F01B2E0EB0EF11CD901119609
:10251000CD90DC901297CE14DF0421F412967C93B8
:102520006E93119713861286F90160816150608362
:102530009A01295F3F4FE0912203F09123033383F7
:10254000228324173507D0F5C0902203D0902303AF
:1025500096012E5F3F4FD60112964D915C91FC0182
:1025600033964F3F540731F4DC011796ED91FC91FF
:1025700009C0FB0162817381DB01ED90FC904E1577
:102580005F05B8F742815381D60115965C934E934F
:102590001497DA0115963C932E931497D60117964B
:1025A000FC93EE931697338322831B969C938E9312
:1025B0001A97FC0120812F5F208344C08091220361
:1025C00090912303AC014E5F5F4FDC0112966D9139
:1025D0007C91F30133966F3F760731F4D301179660
:1025E000ED91FC9109C0F701E280F380D701CD9015
:1025F000DC906C157D05B8F762817381DC0115965E
:102600007C936E931497DB0115965C934E9314970D
:10261000DC011796FC93EE931697538342831B9627
:102620007C926E921A97F30180818F5F80838091F4
:10263000BB029091BC022817390720F43093BC02EA
:102640002093BB020FB6F8940F928091AB0181509A
:102650008093AB018091AB01882311F080E0E5C14C
:10266000809124038823D1F34091E5025091E60242
:10267000F0E0E0E08BC0DA011696ED91FC91E48881
:10268000F5882685378580899189D90115969C938F
:102690008E93149780899189DC0113963C932E9335
:1026A00012979F01245F3F4FD70111966D917C9146
:1026B00012976217730721F412969C938E931197C9
:1026C000158A148AD7018C9181508C93E284F3840B
:1026D0008481958126813781DC0115963C932E9368
:1026E000149726813781D90113969C938E93129764
:1026F000CF010296D70111966D917C9112976817C0
:10270000790721F412963C932E9311971386128623
:10271000D7012C9121502C93A68920911F032A17B1
:1027200010F4A0931F03CA9FD0011124A550BD4FE0
:1027300011966D917C9175836483DB0114962D91C4
:102740003C9115973783268314962D913C91D9019E
:1027500013969C938E931297DB0115969C938E9300
:10276000149796899C9FD0011124A550BD4FB38723
:10277000A2878C918F5F8C93A0912203B091230349
:1027800056968C91891710F4D093C6028091E0027E
:10279000811171CFEF2BC9F0E091CC02F091CD0205
:1027A0008081811105C01093BC020093BB020DC053
:1027B000E091CC02F091CD020580F681E02D808180
:1027C00091819093BC028093BB022091A90130912A
:1027D000AA012115310509F41CC18091AB018111B9
:1027E00003C18091C7029091C80201969093C802DC
:1027F0008093C702009771F54091CC025091CD02B1
:102800006091CA027091CB027093CD026093CC02AA
:102810005093CB024093CA024091C9024F5F40934C
:10282000C902E091CC02F091CD024081411105C076
:102830001093BC020093BB020DC0E091CC02F0915A
:10284000CD020580F681E02D408151815093BC027C
:102850004093BB024091BB025091BC02D12C841723
:10286000950708F4ADC0D12CE091CC02F091CD02D7
:102870004081411105C01093BC020093BB02A0C06F
:10288000E091CC02F091CD020580F681E02D06802A
:10289000F781E02D428153818417950728F45093E6
:1028A000BC024093BB028CC0628473844481558116
:1028B00066817781DA0115967C936E931497668111
:1028C0007781DB0113965C934E931297AF014E5FB5
:1028D0005F4FD3011196ED90FC901297E416F50628
:1028E00021F412967C936E93119713861286D3016E
:1028F0006C9161506C93248835882114310429F13E
:1029000066857785E088F188DB011596FC92EE926A
:102910001497E088F188D70113967C936E931297F1
:10292000D10111966D907C901297BF01645F7F4F2B
:102930006616770621F41296FC92EE921197158A8C
:10294000148AD1016C9161506C93A68960911F0328
:102950006A1710F4A0931F03CA9FD0011124A55039
:10296000BD4F1196ED90FC90F582E482D70114964C
:102970006D917C9115977783668314966D917C9108
:10298000DB0113965C934E931297D70115965C93D7
:102990004E93149756895C9FD0011124A550BD4FCA
:1029A000B387A2874C914F5F4C93E0912203F09143
:1029B00023034689451708F057CFDD24D39454CF1D
:1029C000E0912203F0912303E689CE9FF0011124C8
:1029D000E550FD4F8081823010F0DD24D39480914A
:1029E000C60281110CC00AC08091A9019091AA0170
:1029F00001969093AA018093A90103C0D110D093AE
:102A0000C6022150310909F0E8CE1092AA011092B5
:102A1000A9018091C602882309F420CE8091220367
:102A2000909123030E948C1181E00F900FBE8111C1
:102A300002C00E948C113FB7F8948091C20290911D
:102A4000C302A091C402B091C50226B5A89B05C0DF
:102A50002F3F19F00196A11DB11D3FBFBA2FA92F1D
:102A6000982F8827820F911DA11DB11D42E0880F6C
:102A7000991FAA1FBB1F4A95D1F758E0C52ED12C2C
:102A8000E12CF12C0EC0E1E0CE1AD108E108F108EA
:102A900088519C4FAF4FBF4FC114D104E104F104E2
:102AA00069F13FB7F8944091C2025091C30260911E
:102AB000C4027091C50226B5A89B06C02F3F21F025
:102AC0004F5F5F4F6F4F7F4F3FBF762F652F542F64
:102AD0004427420F511D611D711DF2E0440F551F27
:102AE000661F771FFA95D1F7481B590B6A0B7B0BB2
:102AF000483E53406105710530F6D3CFF201849111
:102B0000F4019491F5012491222309F43FC0882314
:102B100071F1833069F028F48130B1F08230C1F076
:102B200026C08730C9F08830E9F0843001F506C04E
:102B3000809180008F778093800019C08091800001
:102B40008F7D8093800013C084B58F7784BD0FC0C4
:102B500084B58F7D84BD0BC08091B0008F7780934A
:102B6000B00005C08091B0008F7D8093B000E22F4F
:102B7000F0E0EE0FFF1FE856FB4FA591B4918FB721
:102B8000F8942C91909592239C938FBF8091AB01E8
:102B90008F5F8093AB014091C7025091C802609053
:102BA000CC027090CD028091CA029091CB02E0914C
:102BB0002203F091230322853385E480F58066812A
:102BC0007781D70115967C936E93149766817781F0
:102BD000DB011396FC92EE9212977F01B2E0EB0EAE
:102BE000F11CD9011196CD90DC901297CE14DF0420
:102BF00021F412967C936E93119713861286F90135
:102C00006081615060839A01295F3F4FE091220308
:102C1000F09123033383228324173507D0F5C09026
:102C20002203D090230396012E5F3F4FD6011296C8
:102C30004D915C91FC0133964F3F540731F4DC0118
:102C40001796ED91FC9109C0FB0162817381DB0154
:102C5000ED90FC904E155F05B8F742815381D60187
:102C600015965C934E931497DA0115963C932E9328
:102C70001497D6011796FC93EE931697338322830D
:102C80001B969C938E931A97FC0120812F5F2083C3
:102C900044C08091220390912303AC014E5F5F4FAB
:102CA000DC0112966D917C91F30133966F3F7607AC
:102CB00031F4D3011796ED91FC9109C0F701E28040
:102CC000F380D701CD90DC906C157D05B8F762815B
:102CD0007381DC0115967C936E931497DB01159636
:102CE0005C934E931497DC011796FC93EE93169722
:102CF000538342831B967C926E921A97F3018081D4
:102D00008F5F80838091BB029091BC0228173907A6
:102D100020F43093BC022093BB020FB6F8940F92BC
:102D20008091AB0181508093AB018091AB018823EE
:102D300011F080E0E5C1809124038823D1F3409114
:102D4000E5025091E602F0E0E0E08BC0DA01169671
:102D5000ED91FC91E488F5882685378580899189F5
:102D6000D90115969C938E93149780899189DC01E3
:102D700013963C932E9312979F01245F3F4FD701E8
:102D800011966D917C9112976217730721F4129638
:102D90009C938E931197158A148AD7018C91815038
:102DA0008C93E284F3848481958126813781DC01D0
:102DB00015963C932E93149726813781D90113964B
:102DC0009C938E931297CF010296D70111966D9125
:102DD0007C9112976817790721F412963C932E93F1
:102DE000119713861286D7012C9121502C93A68916
:102DF00020911F032A1710F4A0931F03CA9FD0012C
:102E00001124A550BD4F11966D917C9175836483FB
:102E1000DB0114962D913C911597378326831496E8
:102E20002D913C91D90113969C938E931297DB01BF
:102E300015969C938E93149796899C9FD00111248C
:102E4000A550BD4FB387A2878C918F5F8C93A091C3
:102E50002203B091230356968C91891710F4D093D6
:102E6000C6028091E002811171CFEF2BC9F0E09191
:102E7000CC02F091CD028081811105C01093BC027B
:102E80000093BB020DC0E091CC02F091CD02058011
:102E9000F681E02D808191819093BC028093BB02EA
:102EA0002091A9013091AA012115310509F41CC115
:102EB0008091AB01811103C18091C7029091C8023A
:102EC00001969093C8028093C702009771F54091D4
:102ED000CC025091CD026091CA027091CB027093E6
:102EE000CD026093CC025093CB024093CA02409132
:102EF000C9024F5F4093C902E091CC02F091CD022C
:102F00004081411105C01093BC020093BB020DC06B
:102F1000E091CC02F091CD020580F681E02D408158
:102F200051815093BC024093BB024091BB0250912F
:102F3000BC02D12C8417950708F4ADC0D12CE091C8
:102F4000CC02F091CD024081411105C01093BC022A
:102F50000093BB02A0C0E091CC02F091CD020580AD
:102F6000F681E02D0680F781E02D428153818417A0
:102F7000950728F45093BC024093BB028CC0628436
:102F800073844481558166817781DA0115967C933B
:102F90006E93149766817781DB0113965C934E9351
:102FA0001297AF014E5F5F4FD3011196ED90FC90E9
:102FB0001297E416F50621F412967C936E931197FE
:102FC00013861286D3016C9161506C9324883588E6
:102FD0002114310429F166857785E088F188DB01C9
:102FE0001596FC92EE921497E088F188D70113961B
:102FF0007C936E931297D10111966D907C901297ED
:10300000BF01645F7F4F6616770621F41296FC922B
:10301000EE921197158A148AD1016C9161506C93CC
:10302000A68960911F036A1710F4A0931F03CA9F1B
:10303000D0011124A550BD4F1196ED90FC90F58262
:10304000E482D70114966D917C91159777836683FE
:1030500014966D917C91DB0113965C934E931297BD
:10306000D70115965C934E93149756895C9FD001B7
:103070001124A550BD4FB387A2874C914F5F4C934D
:10308000E0912203F09123034689451708F057CFBA
:10309000DD24D39454CFE0912203F0912303E689F9
:1030A000CE9FF0011124E550FD4F8081823010F059
:1030B000DD24D3948091C60281110CC00AC0809196
:1030C000A9019091AA0101969093AA018093A90168
:1030D00003C0D110D093C6022150310909F0E8CEC7
:1030E0001092AA011092A9018091C602882309F4C6
:1030F00020CE80912203909123030E948C1181E0C5
:103100000F900FBE811102C00E948C113FB7F8943E
:103110008091C2029091C302A091C402B091C502F5
:1031200026B5A89B05C02F3F19F00196A11DB11D22
:103130003FBFBA2FA92F982F8827820F911DA11D5D
:10314000B11D22E0880F991FAA1FBB1F2A95D1F736
:1031500038E0C32ED12CE12CF12C0FC0E1E0CE1AC7
:10316000D108E108F10888519C4FAF4FBF4FC114FF
:10317000D104E104F10409F457C93FB7F894409130
:10318000C2025091C3026091C4027091C50226B57B
:10319000A89B06C02F3F21F04F5F5F4F6F4F7F4FBF
:1031A0003FBF762F652F542F4427420F511D611DBD
:1031B000711DE2E0440F551F661F771FEA95D1F796
:1031C000481B590B6A0B7B0B483E53406105710548
:1031D00028F6D3CF20911F0389E001C02150422F50
:1031E00050E0849FF001859FF00D1124E550FD4FC4
:1031F0009081992399F3A181B28112966D917C916E
:1032000072836183289FC001112482509D4F6817EB
:10321000790721F4858196819283818389E0849F57
:10322000F001859FF00D1124E550FD4F0180F281E2
:10323000E02D86819781909323038093220320932E
:103240001F038091220390912303A0912203B09148
:103250002303CD91CDBFDD91DEBFFF91EF91DF91D3
:10326000CF91BF91AF919F918F917F916F915F911E
:103270004F913F912F911F910F91FF90EF90DF9011
:10328000CF90BF90AF909F908F907F906F905F9006
:103290004F903F902F901F900F900FBE0F9008956A
:1032A0008F929F92BF92CF92DF92EF92FF920F93F5
:1032B0001F93CF93DF930FB6F8940F928091AB01D9
:1032C00081508093AB018091AB01882379F080E03D
:1032D0000F900FBEDF91CF911F910F91FF90EF9054
:1032E000DF90CF90BF909F908F900895809124039E
:1032F000882369F3E090E502F090E602F0E0E0E078
:1033000039E041E08091E00281115EC0EF2B11F0C5
:103310000E944A10E090A901F090AA01E114F10482
:1033200009F47DC189E0D82ECC24C3940FEF1FEFA0
:103330008091AB01811161C1C091C702D091C802D7
:103340004E018FEF881A980A9092C8028092C702A5
:1033500081149104B9F48091CC029091CD02209116
:10336000CA023091CB023093CD022093CC029093CD
:10337000CB028093CA028091C9028F5F8093C902F9
:103380000E944A108091BB029091BC02B12C881619
:10339000990608F026C1E0912203F0912303E68903
:1033A000DE9EF0011124E550FD4F8081823010F047
:1033B000BB24B3948091C602811103C0BB2009F4E1
:1033C00025C1C092C60222C1D7011696ED91FC918B
:1033D000A489B5896685778580899189EB019D836C
:1033E0008C8380899189EC017B836A83BF01645F50
:1033F0007F4F11960D911C9112970617170721F414
:1034000012969C938E931197158A148A8C918150F1
:103410008C93A285B3858481958166817781EC0147
:103420007D836C8366817781EB019B838A83CF01E7
:10343000029611960D911C9112970817190721F405
:1034400012967C936E931197138612862C912150BD
:103450002C93A68920911F032A1710F4A0931F0311
:103460003A9FD0011124A550BD4F11960D90BC91EB
:10347000A02DB583A48314966D917C9115977783C5
:10348000668314966D917C911597EB019B838A83DB
:1034900015969C938E9314979689939FD00111242F
:1034A000A550BD4FB387A2878C918F5F8C93A0915D
:1034B0002203B091230356968C91891708F022CFEE
:1034C0004093C6021FCFE091CC02F091CD0205805F
:1034D000F681E02D0680F781E02D828193818816A8
:1034E000990628F49093BC028093BB0254CFC28506
:1034F000D3858481958126813781DC0115963C93A3
:103500002E93149726813781D90113969C938E931D
:103510001297CF01029649815A814817590711F431
:103520003A83298313861286288121502883A4890F
:10353000B5891097F9F02685378540895189E901C9
:103540005D834C8340895189EA013B832A8311962C
:103550006D917C9112979F01245F3F4F6217730713
:1035600021F412965C934E931197158A148A2C912C
:1035700021502C93A68920911F032A1710F4A093A1
:103580001F03DA9ED0011124A550BD4F11960D9056
:10359000BC91A02DB583A48314962D913C911597D1
:1035A0003783268314962D913C911597E9019B83CF
:1035B0008A8315969C938E93149796899D9DD0012E
:1035C0001124A550BD4FB387A2878C918F5F8C9338
:1035D000E0912203F09123038689891710F4BB241C
:1035E000B394E091CC02F091CD02808181116BCF38
:1035F0001093BC020093BB02CECE8091A9019091A2
:10360000AA0101969093AA018093A901D1E0ED1A35
:10361000F10809F08DCE1092AA011092A9018091B3
:10362000C602882309F453CE80912203909123038C
:103630000E948C1181E04CCEAF92BF92DF92EF924C
:10364000FF920F931F93CF93DF9300D000D01F9270
:10365000CDB7DEB78C011D821C8280E0780198E036
:10366000E90EF11C0FB6F8940F92D8015A962C91DE
:103670005A975B969C915B97291708F0B0C05A96B1
:10368000DC905A975C964C915C9741118CC08D915F
:103690009C91892B11F080E00AC0F801E480F5804C
:1036A000E114F10431F580E0F80115821482D3941D
:1036B000D8015A96DC925A9751969C91992321F001
:1036C000C80141960E94951081110E948C110F90A3
:1036D0000FBE81E00F900F900F900F900F90DF9131
:1036E000CF911F910F91FF90EF90DF90BF90AF901F
:1036F0000895D7019A968C919A9781509A968C93B7
:103700009A9756962C91569799969C91291759F20B
:103710008111C9CF5701B2E0AB0EB11CC5010E94A7
:10372000610FF70181A5868B482F50E024E030E03F
:10373000241B350B3587248790911F03981710F4AD
:1037400080931F0389E0849FD001859FB00D1124D1
:10375000A550BD4F11960D90BC91A02DF701B583DA
:10376000A48314962D913C91159737832683149644
:10377000ED91FC911597B382A2821596BC92AE9200
:103780001497D7015696EC915697E89FF0011124B3
:10379000E550FD4F1B96FC93EE931A9780818F5F47
:1037A000808381E081CF50E070E060E012968D91DF
:1037B0009C910E94B636F801848D22813381820F5C
:1037C000932F911D938382832481358182179307E0
:1037D00008F461CF80819181938382835CCF2C81B7
:1037E0003D81232B21F40F900FBE80E073CF811118
:1037F00009C08091C90289838091C7029091C80253
:103800009B838A830F900FBE0E9486110FB6F89497
:103810000F92F801858D8F3F09F4158ED8015E96C1
:103820008C915E978F3F11F45E961C920F900FBEA5
:10383000BE016C5F7F4FCE0101960E946210811124
:103840002AC00FB6F8940F92F801928D838D0F90D5
:103850000FBE98131AC0AC80BD8060912203709196
:103860002303645F7F4FC7010E94840F61E0C5019D
:103870000E94BA0FC8010E943A110E94501981118A
:1038800002C00E948C1181E0EDCEC8010E943A1165
:103890000E945019F8CFC8010E943A110E94501995
:1038A000A4CF7F928F929F92AF92BF92CF92DF92DE
:1038B000EF92FF920F931F93CF93DF9300D000D02E
:1038C0001F92CDB7DEB78C017D836C83D12C90E045
:1038D000580121E1A20EB11C89E0782E24E0822E4D
:1038E000912C0FB6F8940F92D8015A968C915A9752
:1038F0008823C9F181505A968C935A978D919C9147
:10390000892B71F4E0912203F0912303309719F091
:1039100082A58F5F82A7D8011596FC93EE9314972A
:10392000F8018085882339F0C80108960E94951017
:1039300081110E948C110F900FBEDD24D3948D2D28
:103940000F900F900F900F900F90DF91CF911F91DC
:103950000F91FF90EF90DF90CF90BF90AF909F902E
:103960008F907F9008952C813D81232B21F40F901F
:103970000FBED12CE4CF911109C08091C902898377
:103980008091C7029091C8029B838A830F900FBEDB
:103990000E9486110FB6F8940F92D8015D968C9113
:1039A0005D978F3F11F45D961C92F801868D8F3FD5
:1039B00009F4168E0F900FBEBE016C5F7F4FCE01D3
:1039C00001960E9462108111B9C0C8010E94560F71
:1039D000882309F4ADC0D8018D919C91892B09F001
:1039E00078C00FB6F8940F92F801E480F580E114E6
:1039F000F10409F49BC0D70156968C915697E0913B
:103A00002203F09123039689891708F084C01C963D
:103A10002D913C911D9737FD0CC0E0912203F09150
:103A2000230396899401291B31091D963C932E93FB
:103A30001C97879DC001112485509D4FF701228559
:103A400033852817390709F05EC06701F2E0CF0E11
:103A5000D11CC6010E94610FE0912203F091230363
:103A6000E689D7015696EC9380911F038E1710F4C8
:103A7000E0931F037E9EF0011124E550FD4F01806D
:103A8000F281E02DD7011596FC93EE931497848173
:103A9000958117969C938E931697A481B581139662
:103AA000DC92CE921297D582C482D7015696EC91C1
:103AB0005697E79DF0011124E550FD4F1B96FC93AE
:103AC000EE931A9780818F5F8083DD24D3940F90CB
:103AD0000FBEEC80FD806091220370912303645F30
:103AE0007F4FC5010E94840F61E0C7010E94BA0F99
:103AF000C8010E943A110E945019811102C00E940F
:103B00008C1191E0EECEE0912203F091230386899F
:103B1000F701868BDACFE0912203F0912303DD24B5
:103B2000D39499969C918689981788F2D12CCFCFFF
:103B3000C8010E943A110E945019E3CFC8010E94A7
:103B40003A110E945019C8010E94560F8823C9F2E9
:103B5000DD2009F4F4CE0FB6F8940F92F8018189B4
:103B6000882309F47BC00688F789E02D908184E0E2
:103B7000891BD80114960D911C910115110509F4AA
:103B8000F6CEF80191A5981708F4982FD80156960B
:103B90008C915697981709F4EACE9A962C919A9799
:103BA000213009F0E4CE56969C9356971C962D91A1
:103BB0003C911D9737FD08C024E030E0291B3109F6
:103BC0001D963C932E931C97B9E08B9FC001112446
:103BD00085509D4FF801228533852817390709F054
:103BE000C6CE7801F2E0EF0EF11CC7010E94610F12
:103BF000F801A68980911F038A1710F4A0931F0370
:103C000089E08A9FD0011124A550BD4F11960D90D7
:103C1000BC91A02DF801B583A48314962D913C91FD
:103C20001597378326831496ED91FC911597F382AF
:103C3000E2821596FC92EE921497D8015696EC917A
:103C40005697E89FF0011124E550FD4F1B96FC9319
:103C5000EE931A9780818F5F808389CE80E089CF31
:103C600080E0E82E80E0F82E8091AC0181110CC03C
:103C70008091FB02823010F00E948C11E114F1045B
:103C800099F30E944506F0CF0FB6F8940F92E09199
:103C9000DC02F091DD02C681D781CE0102960E943E
:103CA000610F809124038150809324038091AC01A3
:103CB00081508093AC010F900FBE0F89188D0115B4
:103CC000110539F00E948611C8010E943A2E0E9407
:103CD0005019209709F4C8CF0E948611CE010E9486
:103CE0003A2E0E945019C0CF0F931F93CF93DF93AA
:103CF000EC018B010E9486112091C7023091C8020D
:103D000048815981CA01800F911F998388832417A4
:103D1000350780F48417950780F0C0E00E945019A1
:103D2000811102C00E948C118C2FDF91CF911F91C5
:103D30000F9108958417950718F02817390768F729
:103D400060E0821B930B0E94BA0FC1E0E7CF7F9225
:103D50008F929F92AF92BF92CF92DF92EF92FF929B
:103D60000F931F93CF93DF936B017C018091AB0185
:103D70008F5F8093AB010091C7021091C802A090A1
:103D8000CC02B090CD02C091CA02D091CB02E0919A
:103D90002203F091230382859385448155812681F6
:103DA0003781DA0115963C932E931497268137813B
:103DB000D90113965C934E931297AF014E5F5F4FFC
:103DC000DC0111966D917C9112976417750721F4AF
:103DD00012963C932E93119713861286FC01208134
:103DE00021502083D701C60124E0B695A795979569
:103DF00087952A95D1F7800F911FE0912203F091CA
:103E00002303938382838017910708F0ADC000914C
:103E1000220310912303C8010296D80112962D9116
:103E20003C91FE0133962F3F320709F094C0EF8199
:103E3000F88522813381D80115963C932E931497EF
:103E4000D90115969C938E931497D8011796FC93DD
:103E5000EE931697938382831B96DC93CE931A97E7
:103E600088818F5F88830FB6F8940F928091AB01A1
:103E700081508093AB018091AB01882309F4B0C0DD
:103E800080E00F900FBE811102C00E948C11DFE014
:103E9000CD22DD24EE24FF243FB7F8948091C202A6
:103EA0009091C302A091C402B091C50226B5A89B0F
:103EB00005C02F3F19F00196A11DB11D3FBFBA2FBC
:103EC000A92F982F8827820F911DA11DB11DC2E037
:103ED000880F991FAA1FBB1FCA95D1F7C114D1041F
:103EE000E104F10409F448C23FB7F8944091C202DA
:103EF0005091C3026091C4027091C50226B5A89B7F
:103F000006C02F3F21F04F5F5F4F6F4F7F4F3FBF86
:103F1000762F652F542F4427420F511D611D711DAF
:103F2000E2E0440F551F661F771FEA95D1F7481B43
:103F3000590B6A0B7B0B483E53406105710570F2CB
:103F4000E1E0CE1AD108E108F10888519C4FAF4F4B
:103F5000BF4FC4CFFA0142815381DA016D917C9148
:103F600026173707B8F765CFC0912203D0912303F6
:103F70008E010E5F1F4F2A813B81F50133962F3F43
:103F8000320729F5D5011796ED91FC9122813381F5
:103F90003D832C83D90115961C930E931497FF83B0
:103FA000EE8313830283BB86AA86E50128812F5FF7
:103FB00028832091BB023091BC028217930708F03E
:103FC00052CF9093BC028093BB024DCFFA01428145
:103FD0005381DA016D917C9126173707B8F7D6CF58
:103FE00080912403882309F44BCFA090E502B09080
:103FF000E602F0E0E0E039E041E08091E00281118A
:104000006EC0EF2B69F0E091CC02F091CD0280817F
:104010008111E4C08FEF9FEF9093BC028093BB02AD
:104020002091A9013091AA012115310509F497C108
:10403000D9E0AD2E772473940FEF1FEF8091AB0181
:1040400081117CC18091C7029091C8020196909322
:10405000C8028093C702009701F54091CC025091AD
:10406000CD026091CA027091CB027093CD02609331
:10407000CC025093CB024093CA024091C9024F5FD9
:104080004093C902E091CC02F091CD0240814111F0
:10409000AFC01093BC020093BB024091BB02509191
:1040A000BC02B12C8417950708F03CC1E0912203B3
:1040B000F0912303E689AE9EF0011124E550FD4FF7
:1040C0008081823010F0BB24B3948091C6028111AC
:1040D00003C0BB2009F43BC17092C60238C1D501B0
:1040E0001696ED91FC91A489B589668577858089BE
:1040F0009189EB019D838C8380899189EC017B837D
:104100006A83BF01645F7F4F11960D911C911297D6
:104110000617170721F412969C938E931197158A10
:10412000148A8C9181508C93A285B385848195816A
:1041300066817781EC017D836C8366817781EB01F9
:104140009B838A83CF01029611960D911C91129741
:104150000817190721F412967C936E931197138612
:1041600012862C9121502C93A68920911F032A1787
:1041700010F4A0931F033A9FD0011124A550BD4F06
:1041800011960D90BC91A02DB583A48314966D91CA
:104190007C9115977783668314966D917C91159722
:1041A000EB019B838A8315969C938E931497968933
:1041B000939FD0011124A550BD4FB387A2878C9146
:1041C0008F5F8C93A0912203B091230356968C911C
:1041D000891708F012CF4093C6020FCFE091CC02AE
:1041E000F091CD020580F681E02D8081918114CF80
:1041F000E091CC02F091CD020580F681E02D408166
:1042000051815093BC024093BB0247CFE091CC0256
:10421000F091CD020580F681E02D0680F781E02D3A
:10422000428153818417950728F45093BC02409330
:10423000BB023CCFA285B3854481558166817781DD
:10424000EA017D836C83C681D7815B834A83AF019A
:104250004E5F5F4F11966D917C91129764177507B1
:1042600021F41296DC93CE931197138612866C91EB
:1042700061506C93A489B5891097F1F066857785B4
:1042800080889188EB019D828C82C089D1897B8353
:104290006A8311968D909C901297BF01645F7F4F47
:1042A0008616970621F41296DC93CE931197158A01
:1042B000148A6C9161506C93A68960911F036A17F0
:1042C00010F4A0931F03AA9ED0011124A550BD4F46
:1042D00011960D90BC91A02DB583A48314966D9179
:1042E0007C911597778366831496CD91DC91159711
:1042F0005B834A8315965C934E93149756895A9D17
:10430000D0011124A550BD4FB387A2874C914F5FB8
:104310004C93E0912203F09123034689451710F452
:10432000BB24B394E091CC02F091CD0240814111C5
:104330006DCF1093BC020093BB02B8CE8091A9014F
:104340009091AA0101969093AA018093A90121500E
:10435000310909F073CE1092AA011092A90180913F
:10436000C602882309F48CCD809122039091230307
:104370000E948C1181E085CDDF91CF911F910F912B
:10438000FF90EF90DF90CF90BF90AF909F908F9075
:104390007F9008950F920FB6F8940F921F921124F8
:1043A0002F923F924F925F926F927F928F929F9245
:1043B000AF92BF92CF92DF92EF92FF920F931F9333
:1043C0002F933F934F935F936F937F938F939F931D
:1043D000AF93BF93CF93DF93EF93FF93A09122030B
:1043E000B09123030DB60D920EB60D9213BE8091BF
:1043F000AB018111F9C08091C7029091C80201966A
:104400009093C8028093C702009781F52091CC0257
:104410003091CD024091CA025091CB025093CD020F
:104420004093CC023093CB022093CA022091C90260
:104430002F5F2093C902E091CC02F091CD02208140
:10444000211107C02FEF3FEF3093BC022093BB0236
:104450000DC0E091CC02F091CD020580F681E02DF7
:10446000208131813093BC022093BB022091BB029A
:104470003091BC028217930710F420E0A1C020E025
:10448000B9E0DB2EE091CC02F091CD023081311108
:1044900007C08FEF9FEF9093BC028093BB0290C048
:1044A000E091CC02F091CD020580F681E02D0680EE
:1044B000F781E02D428153818417950728F45093AA
:1044C000BC024093BB027CC0A285B3854481558168
:1044D00066817781EA017D836C8366817781EB0158
:1044E0005B834A83AF014E5F5F4F11960D911C9124
:1044F00012970417150721F412967C936E93119767
:10450000138612863C9131503C93A489B58910974B
:10451000F9F06685778500891189EB011D830C838D
:1045200000891189E8017B836A831196ED90FC90E4
:104530001297BF01645F7F4FE616F70621F41296CB
:104540001C930E931197158A148A3C9131503C9319
:10455000A68930911F033A1710F4A0931F03DA9E27
:10456000D0011124A550BD4F11960D90BC91A02DE6
:10457000B583A48314966D917C9115977783668398
:1045800014966D917C911597EB015B834A83159688
:104590005C934E93149746894D9DD0011124A550EC
:1045A000BD4FB387A2873C913F5F3C93E0912203CC
:1045B000F09123033689341708F064CF21E062CFED
:1045C000E0912203F0912303E689D9E0ED9FF00109
:1045D0001124E550FD4F8081823008F021E0809168
:1045E000C60281110EC00AC08091A9019091AA0152
:1045F00001969093AA018093A90170C7222309F420
:104600006DC78091AB01882321F081E08093C602C1
:1046100065C71092C602A0912203B0912303E091D6
:104620002203F09123032D913C918789908D82176D
:10463000930708F418C780912203909123034996A9
:104640002091220330912303009711F486E591E035
:104650009F938F9380E992E09F938F930E94C32E44
:10466000F7ED8F2EF4E09F2EF4012491A3ECAA2EF7
:10467000A4E0BA2EF50184910F900F900F900F9047
:10468000882399F090E0880F991FFC01E257FB4FB7
:10469000A591B491FC01E856FB4F859194918FB799
:1046A000F8949C91292B2C938FBF7FEA472E74E0BE
:1046B000572EC9E0D1E00FEF1FEFF2018491F40112
:1046C0009491F5012491222309F43EC0882371F1CD
:1046D000833069F028F48130B1F08230C1F026C017
:1046E0008730C9F08830E9F0843001F506C0809148
:1046F00080008F778093800019C0809180008F7D2B
:104700008093800013C084B58F7784BD0FC084B5BB
:104710008F7D84BD0BC08091B0008F778093B000F7
:1047200005C08091B0008F7D8093B000E22FF0E053
:10473000EE0FFF1FE856FB4FA591B4918FB7F89489
:104740002C91922B9C938FBF8091AB018F5F8093B4
:10475000AB014091C7025091C8026090CC027090AA
:10476000CD028091CA029091CB02E0912203F09198
:10477000230322853385E480F58066817781D70124
:1047800015967C936E93149766817781DB0113965F
:10479000FC92EE9212977F01B2E0EB0EF11CD90170
:1047A0001196CD90DC901297CE14DF0421F412966E
:1047B0007C936E93119713861286F9016081615084
:1047C00060839A01295F3F4FE0912203F091230318
:1047D0003383228324173507D0F5C0902203D0906D
:1047E000230396012E5F3F4FD60112964D915C91A7
:1047F000FC0133964F3F540731F4DC011796ED91DD
:10480000FC9109C0FB0162817381DB01ED90FC909A
:104810004E155F05B8F742815381D60115965C931A
:104820004E931497DA0115963C932E931497D60164
:104830001796FC93EE931697338322831B969C93D3
:104840008E931A97FC0120812F5F208344C08091B2
:10485000220390912303AC014E5F5F4FDC0112965F
:104860006D917C91F30133966F3F760731F4D3015C
:104870001796ED91FC9109C0F701E280F380D70112
:10488000CD90DC906C157D05B8F762817381DC01F9
:1048900015967C936E931497DB0115965C934E935B
:1048A0001497DC011796FC93EE931697538342837B
:1048B0001B967C926E921A97F30180818F5F8083A2
:1048C0008091BB029091BC022817390720F43093E5
:1048D000BC022093BB020FB6F8940F928091AB01FB
:1048E00081508093AB018091AB01882311F080E06F
:1048F000E5C1809124038823D1F34091E5025091D2
:10490000E602F0E0E0E08BC0DA011696ED91FC9152
:10491000E488F5882685378580899189D90115969F
:104920009C938E93149780899189DC0113963C9314
:104930002E9312979F01245F3F4FD70111966D91DF
:104940007C9112976217730721F412969C938E93B1
:104950001197158A148AD7018C9181508C93E28427
:10496000F3848481958126813781DC0115963C93FF
:104970002E93149726813781D90113969C938E9399
:104980001297CF010296D70111966D917C911297E3
:104990006817790721F412963C932E93119713868A
:1049A0001286D7012C9121502C93A68920911F03A8
:1049B0002A1710F4A0931F03CA9FD0011124A550F9
:1049C000BD4F11966D917C9175836483DB011496C4
:1049D0002D913C9115973783268314962D913C9108
:1049E000D90113969C938E931297DB0115969C9395
:1049F0008E93149796899C9FD0011124A550BD4F8A
:104A0000B387A2878C918F5F8C93A0912203B09182
:104A1000230356968C91891710F4D093C602809187
:104A2000E002811171CFEF2BC9F0E091CC02F0913F
:104A3000CD028081811105C01093BC020093BB029E
:104A40000DC0E091CC02F091CD020580F681E02D01
:104A5000808191819093BC028093BB022091A90137
:104A60003091AA012115310509F41CC18091AB01D7
:104A7000811103C18091C7029091C8020196909361
:104A8000C8028093C702009771F54091CC02509103
:104A9000CD026091CA027091CB027093CD026093F7
:104AA000CC025093CB024093CA024091C9024F5F9F
:104AB0004093C902E091CC02F091CD0240814111B6
:104AC00005C01093BC020093BB020DC0E091CC0264
:104AD000F091CD020580F681E02D40815181509307
:104AE000BC024093BB024091BB025091BC02D12C4E
:104AF0008417950708F4ADC0D12CE091CC02F09159
:104B0000CD024081411105C01093BC020093BB024D
:104B1000A0C0E091CC02F091CD020580F681E02D9D
:104B20000680F781E02D428153818417950728F490
:104B30005093BC024093BB028CC062847384448156
:104B4000558166817781DA0115967C936E9314976F
:104B500066817781DB0113965C934E931297AF01C8
:104B60004E5F5F4FD3011196ED90FC901297E416C3
:104B7000F50621F412967C936E9311971386128694
:104B8000D3016C9161506C932488358821143104D1
:104B900029F166857785E088F188DB011596FC921E
:104BA000EE921497E088F188D70113967C936E9368
:104BB0001297D10111966D907C901297BF01645F9E
:104BC0007F4F6616770621F41296FC92EE921197AB
:104BD000158A148AD1016C9161506C93A6896091F9
:104BE0001F036A1710F4A0931F03CA9FD00111245A
:104BF000A550BD4F1196ED90FC90F582E482D7014F
:104C000014966D917C9115977783668314966D91B8
:104C10007C91DB0113965C934E931297D701159606
:104C20005C934E93149756895C9FD0011124A55034
:104C3000BD4FB387A2874C914F5F4C93E091220305
:104C4000F09123034689451708F057CFDD24D3940C
:104C500054CFE0912203F0912303E689CE9FF00127
:104C60001124E550FD4F8081823010F0DD24D39473
:104C70008091C60281110CC00AC08091A901909157
:104C8000AA0101969093AA018093A90103C0D110B3
:104C9000D093C6022150310909F0E8CE1092AA0142
:104CA0001092A9018091C602882309F420CE809138
:104CB0002203909123030E948C1181E00F900FBE7C
:104CC000811102C00E948C113FB7F8948091C202FA
:104CD0009091C302A091C402B091C50226B5A89BD1
:104CE00005C02F3F19F00196A11DB11D3FBFBA2F7E
:104CF000A92F982F8827820F911DA11DB11D42E079
:104D0000880F991FAA1FBB1F4A95D1F758E0C52EDF
:104D1000D12CE12CF12C0EC0E1E0CE1AD108E10833
:104D2000F10888519C4FAF4FBF4FC114D104E1042B
:104D3000F10469F13FB7F8944091C2025091C30267
:104D40006091C4027091C50226B5A89B06C02F3F92
:104D500021F04F5F5F4F6F4F7F4F3FBF762F652F23
:104D6000542F4427420F511D611D711DF2E0440F65
:104D7000551F661F771FFA95D1F7481B590B6A0B11
:104D80007B0B483E53406105710530F6D3CFF201ED
:104D90008491F4019491F5012491222309F43FC0F8
:104DA000882371F1833069F028F48130B1F08230CA
:104DB000C1F026C08730C9F08830E9F0843001F5B1
:104DC00006C0809180008F778093800019C0809109
:104DD00080008F7D8093800013C084B58F7784BD61
:104DE0000FC084B58F7D84BD0BC08091B0008F77DC
:104DF0008093B00005C08091B0008F7D8093B0009B
:104E0000E22FF0E0EE0FFF1FE856FB4FA591B491A3
:104E10008FB7F8942C91909592239C938FBF80919B
:104E2000AB018F5F8093AB014091C7025091C802E4
:104E30006090CC027090CD028091CA029091CB021A
:104E4000E0912203F091230322853385E480F580ED
:104E500066817781D70115967C936E93149766814E
:104E60007781DB011396FC92EE9212977F01B2E0FC
:104E7000EB0EF11CD9011196CD90DC901297CE1457
:104E8000DF0421F412967C936E9311971386128699
:104E9000F9016081615060839A01295F3F4FE09181
:104EA0002203F09123033383228324173507D0F59F
:104EB000C0902203D090230396012E5F3F4FD6016E
:104EC00012964D915C91FC0133964F3F540731F49B
:104ED000DC011796ED91FC9109C0FB0162817381A1
:104EE000DB01ED90FC904E155F05B8F742815381D0
:104EF000D60115965C934E931497DA0115963C9360
:104F00002E931497D6011796FC93EE93169733833E
:104F100022831B969C938E931A97FC0120812F5F0E
:104F2000208344C08091220390912303AC014E5F03
:104F30005F4FDC0112966D917C91F30133966F3FC8
:104F4000760731F4D3011796ED91FC9109C0F70172
:104F5000E280F380D701CD90DC906C157D05B8F729
:104F600062817381DC0115967C936E931497DB014B
:104F700015965C934E931497DC011796FC93EE9371
:104F80001697538342831B967C926E921A97F30175
:104F900080818F5F80838091BB029091BC02281733
:104FA000390720F43093BC022093BB020FB6F8946B
:104FB0000F928091AB0181508093AB018091AB0146
:104FC000882311F080E0E5C1809124038823D1F388
:104FD0004091E5025091E602F0E0E0E08BC0DA019A
:104FE0001696ED91FC91E488F588268537858089B1
:104FF0009189D90115969C938E93149780899189F4
:10500000DC0113963C932E9312979F01245F3F4F30
:10501000D70111966D917C9112976217730721F455
:1050200012969C938E931197158A148AD7018C91AE
:1050300081508C93E284F384848195812681378129
:10504000DC0115963C932E93149726813781D90164
:1050500013969C938E931297CF010296D7011196C7
:105060006D917C9112976817790721F412963C9301
:105070002E93119713861286D7012C9121502C93D1
:10508000A68920911F032A1710F4A0931F03CA9F1B
:10509000D0011124A550BD4F11966D917C9175835F
:1050A0006483DB0114962D913C91159737832683F9
:1050B00014962D913C91D90113969C938E9312973F
:1050C000DB0115969C938E93149796899C9FD00133
:1050D0001124A550BD4FB387A2878C918F5F8C930D
:1050E000A0912203B091230356968C91891710F456
:1050F000D093C6028091E002811171CFEF2BC9F0ED
:10510000E091CC02F091CD028081811105C0109315
:10511000BC020093BB020DC0E091CC02F091CD0225
:105120000580F681E02D808191819093BC0280936F
:10513000BB022091A9013091AA012115310509F482
:105140001CC18091AB01811103C18091C702909174
:10515000C80201969093C8028093C702009771F528
:105160004091CC025091CD026091CA027091CB0265
:105170007093CD026093CC025093CB024093CA024D
:105180004091C9024F5F4093C902E091CC02F09177
:10519000CD024081411105C01093BC020093BB02B7
:1051A0000DC0E091CC02F091CD020580F681E02D9A
:1051B000408151815093BC024093BB024091BB029D
:1051C0005091BC02D12C8417950708F4ADC0D12CA6
:1051D000E091CC02F091CD024081411105C01093C5
:1051E000BC020093BB02A0C0E091CC02F091CD02C2
:1051F0000580F681E02D0680F781E02D4281538104
:105200008417950728F45093BC024093BB028CC0CE
:10521000628473844481558166817781DA011596B1
:105220007C936E93149766817781DB0113965C9370
:105230004E931297AF014E5F5F4FD3011196ED90E1
:10524000FC901297E416F50621F412967C936E9367
:10525000119713861286D3016C9161506C93248848
:1052600035882114310429F166857785E088F18835
:10527000DB011596FC92EE921497E088F188D70135
:1052800013967C936E931297D10111966D907C903A
:105290001297BF01645F7F4F6616770621F412965E
:1052A000FC92EE921197158A148AD1016C9161508B
:1052B0006C93A68960911F036A1710F4A0931F03D3
:1052C000CA9FD0011124A550BD4F1196ED90FC90BE
:1052D000F582E482D70114966D917C9115977783BE
:1052E000668314966D917C91DB0113965C934E93CB
:1052F0001297D70115965C934E93149756895C9F2D
:10530000D0011124A550BD4FB387A2874C914F5FA8
:105310004C93E0912203F09123034689451708F04E
:1053200057CFDD24D39454CFE0912203F09123038F
:10533000E689CE9FF0011124E550FD4F8081823037
:1053400010F0DD24D3948091C60281110CC00AC0F4
:105350008091A9019091AA0101969093AA0180934E
:10536000A90103C0D110D093C6022150310909F020
:10537000E8CE1092AA011092A9018091C60288235A
:1053800009F420CE80912203909123030E948C1176
:1053900081E00F900FBE811102C00E948C113FB7B7
:1053A000F8948091C2029091C302A091C402B0917E
:1053B000C50226B5A89B05C02F3F19F00196A11D77
:1053C000B11D3FBFBA2FA92F982F8827820F911D9B
:1053D000A11DB11D22E0880F991FAA1FBB1F2A958E
:1053E000D1F738E0C32ED12CE12CF12C0FC0E1E035
:1053F000CE1AD108E108F10888519C4FAF4FBF4F3A
:10540000C114D104E104F10409F457C93FB7F89479
:105410004091C2025091C3026091C4027091C502D2
:1054200026B5A89B06C02F3F21F04F5F5F4F6F4FFF
:105430007F4F3FBF762F652F542F4427420F511DBA
:10544000611D711DE2E0440F551F661F771FEA952D
:10545000D1F7481B590B6A0B7B0B483E5340610543
:10546000710528F6D3CF20911F0389E001C0215098
:10547000422F50E0849FF001859FF00D1124E550EC
:10548000FD4F9081992399F3A181B28112966D917C
:105490007C9172836183289FC001112482509D4FAB
:1054A0006817790721F4858196819283818389E049
:1054B000849FF001859FF00D1124E550FD4F018080
:1054C000F281E02D868197819093230380932203BC
:1054D00020931F038091220390912303A091220324
:1054E000B0912303CD91CDBFDD91DEBFFF91EF9150
:1054F000DF91CF91BF91AF919F918F917F916F91EC
:105500005F914F913F912F911F910F91FF90EF90DD
:10551000DF90CF90BF90AF909F908F907F906F90D3
:105520005F904F903F902F901F900F900FBE0F9065
:105530000895CF93DF93EC010E948611CE010E9463
:105540009E2DEC010E945019209709F584EB92E002
:105550009F938F930E94C32E61E08DE00E94FA0416
:105560000F900F9061E08DE00E94AE046EE571E057
:1055700080E090E00E94A71E60E08DE00E94AE04F3
:105580006EE571E080E090E00E94A71EEBCFCE01B7
:10559000DF91CF9108957F928F929F92AF92BF92A9
:1055A000CF92DF92EF92FF920F931F93CF93DF93EF
:1055B000982EA92E762E872E7A01B22ECA010E942D
:1055C000992A6C01892B09F484C180E390E00E9440
:1055D000992AEC01892B09F475C180E3DE011D9243
:1055E0008A95E9F7D88ECF8AA70165EA70E0C601EF
:1055F0000E94BF36B1E0EB1AF108EF89F88DEE0D8D
:10560000FF1D672D782DCE0149969B01205F3F4FEE
:10561000DB014D91BD01DC014D93CD01AB0141504A
:105620005109DA014C91442319F06217730781F78D
:1056300018A6BE8AB9A61B861A861D8A1C8AD98717
:10564000C88784E090E08B1991099D878C87DB8B5C
:10565000CA8B9082DF011197AC9211971C9211971F
:1056600080E88C9311971C9257971C9211971C926B
:10567000B397F983E8830115110519F0F801D18377
:10568000C0830FB6F8940F92809124038F5F8093AC
:1056900024038091220390912303892B09F028C1D0
:1056A000D0932303C093220380912403813009F017
:1056B000C2C02EEF32E03093FD022093FC028FEF48
:1056C0009FEF9093FF028093FE023093010320939B
:1056D000000330930303209302031092FB0227E0A0
:1056E00033E03093060320930503909308038093DF
:1056F000070330930A032093090330930C0320938C
:105700000B031092040320E133E030930F03209346
:105710000E0390931103809310033093130320938F
:105720001203309315032093140310920D0329E103
:1057300033E0309318032093170390931A03809358
:10574000190330931C0320931B0330931E032093F3
:105750001D031092160325EF32E03093F4022093DC
:10576000F3029093F6028093F5023093F8022093AF
:10577000F7023093FA022093F9021092F2022CEE13
:1057800032E03093EB022093EA029093ED02809393
:10579000EC023093EF022093EE023093F10220935B
:1057A000F0021092E90223EE32E03093E2022093FD
:1057B000E1029093E4028093E3023093E6022093A7
:1057C000E5023093E8022093E7021092E0022AED0E
:1057D00032E03093D9022093D8029093DB02809379
:1057E000DA023093DD022093DC023093DF02209353
:1057F000DE021092D70221ED32E03093D0022093E6
:10580000CF029093D2028093D1023093D40220939E
:10581000D3023093D6022093D5021092CE0282EFAB
:1058200092E09093CD028093CC0289EE92E0909327
:10583000CB028093CA02809120038F5F8093200364
:10584000AE8980911F038A1710F4A0931F0329E0EB
:105850002A9FD0011124A550BD4F11960D90BC91E7
:10586000A02DBD83AC8314968D919C9115979F8339
:105870008E831496ED91FC911597CE010296938339
:10588000828315969C938E931497EE89E29FF00184
:105890001124E550FD4FFB87EA8780818F5F80836D
:1058A0000F900FBE80912103882351F0E0912203D5
:1058B000F091230396898E89981710F40E948C1119
:1058C00081E008C00E948611C6010E943A2E0E9403
:1058D00050198FEFDF91CF911F910F91FF90EF90B3
:1058E000DF90CF90BF90AF909F908F907F90089562
:1058F0008091210381119FCFE0912203F091230336
:1059000096898E89891708F496CFD0932303C09384
:10591000220391CF0E94CA211895CF93DF93CDB770
:10592000DEB760970FB6F894DEBF0FBECDBF789498
:1059300084B5826084BD84B5816084BD85B5826094
:1059400085BD85B5816085BD80916E008160809345
:105950006E001092810080918100826080938100AE
:1059600080918100816080938100809180008160BE
:10597000809380008091B10084608093B100809119
:10598000B00081608093B00080917A008460809341
:105990007A0080917A00826080937A0080917A0008
:1059A000816080937A0080917A00806880937A0089
:1059B0001092C10020910501309106018FEF98E00F
:1059C000821B930B90930201809301010E94340D7E
:1059D000A3E7B1E0FE013196BF018D918193882349
:1059E00021F081E0A338B807C1F709EB12E020E00D
:1059F00040EC50E080E39EE10E94CB2A882309F42A
:105A000046C0813009F043C0F8942FEF3FEF309348
:105A1000BC022093BB02809321031092C802109213
:105A2000C702A89588E190EC0FB6F894A8958093EA
:105A300060000FBE90936000A0912203B0912303F9
:105A4000CD91CDBFDD91DEBFFF91EF91DF91CF9181
:105A5000BF91AF919F918F917F916F915F914F9186
:105A60003F912F911F910F91FF90EF90DF90CF907A
:105A7000BF90AF909F908F907F906F905F904F906E
:105A80003F902F901F900F900FBE0F900895809120
:105A900000010E94340D00E010E001151105E9F34A
:105AA0000E944506FACFECE1F2E01382128288EE02
:105AB00093E0A0E0B0E084839583A683B78388E475
:105AC00091E09183808385EC90E09587848784ECD6
:105AD00090E09787868780EC90E0918B808B81ECBB
