:100000000C94A4020C94CC020C94CC020C94CC0260
:100010000C94CC020C94CC020C94732D0C94CC0256
:100020000C94CC020C94CC020C94CC020C94CC0218
:100030000C94CC020C94CC020C94CC020C94CC0208
:100040000C949D0F0C94CC020C940D100C94E70FA3
:100050000C94CC020C94CC020C94CC020C94CC02E8
:100060000C94CC020C94CC0208000000BE922449EF
:10007000123EABAAAA2ABECDCCCC4C3E00000080DA
:10008000BEABAAAAAA3E00000000BF000000803F4D
:100090000000000000084178D3BB4387D1133D190D
:1000A0000E3CC3BD4282AD2B3E68EC8276BED98F3A
:1000B000E1A93E4C80EFFFBE01C4FF7F3F0000007E
:1000C000000000407A10F35A00A0724E1809001088
:1000D000A5D4E80000E87648170000E40B540200BD
:1000E00000CA9A3B000000E1F505000080969800E8
:1000F000000040420F000000A08601000000102711
:1001000000000000E80300000000640000000000A0
:100110000A00000000000100000000002C76D888D2
:10012000DC674F0823DFC1DFAE59E1B1B796E5E3E5
:10013000E453C63AE651997696E8E6C28426EB89FE
:100140008C9B62ED407C6FFCEFBC9C9F40F2BAA59B
:100150006FA5F490055A2AF75C936B6CF9676DC133
:100160001BFCE0E40D47FEF520E6B500D0ED902E37
:100170000300943577050080841E080000204E0A95
:10018000000000C80C333333330F986E12831141D3
:10019000EF8D2114893BE65516CFFEE6DB18D1849E
:1001A0004B381BF77C1D901DA4BBE42420328472C5
:1001B0005E228100C9F124ECA1E53D275B494E494F
:1001C000545D2053797374656D2072656164792C78
:1001D000207363686564756C6572207374617274F2
:1001E000696E670A005B4552525D205461736B2053
:1001F0006372656174696F6E206661696C65640A1B
:10020000005B494E49545D204372656174696E67B5
:10021000207461736B732E2E2E0A005B4552525D63
:100220002053796E63206F626A6563747320666120
:10023000696C65640A005B494E49545D2053656EE4
:10024000736F72733A204E544320546865726D691F
:1002500073746F722028413029202B204448543178
:100260003120284437290A005B494E49545D204C0F
:10027000616236202D2053656E736F72204D6F6E54
:1002800069746F72696E672053797374656D0A00C3
:100290005B464154414C5D20537461636B206F7623
:1002A0006572666C6F7720696E207461736B3A209B
:1002B00025730A005B464154414C5D204D616C6CD6
:1002C0006F63206661696C65640A005B4143515D40
:1002D000204163717569736974696F6E207461730D
:1002E0006B20737461727465640A005B434F4E5DEA
:1002F00020436F6E646974696F6E696E6720746104
:10030000736B20737461727465640A005B544852A5
:100310005D205468726573686F6C64207461736BE0
:1003200020737461727465640A003D3D3D3D3D3D3E
:100330003D3D3D3D3D3D3D3D3D3D3D3D3D3D3D3DED
:100340003D3D3D3D3D3D3D0A005B434F4E465D20FA
:10035000484947483D32362E30204C4F573D3234C5
:100360002E302043207C2044626E633A25750A00BB
:100370005B44485431315D2057616974696E672070
:10038000666F722076616C696420646174612E2EE0
:100390002E0A004E4F524D414C00414C45525421C3
:1003A000005B44485431315D2054656D703A25330B
:1003B000642043207C2048756D3A25336425252030
:1003C0007C202553202825752F2575290A005B419F
:1003D0002D4C41545D2057616974696E6720666FCA
:1003E00072206669727374204E4F524D414C2D3EFF
:1003F000414C455254207472616E736974696F6E1A
:100400002E2E2E0A005B412D4C41545D204E4F5242
:100410004D414C2D3E414C455254206C6174656EEB
:1004200063793A202575206D730A004E4F524D4175
:100430004C00414C45525421005B412D5448525DC3
:100440002053746174653A2553202825752F25752E
:10045000290A005B544845524D5D204144433A25EA
:100460003475207C205261773A25732043207C200C
:100470005361743A25732043207C204D65643A25EE
:10048000732043207C20574D413A25732043207C24
:100490002056616C69643A25630A005B4453505DE1
:1004A000204D757465782074696D656F75740A00E8
:1004B0003D3D3D3D3D3D3D2053454E534F52205225
:1004C00045504F5254203D3D3D3D3D3D3D0A005B72
:1004D0004453505D20446973706C6179207461737A
:1004E0006B20737461727465640A0000000000245C
:1004F0000027002A0000000000250028002B000033
:1005000000000800020100000304070000000000D2
:1005100000000004040404040404040202020202B1
:1005200002030303030303010204081020408001B7
:10053000020408102001020408102000000000231B
:100540000026002900003C2E11241FBECFEFD8E06A
:10055000DEBFCDBF11E0A0E0B1E0E2E6FFE602C001
:1005600005900D92A837B107D9F723E0A8E7B1E0CD
:1005700001C01D92A733B207E1F712E0C4EAD2E04E
:1005800004C02197FE010E94D134C33AD107C9F7B4
:100590000E94762D0C94AF370C940000CF92DF921E
:1005A000EF92FF920F931F93CF93DF93EC017A01A9
:1005B0006901E881F9810190F081E02D0995E881D8
:1005C000F9810084F185E02D9801A601B701CE01E3
:1005D000DF91CF911F910F91FF90EF90DF90CF901F
:1005E00009946F927F928F929F92AF92BF92CF9217
:1005F000DF92EF92FF920F931F93CF93DF93CDB7CC
:10060000DEB7AC970FB6F894DEBF0FBECDBFDC01EE
:100610001696ED91FC91319609F480C059013A018A
:100620006B018C01FE0131964F0188E2DF011D92C2
:100630008A95E9F7D801ED91FC910488F589E02DC0
:10064000B401C80109957C01892B09F051C01AA693
:1006500019A61CA61BA6D801ED91FC910688F78966
:10066000E02D9E01255D3F4FAE01475D5F4FB40118
:10067000C80109957C01892BD9F5A114B10439F081
:1006800088E2F401D50101900D928A95E1F709A560
:100690001AA5C114D10479F0612F772767FD7A95E7
:1006A000072E000C880B990B0E94F335F60160832E
:1006B0007183828393836114710489F08CA5682F00
:1006C000782F770F770B072E000C880B990B0E9461
:1006D000F335D3016D937D938D939C931397012BE9
:1006E00039F48BA59CA5892B19F496E1E92EF12C00
:1006F000C701AC960FB6F894DEBF0FBECDBFDF9139
:10070000CF911F910F91FF90EF90DF90CF90BF900E
:10071000AF909F908F907F906F90089587E1E82E23
:10072000F12CE6CF8F929F92AF92BF92CF92DF9241
:10073000EF92FF920F931F93CF93DF93EC018B0106
:100740006A017901E881F9810288F389E02D099530
:10075000B82EB801685F7F4FE881F9810288F3897C
:10076000E02DCE010995982EB801605F7F4FE8819A
:10077000F9810288F389E02DCE010995A82EB801F0
:10078000685E7F4FE881F9810288F389E02DCE0110
:100790000995882EB801605E7F4FE881F981028853
:1007A000F389E02DCE0109959B2D990D9A0D980D99
:1007B000891319C09A2D882DF601918380839B2D72
:1007C000892DF7019183808390E080E0DF91CF91C4
:1007D0001F910F91FF90EF90DF90CF90BF90AF905F
:1007E0009F908F90089585E190E0F0CF47E050E032
:1007F00080E0FB012191BF01042E01C0220F0A9469
:10080000EAF7820F41505109A0F70895FC01828553
:1008100090E00895FC01818590E00895CF92DF92E9
:10082000EF92FF920F931F93CF93DF93EC017A0126
:100830006901E881F9810190F081E02D0995E88155
:10084000F9810480F581E02D9801A601B701CE0160
:10085000DF91CF911F910F91FF90EF90DF90CF909C
:100860000994CF92DF92EF92FF920F931F93CF9351
:10087000DF93CDB7DEB728970FB6F894DEBF0FBE73
:10088000CDBFDC011696ED91FC91319609F440C084
:100890008A017B0119821A821B821C821D821E82A0
:1008A0001F821886DC01ED91FC910084F185E02D1A
:1008B000AE014B5F5F4FBE016F5F7F4F09956C01CB
:1008C000892BB1F4E114F10441F069817A818B81C3
:1008D0009C810E94BB35F70160830115110541F031
:1008E0006D817E818F8198850E94BB35D8016C9384
:1008F000C60128960FB6F894DEBF0FBECDBFDF91BC
:10090000CF911F910F91FF90EF90DF90CF900895BE
:1009100087E1C82ED12CECCF262F2D7F29F4FC01A6
:10092000608790E080E0089588E190E00895DC0120
:1009300017967C936E931697FB01E95DFA4FE4914D
:100940001996EC9319976D5E7A4FFB0164911A9694
:100950006C930895CF93DF93EC019A01AB018A85E4
:100960009B85009729F00197B9F0DF91CF91089509
:10097000688179818A819B810E94443587FF0AC002
:1009800089858F5F89879885891778F381E090E062
:100990009B878A871986E9CF6C817D818E819F81B3
:1009A0000E94A3361816B4F789858F5F89879885CA
:1009B0008917D8F21B861A86EDCF90E0FC01E15032
:1009C000FB4F2491FC01E95DFA4F3491FC01ED5E8F
:1009D000FA4FE491EE23C9F0222339F0233001F1DC
:1009E000A8F4213019F1223029F1F0E0EE0FFF1FB9
:1009F000EB50FB4FA591B4918FB7F894EC91611136
:100A000026C030953E233C938FBF08952730A9F030
:100A10002830C9F0243049F7809180008F7D03C0D1
:100A2000809180008F7780938000DFCF84B58F77AF
:100A300084BDDBCF84B58F7DFBCF8091B0008F77F5
:100A40008093B000D2CF8091B0008F7DF9CF3E2B44
:100A5000DACFCF93DF9390E0FC01E95DFA4F249168
:100A60008D5E9A4FFC0184918823C9F090E0880F35
:100A7000991FFC01E551FB4FA591B491FC01EB508E
:100A8000FB4FC591D49161110DC09FB7F8948C9123
:100A9000209582238C938881282328839FBFDF9110
:100AA000CF910895623051F49FB7F8943C91822F12
:100AB000809583238C93E8812E2BEFCF8FB7F8940A
:100AC000EC912E2B2C938FBFEACF3FB7F8948091F7
:100AD000CA029091CB02A091CC02B091CD0226B572
:100AE000A89B05C02F3F19F00196A11DB11D3FBF66
:100AF000BA2FA92F982F8827BC01CD01620F711D35
:100B0000811D911D42E0660F771F881F991F4A952E
:100B1000D1F708953F924F925F926F927F928F929A
:100B20009F92AF92BF92CF92DF92EF92FF920F937C
:100B30001F93CF93DF93EC01162F7A0169010E9476
:100B400065054B015C01312C111139843601660CAD
:100B5000771C660C771C85E0681A71082701440C25
:100B6000551C440C551C85E0481A510810E000E063
:100B700060E070E0CB012A813B814C815D812617CA
:100B80003707480759070CF10115110599F582E05F
:100B9000E816F1041CF0C2010197F1F70E94650507
:100BA000681979098A099B09EA85F0E0EE0FFF1FB1
:100BB000E55CFA4FA591B4912C910F5F1F4F3985D9
:100BC0002323231105C097FFD6CF6FEF7FEFCB0113
:100BD000DF91CF911F910F91FF90EF90DF90CF9019
:100BE000BF90AF909F908F907F906F905F904F904D
:100BF0003F90089582E0C816D10484F2C301CCCF9F
:100C0000AF92BF92CF92DF92EF92FF920F931F931A
:100C1000CF93DF936C017B018B01040F151FEB0158
:100C20005E01AE18BF08C017D10759F06991D6010F
:100C3000ED91FC910190F081E02DC6010995892B81
:100C400079F7C501DF91CF911F910F91FF90EF9040
:100C5000DF90CF90BF90AF900895FC01538D448DED
:100C6000252F30E0842F90E0821B930B541710F057
:100C7000CF96089501970895FC01918D828D981764
:100C800061F0A28DAE0FBF2FB11D5D968C91928D3C
:100C90009F5F9F73928F90E008958FEF9FEF08956D
:100CA000FC01918D828D981731F0828DE80FF11D36
:100CB000858D90E008958FEF9FEF0895FC01918D51
:100CC000228D892F90E0805C9F4F821B91098F734A
:100CD0009927089584E292E00E945E0621E0892B24
:100CE00009F420E0822F08950E946A0681110C9475
:100CF0000000089580E090E0892B11F00C947406B8
:100D00000895FC01A48DA80FB92FB11DA35ABF4FA0
:100D10002C91848D90E001968F739927848FA689FA
:100D2000B7892C93A089B1898C91837080648C934E
:100D3000938D848D981306C00288F389E02D8081FD
:100D40008F7D80830895EF92FF920F931F93CF932F
:100D5000DF93EC0181E0888F9B8D8C8D98131AC0F6
:100D6000E889F989808185FF15C09FB7F894EE89DD
:100D7000FF896083E889F98980818370806480833A
:100D80009FBF81E090E0DF91CF911F910F91FF9085
:100D9000EF900895F62E0B8D10E00F5F1F4F0F732D
:100DA0001127E02E8C8D8E110CC00FB607FCFACFE8
:100DB000E889F989808185FFF5CFCE010E948106FF
:100DC000F1CFEB8DEC0FFD2FF11DE35AFF4FF082B9
:100DD0009FB7F8940B8FEA89FB8980818062CFCF1F
:100DE000CF93DF93EC01888D8823B9F0AA89BB8962
:100DF000E889F9898C9185FD03C0808186FD0DC04D
:100E00000FB607FCF7CF8C9185FFF2CF808185FF6D
:100E1000EDCFCE010E948106E9CFDF91CF910895F9
:100E200084E292E00E945E06892BD1F384E292E094
:100E30000C943C06CF93C82F8A3029F46DE084E2ED
:100E400092E00E94A3066C2F84E292E00E94A30627
:100E500090E080E0CF9108958F929F92AF92BF92E1
:100E6000CF92DF92EF92FF920F931F93CF93DF9376
:100E7000EC018B0188E2FB0111928A95E9F761E0B0
:100E80008E810E94290560E08E810E94DD040E940F
:100E900065054B015C01F4E1CF2ED12CE12CF12C46
:100EA0000E946505681979098A099B09683E7340A3
:100EB00081059105A8F3F1E0CF1AD108E108F10806
:100EC00028EE820E23E0921EA11CB11CC114D10495
:100ED000E104F10429F761E08E810E94DD04688558
:100EE0008E810E9429058FE590E00197F1F7E88156
:100EF000F9810088F189E02D26E030E04AE050E0F9
:100F000060E0CE0109956E317105810591059CF473
:100F1000982F872F762F66276061CB01DF91CF91C5
:100F20001F910F91FF90EF90DF90CF90BF90AF9007
:100F30009F908F900895E881F9810088F189E02DD4
:100F400026E030E04AE050E061E0CE01099578010A
:100F5000F8E2EF0EF11C623371058105910534F45E
:100F6000982F872F762F66276161D7CFE881F98187
:100F70000088F189E02D26E030E04AE050E060E0B2
:100F8000CE010995683171058105910534F4982FDA
:100F9000872F762F66276261C0CFE881F9810088AC
:100FA000F189E02D26E030E04AE050E061E0CE013A
:100FB00009956B3071058105910534F4982F872FC1
:100FC000762F66276361A9CF21E06932710581051B
:100FD00091050CF420E0F80121938F01EE15FF0537
:100FE00029F6E881F9810088F189E02D26E030E0DA
:100FF0004AE050E060E0CE01099568317105810555
:10100000910534F4982F872F762F6627646185CF5A
:1010100070E060E082CF0E949A37CF93DF9300D0D8
:1010200000D000D0CDB7DEB78CE093E09F938F93D4
:101030000E94AC2F00E010E020ED31E40093EC01C1
:101040001093ED012093EE013093EF0140E050E06A
:1010500060EC71E44093F0015093F1016093F20170
:101060007093F30182E08093F4011092F5011092E5
:10107000F7011092F6010093E0011093E101209333
:10108000E2013093E3014093E4015093E501609362
:10109000E6017093E7018093E8011092E901109254
:1010A000EB011092EA010E9465129A8389830F90E6
:1010B0000F902224239470E060E0809122029091AE
:1010C00023020E943A1D182F813009F0B9C0C09048
:1010D0000D02D0900E02E0900F02F09010020091ED
:1010E00011028090190290901A02A0901B02B090F9
:1010F0001C023090210280912202909123020E94D2
:10110000051C002309F494C08091DF01811125C0E2
:101110008091F6019091F701892BF9F420E030E0FD
:1011200040ED51E4C701B6010E94A3361816ACF495
:101130002FB7F8948091C6029091C702A091C8027F
:10114000B091C9022FBF8093DB019093DC01A09383
:10115000DD01B093DE011093DF010091F6011091E3
:10116000F701B701A6018CEE91E00E94AA04012BC1
:1011700009F04CC08091F6019091F701019709F0B8
:1011800045C08091DF01882309F440C08FB7F894EF
:101190002091C6023091C7024091C8025091C90205
:1011A0002B833C834D835E838FBF4090DB01509047
:1011B000DC016090DD017090DE0170E060E0809104
:1011C0002202909123020E943A1D8130E9F48B8122
:1011D0009C81AD81BE8184199509A609B709009744
:1011E00031E0A307B10520F08FEF9FEFA0E0B0E062
:1011F0009093FC018093FB012092FD0180912202DB
:10120000909123020E94051C1092DF018091F6014B
:101210009091F701892B61F420E030E040ED51E43A
:10122000C701B6010E944435181614F01092DF0170
:10123000332031F0B501A40180EE91E00E94AA04B0
:1012400070E060E080912202909123020E943A1D9A
:101250008130F1F48091F6019091F7019093F901BA
:101260008093F8018091F5018093FA018091EA0161
:101270009091EB019093FF018093FE018091E90131
:101280008093000280912202909123020E94051C0B
:101290008091F6019091F70161E0019739F080911A
:1012A000EA019091EB01019709F060E08DE00E9466
:1012B000DD0461E070E0CE0101960E945D1FFBCE6F
:1012C000CF93DF93CDB7DEB7E5970FB6F894DEBFC7
:1012D0000FBECDBF8BEE92E09F938F930E94AC2FF9
:1012E000E0EBF1E084EC91E00F900F9011921192FD
:1012F00011921192108A118A128A138A8E179F07EF
:10130000A9F71092D8011092D9011092DA010E9427
:1013100065129AA789A770E060E0809122029091FF
:1013200023020E943A1D813009F0E8C1D0901402D6
:10133000E0901502F090160290901702109118029A
:1013400080912202909123020E94051C112309F42E
:10135000E7C120E030E040EA51EC6D2D7E2D8F2D6D
:10136000992D0E94443587FDA2C020E030E040EA7C
:1013700052E46D2D7E2D8F2D992D0E94A3361816C7
:101380000CF09CC0812C312C10EA212E22E42FA7D6
:101390008091D80190E0FC01EE0FFF1FEE0FFF1FC0
:1013A000E055FE4F482D532D622D7FA5408351837C
:1013B00062837383019665E070E00E94BD34282F3C
:1013C0008093D8018091DA01853018F48F5F809383
:1013D000DA013091DA01DE015596CD0100E02150AD
:1013E000301371C0FE01319680E0081384C09E0165
:1013F0002B5F3F4F39AB28ABCC24C394C01608F009
:1014000084C0A8A9B9A94D905D906D907D90B9ABAD
:10141000A8AB1FEF1C0DA12E012E000CBB08F5017F
:10142000EE0FFF1FEE0FFF1F21E030E02C0F3D1FDE
:10143000E20FF31F80819181A281B3818BA79CA7CA
:10144000ADA7BEA79FEFA91AB90A2BA53CA54DA52C
:101450005EA5C301B2010E94443587FF14C0AA0CE7
:10146000BB1CAA0CBB1CE1E0F0E0EC0FFD1FEA0D79
:10147000FB1D8BA59CA5ADA5BEA580839183A283F2
:10148000B383115040F6E12F110FFF0B3196EE0F91
:10149000FF1FEE0FFF1FA1E0B0E0AC0FBD1FEA0F72
:1014A000FB1F4082518262827382C394A7CF812C3A
:1014B000312CB0EA2B2E31EC3FA76ACF8D2C3E2C7D
:1014C0002F2C9FA665CFE22FE01BE7FF02C0EB5F4A
:1014D000FCCF44E0E402F0011124E055FE4F4081CE
:1014E000518162817381FC014193519361937193A6
:1014F000CF010F5F75CF4D915D916D917D914193BE
:101500005193619371938F5F70CFA02FA695EA2FAF
:10151000F0E000FD52C0A15024E0A29FD0011124B0
:1015200081E090E08C0F9D1FA80FB91FEE0FFF1FE9
:10153000EE0FFF1FE80FF91F208131814281538197
:101540006D917D918D919C910E94D83420E030E086
:1015500040E05FE30E94F8366BA7672E782EA92E35
:101560008091D90190E0FC01EE0FFF1FEE0FFF1FED
:10157000EC53FE4F4BA5562D672D7A2D408351839A
:1015800062837383019665E070E00E94BD34C82ECB
:101590008093D901002309F4ACC0BB24B394B00EEE
:1015A00011E0512C412C18AA19AA1AAA1BAA8C2D99
:1015B000811B87FF12C08B5FFCCFEE0FFF1FEE0F6A
:1015C000FF1FA1E0B0E0AC0FBD1FEA0FFB1FB08111
:1015D000BBA761807280A380C3CFE5E0E11BF0E090
:1015E000E15CFE4F0081E4E08E02C00111249C0109
:1015F0002C533E4F3DAB2CAB602F70E090E080E071
:101600000E94F135ACA9BDA92D913D914D915C9100
:101610000E94F8369B01AC0168A979A98AA99BA907
:101620000E94D83468AB79AB8AAB9BAB400E511C9F
:101630001F5FB112BCCF4114510409F45AC0B2016A
:1016400090E080E00E94F1359B01AC0168A979A986
:101650008AA99BA90E944935B62EC72E8C01442425
:10166000439470E060E080912202909123020E94F6
:101670003A1D8130B9F58D2D9E2DAF2DB92D80935A
:10168000010290930202A0930302B0930402882DFA
:10169000932DA22DBFA58093050290930602A093DF
:1016A0000702B09308028BA5962DA72DBA2D809323
:1016B000090290930A02A0930B02B0930C028B2DA7
:1016C0009C2DD80180930D0290930E02A0930F02DF
:1016D000B093100240921102809122029091230255
:1016E0000E94051C61E070E0CE0189960E945D1F9A
:1016F00012CEB12CC12C00E010E0B1CFD12CE12CE6
:10170000F12C912C412CB12CC12C00E010E01BA637
:10171000612C712CA12C812C312C212C1FA6A1CF46
:10172000BD2CCE2C0F2D192DDBA63701A92C8D2C0D
:101730003E2C2F2C9FA6412C94CFCF93DF93CDB777
:10174000DEB7EF970FB6F894DEBF0FBECDBF8FECBC
:1017500094E09F938F930E94AC2F0E9465129AA3EE
:1017600089A30F900F907E0129E1E20EF11C6E011A
:1017700081E1C80ED11C1E0199E0290E311C6FE1D8
:1017800070E0CE0181960E945D1F63E070E0809161
:101790002202909123020E943A1D813009F02AC151
:1017A000A0911202ACAFB0911302BDAF80911902AB
:1017B00090911A02A0911B02B0911C028BA39CA3D2
:1017C000ADA3BEA380911D0290911E02A0911F02A5
:1017D000B09120028FA398A7A9A7BAA79091210240
:1017E0009BA78091010290910202A0910302B09107
:1017F00004028CA79DA7AEA7BFA7409005025090FA
:101800000602609007027090080280900902909092
:101810000A02A0900B02B0900C0280910D029091F0
:101820000E02A0910F02B091100288AB99ABAAAB47
:10183000BBAB909111029CABA091F801B091F90162
:10184000BEABADABB091FA01BFAB2091FB012EAFA7
:101850008091FC018FAF9091FD0198AFA091FE01A6
:10186000B091FF01BAAFA9AFB0910002BBAF8091B8
:101870002202909123020E94051C870121E045E08D
:101880006CA57DA58EA59FA50E94692E860121E0ED
:1018900045E0C301B2010E94692E810121E045E0CB
:1018A000C501B4010E94692E8E010F5F1F4F21E018
:1018B00045E068A979A98AA99BA90E94692E80EBB5
:1018C00094E09F938F930E94AC2F0F900F90BCA930
:1018D00089E5B11101C08EE41F928F9381E090E001
:1018E0008C0F9D1F9F938F933F922F92DF92CF92E9
:1018F000FF92EF929DAD9F93ACADAF9383E594E0E3
:101900009F938F930E94AC2F0FB6F894DEBF0FBE4B
:10191000CDBFADA9BEA98BE294E0119711F482E38B
:1019200094E01F9222E02F931F92BFA9BF939F9331
:101930008F9389E394E09F938F930E94AC2F0FB60F
:10194000F894DEBF0FBECDBF98AD992309F45BC0FC
:10195000AFADAF93BEADBF9385E094E09F938F93FF
:101960000E94AC2F0F900F900F900F902BA5222369
:1019700009F455C089AD9AAD019709F44DC083E9CA
:1019800093E01F9222E02F931F92ABADAF939F93F2
:101990008F936FA178A589A59AA50E94BB357F93E7
:1019A0006F936BA17CA18DA19EA10E94BB357F93FB
:1019B0006F9381EA93E09F938F930E94AC2F0FB6B1
:1019C000F894DEBF0FBECDBF1F9282E08F9389E4F3
:1019D00093E09F938F930E94AC2F8AE293E09F93B2
:1019E0008F930E94AC2F0F900F900F900F900F903D
:1019F0000F90C5CE8BE994E09F938F930E94AC2FFC
:101A00000F900F90BCCE8EEC93E09F938F930E942B
:101A1000AC2F0F900F90AACF8AE993E0B2CFA0E746
:101A2000B3E0BF93AF930E94AC2F0F900F90CCCF39
:101A3000CF93DF9300D000D01F92CDB7DEB78BECF1
:101A400092E09F938F930E94AC2F0E9465129A831D
:101A500089830F900F9010E000E08091AD018E30EF
:101A600008F08E508770806480937C0080917A00AB
:101A7000806480937A0080917A0086FDFCCF20906C
:101A8000780030907900C10101978E3F934008F0B3
:101A90009EC0B10190E080E00E94F1356B017C01B5
:101AA00020E030E44CE156E40E94F8364B015C0142
:101AB000A701960160E070EC8FE794E40E94D734B0
:101AC0009B01AC01C501B4010E94493520E030E41E
:101AD0004CE156E40E9449350E94B03620E030EED9
:101AE00046E755E40E9449352FE03FEC4BE55BE3C8
:101AF0000E94D8349B01AC0160E070E080E89FE375
:101B00000E94493523E333E948E853E40E94D7347F
:101B10002B013C010436110508F488C08091AE0108
:101B20009091AF01009709F05AC0C12CD12C7601D9
:101B3000460157011D8210E000E00F5F1F4F70E06B
:101B400060E080912202909123020E943A1D813030
:101B5000B9F5309213022092120240921402509270
:101B6000150260921602709217023324339420E01B
:101B700030E048E453ECC301B2010E94A3361816CA
:101B80000CF0312C309218022D81222399F0809292
:101B9000190290921A02A0921B02B0921C02C092EB
:101BA0001D02D0921E02E0921F02F092200281E0FC
:101BB0008093210280912202909123020E94051CB1
:101BC00061E070E0CE0101960E945D1F46CF412C7E
:101BD00080EC582E89E7682E84EC782E9BCF1C82EF
:101BE0001B82DC01ED91FC910480F581E02D30E059
:101BF00020E0AE014D5F5F4FBE016C5F7F4F0995E6
:101C0000892B09F092CF6C8170E090E080E00E9417
:101C1000F1354B015C016B8170E090E080E00E9447
:101C2000F1356B017C01B1E0BD8385CFC12CD12C96
:101C30007601460157011D8280CFDF92EF92FF921D
:101C40000F931F93CF93DF9300D0CDB7DEB7E09112
:101C50003402F091350282E08083E0913002F0910D
:101C600031021082E0913202F09133028FEC8083D6
:101C700010923C02E0913802F091390286E08083B4
:101C8000E0913602F0913702808180618083E0919B
:101C90003602F0913702808188608083E0913602BD
:101CA000F0913702808180688083E0913602F09164
:101CB000370280818F7D80831A82198289819A817F
:101CC0008033954730F489819A8101969A8389837C
:101CD000F5CF8AE197E09093910180939001109263
:101CE00093011092920182E080938B0110929501F2
:101CF00010929401109283011092820180E197E08A
:101D0000909385018093840111E010937D011092DE
:101D100087011092860188E891E0909334038093C4
:101D200033038AE791E0909332038093310388E68E
:101D300092E09F938F930E94AC2F86E392E09F9353
:101D40008F930E94AC2F8EE08093AD0160E00E94E3
:101D500029050F900F900F900F908091A101811194
:101D60002CC08BE091E0909397018093960180E2E4
:101D700091EAA7E0B0E08093980190939901A09335
:101D80009A01B0939B018FEF9FEF90939D018093F9
:101D90009C0110929E0180939F018093A00167E0B7
:101DA00070E086E991E00E94970487E291E09093C9
:101DB0009701809396011093A10186E991E0909399
:101DC000AF018093AE0161E08DE00E94290560E0E3
:101DD0008DE00E94DD048FE190E00E94822B8C0157
:101DE000009709F446C0FC019183808381E0838FD2
:101DF000148E0FB6F8940F9280819181238D448DBB
:101E0000BC01249F600D711D112475836483128EA3
:101E1000938382832150330B429FB001439F700D07
:101E20001124860F971F978386838FEF858F868F68
:101E3000C8010B96928781872FEF3FEF3487238766
:101E400096878587908B878710860996938B828BE0
:101E5000358B248B978B868B918F808F118A0F9077
:101E60000FBE15821482118210821682C8010E9450
:101E7000051C1093230200932202012B49F48BE1ED
:101E800092E09F938F930E94AC2F0F900F90FFCF03
:101E900081E092E09F938F930E94AC2F10E000E0CE
:101EA00023E04CED50E06EE571E088E19DE00E949A
:101EB000B42BD82E22E040E451E062E671E080E6E7
:101EC00099E00E94B42BE82E22E04CED50E067E64A
:101ED00071E08DE098E00E94B42BF82E21E044E5FB
:101EE00051E06EE671E08DE99BE00E94B42B0F900B
:101EF0000F90F1E0DF1218C0EF1216C0FF1214C0ED
:101F0000813091F48CEB91E09F938F930E94AC2FE2
:101F10000F900F900F900F90DF91CF911F910F9125
:101F2000FF90EF90DF90089585EE91E09F938F935F
:101F30000E94AC2F0F900F90FFCF1F920F920FB601
:101F40000F9211242F933F938F939F93AF93BF933F
:101F50008091C6029091C702A091C802B091C902B7
:101F60003091C50223E0230F2D3758F50196A11DAE
:101F7000B11D2093C5028093C6029093C702A0931F
:101F8000C802B093C9028091CA029091CB02A0917D
:101F9000CC02B091CD020196A11DB11D8093CA0261
:101FA0009093CB02A093CC02B093CD02BF91AF919E
:101FB0009F918F913F912F910F900FBE0F901F9087
:101FC000189526E8230F0296A11DB11DD2CF1F92AE
:101FD0000F920FB60F9211242F933F934F935F935D
:101FE0006F937F938F939F93AF93BF93EF93FF93E1
:101FF00084E292E00E948106FF91EF91BF91AF9140
:102000009F918F917F916F915F914F913F912F9110
:102010000F900FBE0F901F9018951F920F920FB642
:102020000F9211242F938F939F93EF93FF93E0913F
:102030003402F09135028081E0913A02F0913B0246
:1020400082FD1BC0908180913D028F5F8F73209134
:102050003E02821741F0E0913D02F0E0EC5DFD4F61
:10206000958F80933D02FF91EF919F918F912F91DA
:102070000F900FBE0F901F9018958081F4CF0FB670
:10208000F8940F92FC01928D0F900FBE81E0911198
:1020900080E00895CF93DF93FC01A085B185828114
:1020A000938124813581EC013D832C83C481D581CA
:1020B0009B838A8311968D919C9112978E179F070F
:1020C00021F41296DC93CE931197118610868C9191
:1020D00081508C93DF91CF9108950F931F93CF93ED
:1020E000DF938C01FB0180819181D80113968F3F92
:1020F0009807F1F4E801AF81B88512968D919C9113
:10210000139793838283EC01FD83EC83B583A483CF
:102110001396FC93EE93129711870087F801808144
:102120008F5F8083DF91CF911F910F910895D90127
:1021300012962D913C911397E9014881598184179A
:102140009507A8F7DACFBF92CF92DF92EF92FF9276
:102150000F931F93CF93DF93EC01B62EC090CF0265
:10216000D090D0020091D4021091D502E090D2021A
:10217000F090D30280912A0390912B0302960E9443
:102180004A10CF3FDC0709F042C0BB2009F43FC032
:10219000E091D702F091D802A0912A03B0912B03CD
:1021A0001596FC93EE931497A0912A03B0912B03FC
:1021B0008481958117969C938E93169780912A031C
:1021C00090912B03A481B581029613969C938E93D4
:1021D000129780912A0390912B0302969583848312
:1021E000E0912A03F0912B0386ED92E0938782879A
:1021F0008091D6028F5F8093D602DF91CF911F919D
:102200000F91FF90EF90DF90CF90BF900895CC0D8D
:10221000DD1DE0912A03F0912B03D383C2836091EB
:102220002A0370912B036E5F7F4FCC15DD0560F4A0
:10223000C701DF91CF911F910F91FF90EF90DF9039
:10224000CF90BF900C946D10C8010E946D108091CA
:10225000C3029091C402C817D90778F6D093C4027C
:10226000C093C302CACFE091D402F091D50280811D
:10227000811107C08FEF9FEF9093C4028093C30238
:102280000895E091D402F091D5020580F681E02D09
:1022900080819181F1CFFC01DB010FB6F8940F92A0
:1022A0004091CF025091D0022D913C9111972F3F38
:1022B000320711F1818192816091D102708176178C
:1022C00049F04817590730F01D921C9281E00F9099
:1022D0000FBE0895481B590B42175307A8F7241B3C
:1022E000350B2D933C938091D10280838091CF0256
:1022F0009091D0029283818380E0E9CFCF93DF93E6
:10230000DC011596ED91FC910680F781E02DA48902
:10231000B5898685978520893189EC013D832C8399
:10232000C089D1899B838A83CF010C9611962D9108
:102330003C9112972817390721F41296DC93CE931B
:102340001197158A148A2C9121502C932091AB015E
:10235000211157C0A285B38584819581268137815B
:10236000EC013D832C83C681D7819B838A83CF0177
:10237000029611962D913C9112972817390721F456
:102380001296DC93CE931197138612862C912150CE
:102390002C93C689209127032C1710F4C093270390
:1023A00029E02C9FE0011124CD5FDC4F0980DA8108
:1023B000C02DD583C4834C815D8157834683AC8116
:1023C000BD8113969C938E9312979D838C83A689CF
:1023D000A29FD0011124AD5FBC4FB387A2878C911F
:1023E0008F5F8C93A0912A03B0912B039689569608
:1023F0008C91891730F581E08093CE02DF91CF91E7
:102400000895A091E902B091EA02B787A6871496D1
:102410002D913C911597318B208B1496CD91DC91A9
:1024200015979B838A8315969C938E93149788EEB9
:1024300092E0958B848B8091E8028F5F8093E80215
:10244000D1CF80E0DBCFEF92FF920F931F93CF931A
:10245000DF93EC010FB6F8940F921E8D7C0181E1A1
:10246000E80EF11C01E01116D4F08FEF8E8F0F9063
:102470000FBE0FB6F8940F921D8D7E0188E0E80E16
:10248000F11C01E01116B4F08FEF8D8F0F900FBE8D
:10249000DF91CF911F910F91FF90EF90089589895F
:1024A000882319F3C7010E947E1181110093CE0287
:1024B0001150D9CF8885882339F3C7010E947E1136
:1024C00081110093CE021150DDCF0FB6F8940F9218
:1024D0008091CF029091D0020F900FBE089580910D
:1024E000AB018F5F8093AB0108950F920FB6F89404
:1024F0000F921F9211242F923F924F925F926F92F0
:102500007F928F929F92AF92BF92CF92DF92EF9283
:10251000FF920F931F932F933F934F935F936F936C
:102520007F938F939F93AF93BF93CF93DF93EF935B
:10253000FF93A0912A03B0912B030DB60D920EB616
:102540000D928091AB01882321F081E08093CE022F
:1025500065C71092CE02A0912A03B0912B03E0919F
:102560002A03F0912B032D913C918789908D82173E
:10257000930708F418C780912A0390912B0349967A
:1025800020912A0330912B03009711F486E591E006
:102590009F938F9380E992E09F938F930E94AC2F3B
:1025A000F4E38F2EF5E09F2EF4012491A0E2AA2EF1
:1025B000A5E0BA2EF50184910F900F900F900F9027
:1025C000882399F090E0880F991FFC01E551FB4F9B
:1025D000A591B491FC01EB50FB4F859194918FB77D
:1025E000F8949C91292B2C938FBF7CE0472E75E0AB
:1025F000572EC9E0D1E00FEF1FEFF2018491F401F3
:102600009491F5012491222309F43EC0882371F1AD
:10261000833069F028F48130B1F08230C1F026C0F7
:102620008730C9F08830E9F0843001F506C0809128
:1026300080008F778093800019C0809180008F7D0B
:102640008093800013C084B58F7784BD0FC084B59C
:102650008F7D84BD0BC08091B0008F778093B000D8
:1026600005C08091B0008F7D8093B000E22FF0E034
:10267000EE0FFF1FEB50FB4FA591B4918FB7F8946D
:102680002C91922B9C938FBF8091AB018F5F809395
:10269000AB014091CF025091D0026090D402709073
:1026A000D5028091D2029091D302E0912A03F09159
:1026B0002B0322853385E480F58066817781D701FD
:1026C00015967C936E93149766817781DB01139640
:1026D000FC92EE9212977F01B2E0EB0EF11CD90151
:1026E0001196CD90DC901297CE14DF0421F412964F
:1026F0007C936E93119713861286F9016081615065
:1027000060839A01295F3F4FE0912A03F0912B03E8
:102710003383228324173507D0F5C0902A03D09045
:102720002B0396012E5F3F4FD60112964D915C917F
:10273000FC0133964F3F540731F4DC011796ED91BD
:10274000FC9109C0FB0162817381DB01ED90FC907B
:102750004E155F05B8F742815381D60115965C93FB
:102760004E931497DA0115963C932E931497D60145
:102770001796FC93EE931697338322831B969C93B4
:102780008E931A97FC0120812F5F208344C0809193
:102790002A0390912B03AC014E5F5F4FDC01129630
:1027A0006D917C91F30133966F3F760731F4D3013D
:1027B0001796ED91FC9109C0F701E280F380D701F3
:1027C000CD90DC906C157D05B8F762817381DC01DA
:1027D00015967C936E931497DB0115965C934E933C
:1027E0001497DC011796FC93EE931697538342835C
:1027F0001B967C926E921A97F30180818F5F808383
:102800008091C3029091C4022817390720F43093B5
:10281000C4022093C3020FB6F8940F928091AB01CB
:1028200081508093AB018091AB01882311F080E04F
:10283000E5C180912C038823D1F34091ED025091A2
:10284000EE02F0E0E0E08BC0DA011696ED91FC912B
:10285000E488F5882685378580899189D901159680
:102860009C938E93149780899189DC0113963C93F5
:102870002E9312979F01245F3F4FD70111966D91C0
:102880007C9112976217730721F412969C938E9392
:102890001197158A148AD7018C9181508C93E28408
:1028A000F3848481958126813781DC0115963C93E0
:1028B0002E93149726813781D90113969C938E937A
:1028C0001297CF010296D70111966D917C911297C4
:1028D0006817790721F412963C932E93119713866B
:1028E0001286D7012C9121502C93A6892091270381
:1028F0002A1710F4A0932703CA9FD0011124AD5FBB
:10290000BC4F11966D917C9175836483DB011496A5
:102910002D913C9115973783268314962D913C91E8
:10292000D90113969C938E931297DB0115969C9375
:102930008E93149796899C9FD0011124AD5FBC4F54
:10294000B387A2878C918F5F8C93A0912A03B0915B
:102950002B0356968C91891710F4D093CE02809158
:10296000E802811171CFEF2BC9F0E091D402F09110
:10297000D5028081811105C01093C4020093C30267
:102980000DC0E091D402F091D5020580F681E02DD2
:10299000808191819093C4028093C3022091A90108
:1029A0003091AA012115310509F41CC18091AB01B8
:1029B000811103C18091CF029091D0020196909332
:1029C000D0028093CF02009771F54091D4025091CC
:1029D000D5026091D2027091D3027093D5026093B8
:1029E000D4025093D3024093D2024091D1024F5F60
:1029F0004093D102E091D402F091D502408141117F
:102A000005C01093C4020093C3020DC0E091D4022C
:102A1000F091D5020580F681E02D408151815093DF
:102A2000C4024093C3024091C3025091C402D12C0E
:102A30008417950708F4ADC0D12CE091D402F09131
:102A4000D5024081411105C01093C4020093C30216
:102A5000A0C0E091D402F091D5020580F681E02D6E
:102A60000680F781E02D428153818417950728F471
:102A70005093C4024093C3028CC062847384448127
:102A8000558166817781DA0115967C936E93149750
:102A900066817781DB0113965C934E931297AF01A9
:102AA0004E5F5F4FD3011196ED90FC901297E416A4
:102AB000F50621F412967C936E9311971386128675
:102AC000D3016C9161506C932488358821143104B2
:102AD00029F166857785E088F188DB011596FC92FF
:102AE000EE921497E088F188D70113967C936E9349
:102AF0001297D10111966D907C901297BF01645F7F
:102B00007F4F6616770621F41296FC92EE9211978B
:102B1000158A148AD1016C9161506C93A6896091D9
:102B200027036A1710F4A0932703CA9FD00111242A
:102B3000AD5FBC4F1196ED90FC90F582E482D70119
:102B400014966D917C9115977783668314966D9199
:102B50007C91DB0113965C934E931297D7011596E7
:102B60005C934E93149756895C9FD0011124AD5FFE
:102B7000BC4FB387A2874C914F5F4C93E0912A03DF
:102B8000F0912B034689451708F057CFDD24D394E5
:102B900054CFE0912A03F0912B03E689CE9FF001F8
:102BA0001124ED5FFC4F8081823010F0DD24D3943E
:102BB0008091CE0281110CC00AC08091A901909130
:102BC000AA0101969093AA018093A90103C0D11094
:102BD000D093CE022150310909F0E8CE1092AA011B
:102BE0001092A9018091CE02882309F420CE809111
:102BF0002A0390912B030E94751281E00F900FBE63
:102C0000811102C00E9475123FB7F8948091CA02E8
:102C10009091CB02A091CC02B091CD0226B5A89B99
:102C200005C02F3F19F00196A11DB11D3FBFBA2F5E
:102C3000A92F982F8827820F911DA11DB11D42E059
:102C4000880F991FAA1FBB1F4A95D1F758E0C52EC0
:102C5000D12CE12CF12C0EC0E1E0CE1AD108E10814
:102C6000F10888519C4FAF4FBF4FC114D104E1040C
:102C7000F10469F13FB7F8944091CA025091CB0238
:102C80006091CC027091CD0226B5A89B06C02F3F63
:102C900021F04F5F5F4F6F4F7F4F3FBF762F652F04
:102CA000542F4427420F511D611D711DF2E0440F46
:102CB000551F661F771FFA95D1F7481B590B6A0BF2
:102CC0007B0B483E53406105710530F6D3CFF201CE
:102CD0008491F4019491F5012491222309F43FC0D9
:102CE000882371F1833069F028F48130B1F08230AB
:102CF000C1F026C08730C9F08830E9F0843001F592
:102D000006C0809180008F778093800019C08091E9
:102D100080008F7D8093800013C084B58F7784BD41
:102D20000FC084B58F7D84BD0BC08091B0008F77BC
:102D30008093B00005C08091B0008F7D8093B0007B
:102D4000E22FF0E0EE0FFF1FEB50FB4FA591B49187
:102D50008FB7F8942C91909592239C938FBF80917C
:102D6000AB018F5F8093AB014091CF025091D002B5
:102D70006090D4027090D5028091D2029091D302DB
:102D8000E0912A03F0912B0322853385E480F580BE
:102D900066817781D70115967C936E93149766812F
:102DA0007781DB011396FC92EE9212977F01B2E0DD
:102DB000EB0EF11CD9011196CD90DC901297CE1438
:102DC000DF0421F412967C936E931197138612867A
:102DD000F9016081615060839A01295F3F4FE09162
:102DE0002A03F0912B033383228324173507D0F570
:102DF000C0902A03D0902B0396012E5F3F4FD6013F
:102E000012964D915C91FC0133964F3F540731F47B
:102E1000DC011796ED91FC9109C0FB016281738181
:102E2000DB01ED90FC904E155F05B8F742815381B0
:102E3000D60115965C934E931497DA0115963C9340
:102E40002E931497D6011796FC93EE93169733831F
:102E500022831B969C938E931A97FC0120812F5FEF
:102E6000208344C080912A0390912B03AC014E5FD4
:102E70005F4FDC0112966D917C91F30133966F3FA9
:102E8000760731F4D3011796ED91FC9109C0F70153
:102E9000E280F380D701CD90DC906C157D05B8F70A
:102EA00062817381DC0115967C936E931497DB012C
:102EB00015965C934E931497DC011796FC93EE9352
:102EC0001697538342831B967C926E921A97F30156
:102ED00080818F5F80838091C3029091C402281704
:102EE000390720F43093C4022093C3020FB6F8943C
:102EF0000F928091AB0181508093AB018091AB0127
:102F0000882311F080E0E5C180912C038823D1F360
:102F10004091ED025091EE02F0E0E0E08BC0DA016A
:102F20001696ED91FC91E488F58826853785808991
:102F30009189D90115969C938E93149780899189D4
:102F4000DC0113963C932E9312979F01245F3F4F11
:102F5000D70111966D917C9112976217730721F436
:102F600012969C938E931197158A148AD7018C918F
:102F700081508C93E284F38484819581268137810A
:102F8000DC0115963C932E93149726813781D90145
:102F900013969C938E931297CF010296D7011196A8
:102FA0006D917C9112976817790721F412963C93E2
:102FB0002E93119713861286D7012C9121502C93B2
:102FC000A689209127032A1710F4A0932703CA9FEC
:102FD000D0011124AD5FBC4F11966D917C9175832A
:102FE0006483DB0114962D913C91159737832683DA
:102FF00014962D913C91D90113969C938E93129720
:10300000DB0115969C938E93149796899C9FD00113
:103010001124AD5FBC4FB387A2878C918F5F8C93D7
:10302000A0912A03B0912B0356968C91891710F426
:10303000D093CE028091E802811171CFEF2BC9F0BD
:10304000E091D402F091D5028081811105C01093E6
:10305000C4020093C3020DC0E091D402F091D502E6
:103060000580F681E02D808191819093C402809348
:10307000C3022091A9013091AA012115310509F45B
:103080001CC18091AB01811103C18091CF0290914D
:10309000D00201969093D0028093CF02009771F5F1
:1030A0004091D4025091D5026091D2027091D30226
:1030B0007093D5026093D4025093D3024093D2020E
:1030C0004091D1024F5F4093D102E091D402F09140
:1030D000D5024081411105C01093C4020093C30280
:1030E0000DC0E091D402F091D5020580F681E02D6B
:1030F000408151815093C4024093C3024091C30266
:103100005091C402D12C8417950708F4ADC0D12C7E
:10311000E091D402F091D5024081411105C0109395
:10312000C4020093C302A0C0E091D402F091D50282
:103130000580F681E02D0680F781E02D42815381E4
:103140008417950728F45093C4024093C3028CC09F
:10315000628473844481558166817781DA01159692
:103160007C936E93149766817781DB0113965C9351
:103170004E931297AF014E5F5F4FD3011196ED90C2
:10318000FC901297E416F50621F412967C936E9348
:10319000119713861286D3016C9161506C93248829
:1031A00035882114310429F166857785E088F18816
:1031B000DB011596FC92EE921497E088F188D70116
:1031C00013967C936E931297D10111966D907C901B
:1031D0001297BF01645F7F4F6616770621F412963F
:1031E000FC92EE921197158A148AD1016C9161506C
:1031F0006C93A689609127036A1710F4A0932703A4
:10320000CA9FD0011124AD5FBC4F1196ED90FC9088
:10321000F582E482D70114966D917C91159777839E
:10322000668314966D917C91DB0113965C934E93AB
:103230001297D70115965C934E93149756895C9F0D
:10324000D0011124AD5FBC4FB387A2874C914F5F73
:103250004C93E0912A03F0912B034689451708F01F
:1032600057CFDD24D39454CFE0912A03F0912B0360
:10327000E689CE9FF0011124ED5FFC4F8081823002
:1032800010F0DD24D3948091CE0281110CC00AC0CD
:103290008091A9019091AA0101969093AA0180932F
:1032A000A90103C0D110D093CE022150310909F0F9
:1032B000E8CE1092AA011092A9018091CE02882333
:1032C00009F420CE80912A0390912B030E9475125D
:1032D00081E00F900FBE811102C00E9475123FB7AE
:1032E000F8948091CA029091CB02A091CC02B09147
:1032F000CD0226B5A89B05C02F3F19F00196A11D50
:10330000B11D3FBFBA2FA92F982F8827820F911D7B
:10331000A11DB11D22E0880F991FAA1FBB1F2A956E
:10332000D1F738E0C32ED12CE12CF12C0FC0E1E015
:10333000CE1AD108E108F10888519C4FAF4FBF4F1A
:10334000C114D104E104F10409F457C93FB7F8945A
:103350004091CA025091CB026091CC027091CD0293
:1033600026B5A89B06C02F3F21F04F5F5F4F6F4FE0
:103370007F4F3FBF762F652F542F4427420F511D9B
:10338000611D711DE2E0440F551F661F771FEA950E
:10339000D1F7481B590B6A0B7B0B483E5340610524
:1033A000710528F6D3CF2091270389E001C0215071
:1033B000422F50E0849FF001859FF00D1124ED5FB6
:1033C000FC4F9081992399F3A181B28112966D915E
:1033D0007C9172836183289FC00111248A5F9C4F76
:1033E0006817790721F4858196819283818389E02A
:1033F000849FF001859FF00D1124ED5FFC4F01804B
:10340000F281E02D8681978190932B0380932A038C
:103410002093270380912A0390912B03A0912A03E4
:10342000B0912B03CD91CDBFDD91DEBFFF91EF9128
:10343000DF91CF91BF91AF919F918F917F916F91CC
:103440005F914F913F912F911F910F91FF90EF90BE
:10345000DF90CF90BF90AF909F908F907F906F90B4
:103460005F904F903F902F901F900F900FBE0F9046
:1034700008958F929F92BF92CF92DF92EF92FF9228
:103480000F931F93CF93DF930FB6F8940F92809111
:10349000AB0181508093AB018091AB01882379F01F
:1034A00080E00F900FBEDF91CF911F910F91FF90A1
:1034B000EF90DF90CF90BF909F908F900895809174
:1034C0002C03882369F3E090ED02F090EE02F0E027
:1034D000E0E039E041E08091E80281115EC0EF2B2D
:1034E00011F00E943311E090A901F090AA01E114BB
:1034F000F10409F47DC189E0D82ECC24C3940FEFE8
:103500001FEF8091AB01811161C1C091CF02D091B9
:10351000D0024E018FEF881A980A9092D0028092C2
:10352000CF0281149104B9F48091D4029091D50214
:103530002091D2023091D3023093D5022093D4024D
:103540009093D3028093D2028091D1028F5F8093B7
:10355000D1020E9433118091C3029091C402B12C18
:103560008816990608F026C1E0912A03F0912B03F2
:10357000E689DE9EF0011124ED5FFC4F80818230F0
:1035800010F0BB24B3948091CE02811103C0BB2004
:1035900009F425C1C092CE0222C1D7011696ED9141
:1035A000FC91A489B5896685778580899189EB012D
:1035B0009D838C8380899189EC017B836A83BF0121
:1035C000645F7F4F11960D911C9112970617170794
:1035D00021F412969C938E931197158A148A8C91DC
:1035E00081508C93A285B385848195816681778192
:1035F000EC017D836C8366817781EB019B838A83F9
:10360000CF01029611960D911C9112970817190778
:1036100021F412967C936E931197138612862C9147
:1036200021502C93A689209127032A1710F4A093E8
:1036300027033A9FD0011124AD5FBC4F11960D9026
:10364000BC91A02DB583A48314966D917C911597A0
:103650007783668314966D917C911597EB019B831C
:103660008A8315969C938E9314979689939FD00185
:103670001124AD5FBC4FB387A2878C918F5F8C9371
:10368000A0912A03B0912B0356968C91891708F0CC
:1036900022CF4093CE021FCFE091D402F091D50209
:1036A0000580F681E02D0680F781E02D82819381EF
:1036B0008816990628F49093C4028093C30254CFCD
:1036C000C285D3858481958126813781DC01159659
:1036D0003C932E93149726813781D90113969C939E
:1036E0008E931297CF01029649815A814817590744
:1036F00011F43A8329831386128628812150288366
:10370000A489B5891097F9F02685378540895189B4
:10371000E9015D834C8340895189EA013B832A8317
:1037200011966D917C9112979F01245F3F4F621714
:10373000730721F412965C934E931197158A148A9D
:103740002C9121502C93A689209127032A1710F43D
:10375000A0932703DA9ED0011124AD5FBC4F1196D0
:103760000D90BC91A02DB583A48314962D913C910E
:1037700015973783268314962D913C911597E9016F
:103780009B838A8315969C938E93149796899D9D0F
:10379000D0011124AD5FBC4FB387A2878C918F5F9E
:1037A0008C93E0912A03F0912B038689891710F4FA
:1037B000BB24B394E091D402F091D50280818111B1
:1037C0006BCF1093C4020093C302CECE8091A901A7
:1037D0009091AA0101969093AA018093A901D1E04A
:1037E000ED1AF10809F08DCE1092AA011092A901EC
:1037F0008091CE02882309F453CE80912A039091C0
:103800002B030E94751281E04CCEAF92BF92DF92E3
:10381000EF92FF920F931F93CF93DF9300D000D0CE
:103820001F92CDB7DEB78C011D821C8280E078012B
:1038300098E0E90EF11C0FB6F8940F92D8015A9651
:103840002C915A975B969C915B97291708F0B0C012
:103850005A96DC905A975C964C915C9741118CC0BB
:103860008D919C91892B11F080E00AC0F801E480D1
:10387000F580E114F10431F580E0F801158214823D
:10388000D394D8015A96DC925A9751969C919923D9
:1038900021F0C80141960E947E1181110E9475128B
:1038A0000F900FBE81E00F900F900F900F900F9030
:1038B000DF91CF911F910F91FF90EF90DF90BF901C
:1038C000AF900895D7019A968C919A9781509A96C5
:1038D0008C939A9756962C91569799969C91291766
:1038E00059F28111C9CF5701B2E0AB0EB11CC5012D
:1038F0000E944A10F70181A5868B482F50E024E0F2
:1039000030E0241B350B35872487909127039817C7
:1039100010F48093270389E0849FD001859FB00D28
:103920001124AD5FBC4F11960D90BC91A02DF701F5
:10393000B583A48314962D913C91159737832683E4
:103940001496ED91FC911597B382A2821596BC92C4
:10395000AE921497D7015696EC915697E89FF001D6
:103960001124ED5FFC4F1B96FC93EE931A97808118
:103970008F5F808381E081CF50E070E060E012963D
:103980008D919C910E949F37F801848D2281338113
:10399000820F932F911D9383828324813581821717
:1039A000930708F461CF80819181938382835CCFF8
:1039B0002C813D81232B21F40F900FBE80E073CF2B
:1039C000811109C08091D10289838091CF029091A9
:1039D000D0029B838A830F900FBE0E946F120FB696
:1039E000F8940F92F801858D8F3F09F4158ED80158
:1039F0005E968C915E978F3F11F45E961C920F90AD
:103A00000FBEBE016C5F7F4FCE0101960E944B112D
:103A100081112AC00FB6F8940F92F801928D838D10
:103A20000F900FBE98131AC0AC80BD8060912A031E
:103A300070912B03645F7F4FC7010E946D1061E09E
:103A4000C5010E94A310C8010E9423120E94391AC6
:103A5000811102C00E94751281E0EDCEC8010E9462
:103A600023120E94391AF8CFC8010E9423120E9423
:103A7000391AA4CF7F928F929F92AF92BF92CF922A
:103A8000DF92EF92FF920F931F93CF93DF9300D0BB
:103A900000D01F92CDB7DEB78C017D836C83D12C13
:103AA00090E0580121E1A20EB11C89E0782E24E0BB
:103AB000822E912C0FB6F8940F92D8015A968C91C1
:103AC0005A978823C9F181505A968C935A978D91B1
:103AD0009C91892B71F4E0912A03F0912B0330978C
:103AE00019F082A58F5F82A7D8011596FC93EE93FB
:103AF0001497F8018085882339F0C80108960E9440
:103B00007E1181110E9475120F900FBEDD24D39497
:103B10008D2D0F900F900F900F900F90DF91CF9100
:103B20001F910F91FF90EF90DF90CF90BF90AF90DB
:103B30009F908F907F9008952C813D81232B21F4BD
:103B40000F900FBED12CE4CF911109C08091D1020A
:103B500089838091CF029091D0029B838A830F90BA
:103B60000FBE0E946F120FB6F8940F92D8015D96A7
:103B70008C915D978F3F11F45D961C92F801868DB4
:103B80008F3F09F4168E0F900FBEBE016C5F7F4F02
:103B9000CE0101960E944B118111B9C0C8010E944B
:103BA0003F10882309F4ADC0D8018D919C91892BD9
:103BB00009F078C00FB6F8940F92F801E480F58010
:103BC000E114F10409F49BC0D70156968C915697E5
:103BD000E0912A03F0912B039689891708F084C09D
:103BE0001C962D913C911D9737FD0CC0E0912A0346
:103BF000F0912B0396899401291B31091D963C9362
:103C00002E931C97879DC00111248D5F9C4FF70157
:103C1000228533852817390709F05EC06701F2E075
:103C2000CF0ED11CC6010E944A10E0912A03F091E8
:103C30002B03E689D7015696EC93809127038E17C4
:103C400010F4E09327037E9EF0011124ED5FFC4FFA
:103C50000180F281E02DD7011596FC93EE93149725
:103C60008481958117969C938E931697A481B58134
:103C70001396DC92CE921297D582C482D7015696C3
:103C8000EC915697E79DF0011124ED5FFC4F1B96D8
:103C9000FC93EE931A9780818F5F8083DD24D39409
:103CA0000F900FBEEC80FD8060912A0370912B0372
:103CB000645F7F4FC5010E946D1061E0C7010E94E3
:103CC000A310C8010E9423120E94391A811102C058
:103CD0000E94751291E0EECEE0912A03F0912B0341
:103CE0008689F701868BDACFE0912A03F0912B03C6
:103CF000DD24D39499969C918689981788F2D12CCB
:103D0000CFCFC8010E9423120E94391AE3CFC80105
:103D10000E9423120E94391AC8010E943F10882372
:103D2000C9F2DD2009F4F4CE0FB6F8940F92F80131
:103D30008189882309F47BC00688F789E02D90816A
:103D400084E0891BD80114960D911C910115110571
:103D500009F4F6CEF80191A5981708F4982FD80128
:103D600056968C915697981709F4EACE9A962C910C
:103D70009A97213009F0E4CE56969C9356971C965C
:103D80002D913C911D9737FD08C024E030E0291BA0
:103D900031091D963C932E931C97B9E08B9FC0016F
:103DA00011248D5F9C4FF801228533852817390730
:103DB00009F0C6CE7801F2E0EF0EF11CC7010E94B7
:103DC0004A10F801A689809127038A1710F4A0935E
:103DD000270389E08A9FD0011124AD5FBC4F119663
:103DE0000D90BC91A02DF801B583A48314962D915C
:103DF0003C911597378326831496ED91FC91159786
:103E0000F382E2821596FC92EE921497D8015696B0
:103E1000EC915697E89FF0011124ED5FFC4F1B9643
:103E2000FC93EE931A9780818F5F808389CE80E028
:103E300089CF80E0E82E80E0F82E8091AC018111DE
:103E40000CC080910303823010F00E947512E114BF
:103E5000F10499F30E947406F0CF0FB6F8940F9214
:103E6000E091E402F091E502C681D781CE0102968D
:103E70000E944A1080912C03815080932C038091E2
:103E8000AC0181508093AC010F900FBE0F89188D4B
:103E90000115110539F00E946F12C8010E94232FED
:103EA0000E94391A209709F4C8CF0E946F12CE01E0
:103EB0000E94232F0E94391AC0CF0F931F93CF93D4
:103EC000DF93EC018B010E946F122091CF023091A1
:103ED000D00248815981CA01800F911F998388833C
:103EE0002417350780F48417950780F0C0E00E94FE
:103EF000391A811102C00E9475128C2FDF91CF9167
:103F00001F910F9108958417950718F02817390706
:103F100068F760E0821B930B0E94A310C1E0E7CF1B
:103F20007F928F929F92AF92BF92CF92DF92EF9249
:103F3000FF920F931F93CF93DF936B017C018091CE
:103F4000AB018F5F8093AB010091CF021091D00243
:103F5000A090D402B090D502C091D202D091D302E9
:103F6000E0912A03F0912B0382859385448155814A
:103F700026813781DA0115963C932E93149726817A
:103F80003781D90113965C934E931297AF014E5F20
:103F90005F4FDC0111966D917C9112976417750744
:103FA00021F412963C932E93119713861286FC01EE
:103FB000208121502083D701C60124E0B695A79522
:103FC000979587952A95D1F7800F911FE0912A0345
:103FD000F0912B03938382838017910708F0ADC083
:103FE00000912A0310912B03C8010296D801129662
:103FF0002D913C91FE0133962F3F320709F094C07A
:10400000EF81F88522813381D80115963C932E9358
:104010001497D90115969C938E931497D8011796EF
:10402000FC93EE931697938382831B96DC93CE9337
:104030001A9788818F5F88830FB6F8940F928091CA
:10404000AB0181508093AB018091AB01882309F4CF
:10405000B0C080E00F900FBE811102C00E947512A7
:10406000DFE0CD22DD24EE24FF243FB7F8948091D9
:10407000CA029091CB02A091CC02B091CD0226B59C
:10408000A89B05C02F3F19F00196A11DB11D3FBF90
:10409000BA2FA92F982F8827820F911DA11DB11D1E
:1040A000C2E0880F991FAA1FBB1FCA95D1F7C11480
:1040B000D104E104F10409F448C23FB7F8944091F7
:1040C000CA025091CB026091CC027091CD0226B50C
:1040D000A89B06C02F3F21F04F5F5F4F6F4F7F4F70
:1040E0003FBF762F652F542F4427420F511D611D6E
:1040F000711DE2E0440F551F661F771FEA95D1F747
:10410000481B590B6A0B7B0B483E534061057105F8
:1041100070F2E1E0CE1AD108E108F10888519C4F15
:10412000AF4FBF4FC4CFFA0142815381DA016D9185
:104130007C9126173707B8F765CFC0912A03D09135
:104140002B038E010E5F1F4F2A813B81F5013396B1
:104150002F3F320729F5D5011796ED91FC91228169
:1041600033813D832C83D90115961C930E931497AC
:10417000FF83EE8313830283BB86AA86E501288131
:104180002F5F28832091C3023091C40282179307C6
:1041900008F052CF9093C4028093C3024DCFFA012E
:1041A00042815381DA016D917C9126173707B8F768
:1041B000D6CF80912C03882309F44BCFA090ED0239
:1041C000B090EE02F0E0E0E039E041E08091E802FA
:1041D00081116EC0EF2B69F0E091D402F091D5020D
:1041E00080818111E4C08FEF9FEF9093C402809390
:1041F000C3022091A9013091AA012115310509F4CA
:1042000097C1D9E0AD2E772473940FEF1FEF809103
:10421000AB0181117CC18091CF029091D0020196B7
:104220009093D0028093CF02009701F54091D40281
:104230005091D5026091D2027091D3027093D50251
:104240006093D4025093D3024093D2024091D102A2
:104250004F5F4093D102E091D402F091D5024081AA
:104260004111AFC01093C4020093C3024091C30236
:104270005091C402B12C8417950708F03CC1E0911D
:104280002A03F0912B03E689AE9EF0011124ED5F25
:10429000FC4F8081823010F0BB24B3948091CE0219
:1042A000811103C0BB2009F43BC17092CE0238C11A
:1042B000D5011696ED91FC91A489B589668577851F
:1042C00080899189EB019D838C8380899189EC01A0
:1042D0007B836A83BF01645F7F4F11960D911C91B0
:1042E00012970617170721F412969C938E93119735
:1042F000158A148A8C9181508C93A285B385848110
:10430000958166817781EC017D836C8366817781FD
:10431000EB019B838A83CF01029611960D911C912C
:1043200012970817190721F412967C936E93119730
:10433000138612862C9121502C93A6892091270355
:104340002A1710F4A09327033A9FD0011124AD5FE0
:10435000BC4F11960D90BC91A02DB583A4831496EB
:104360006D917C9115977783668314966D917C91FE
:104370001597EB019B838A8315969C938E931497D4
:104380009689939FD0011124AD5FBC4FB387A2875C
:104390008C918F5F8C93A0912A03B0912B0356963A
:1043A0008C91891708F012CF4093CE020FCFE09185
:1043B000D402F091D5020580F681E02D80819181B3
:1043C00014CFE091D402F091D5020580F681E02D62
:1043D000408151815093C4024093C30247CFE09182
:1043E000D402F091D5020580F681E02D0680F78198
:1043F000E02D428153818417950728F45093C4021D
:104400004093C3023CCFA285B38544815581668128
:104410007781EA017D836C83C681D7815B834A8380
:10442000AF014E5F5F4F11966D917C9112976417AB
:10443000750721F41296DC93CE931197138612869A
:104440006C9161506C93A489B5891097F1F06685E1
:10445000778580889188EB019D828C82C089D18983
:104460007B836A8311968D909C901297BF01645F45
:104470007F4F8616970621F41296DC93CE93119700
:10448000158A148A6C9161506C93A68960912703F8
:104490006A1710F4A0932703AA9ED0011124AD5FE0
:1044A000BC4F11960D90BC91A02DB583A48314969A
:1044B0006D917C911597778366831496CD91DC91ED
:1044C00015975B834A8315965C934E931497568990
:1044D0005A9DD0011124AD5FBC4FB387A2874C9188
:1044E0004F5F4C93E0912A03F0912B0346894517C7
:1044F00010F4BB24B394E091D402F091D502408132
:1045000041116DCF1093C4020093C302B8CE8091C5
:10451000A9019091AA0101969093AA018093A90103
:104520002150310909F073CE1092AA011092A9010D
:104530008091CE02882309F48CCD80912A0390913A
:104540002B030E94751281E085CDDF91CF911F91E1
:104550000F91FF90EF90DF90CF90BF90AF909F9022
:104560008F907F9008950F920FB6F8940F921F923C
:1045700011242F923F924F925F926F927F928F926F
:104580009F92AF92BF92CF92DF92EF92FF920F93E2
:104590001F932F933F934F935F936F937F938F93CB
:1045A0009F93AF93BF93CF93DF93EF93FF93A0912C
:1045B0002A03B0912B030DB60D920EB60D9213BEC9
:1045C0008091AB018111F9C08091CF029091D0020E
:1045D00001969093D0028093CF02009781F52091AD
:1045E000D4023091D5024091D2025091D30250931F
:1045F000D5024093D4023093D3022093D20220916B
:10460000D1022F5F2093D102E091D402F091D50224
:104610002081211107C02FEF3FEF3093C402209378
:10462000C3020DC0E091D402F091D5020580F6815D
:10463000E02D208131813093C4022093C302209168
:10464000C3023091C4028217930710F420E0A1C086
:1046500020E0B9E0DB2EE091D402F091D502308168
:10466000311107C08FEF9FEF9093C4028093C30274
:1046700090C0E091D402F091D5020580F681E02D42
:104680000680F781E02D428153818417950728F435
:104690005093C4024093C3027CC0A285B385448179
:1046A000558166817781EA017D836C83668177819C
:1046B000EB015B834A83AF014E5F5F4F11960D9113
:1046C0001C9112970417150721F412967C936E9390
:1046D0001197138612863C9131503C93A489B58979
:1046E0001097F9F06685778500891189EB011D83A4
:1046F0000C8300891189E8017B836A831196ED9010
:10470000FC901297BF01645F7F4FE616F70621F415
:1047100012961C930E931197158A148A3C9131506E
:104720003C93A689309127033A1710F4A0932703EE
:10473000DA9ED0011124AD5FBC4F11960D90BC9153
:10474000A02DB583A48314966D917C9115977783E2
:10475000668314966D917C911597EB015B834A8378
:1047600015965C934E93149746894D9DD001112464
:10477000AD5FBC4FB387A2873C913F5F3C93E09114
:104780002A03F0912B033689341708F064CF21E017
:1047900062CFE0912A03F0912B03E689D9E0ED9FE7
:1047A000F0011124ED5FFC4F8081823008F021E0A0
:1047B0008091CE0281110EC00AC08091A901909112
:1047C000AA0101969093AA018093A90170C72223A0
:1047D00009F46DC78091AB01882321F081E08093BB
:1047E000CE0265C71092CE02A0912A03B0912B038E
:1047F000E0912A03F0912B032D913C918789908DB4
:104800008217930708F418C780912A0390912B030D
:10481000499620912A0330912B03009711F486E5E5
:1048200091E09F938F9380E992E09F938F930E94F2
:10483000AC2FF4E38F2EF5E09F2EF4012491A0E23B
:10484000AA2EA5E0BA2EF50184910F900F900F903B
:104850000F90882399F090E0880F991FFC01E55193
:10486000FB4FA591B491FC01EB50FB4F85919491C6
:104870008FB7F8949C91292B2C938FBF7CE0472E07
:1048800075E0572EC9E0D1E00FEF1FEFF2018491E0
:10489000F4019491F5012491222309F43EC0882368
:1048A00071F1833069F028F48130B1F08230C1F0C9
:1048B00026C08730C9F08830E9F0843001F506C0A1
:1048C000809180008F778093800019C08091800054
:1048D0008F7D8093800013C084B58F7784BD0FC017
:1048E00084B58F7D84BD0BC08091B0008F7780939D
:1048F000B00005C08091B0008F7D8093B000E22FA2
:10490000F0E0EE0FFF1FEB50FB4FA591B4918FB776
:10491000F8942C91922B9C938FBF8091AB018F5F69
:104920008093AB014091CF025091D0026090D402AD
:104930007090D5028091D2029091D302E0912A0327
:10494000F0912B0322853385E480F58066817781A1
:10495000D70115967C936E93149766817781DB015E
:104960001396FC92EE9212977F01B2E0EB0EF11CCF
:10497000D9011196CD90DC901297CE14DF0421F46A
:1049800012967C936E93119713861286F9016081BB
:10499000615060839A01295F3F4FE0912A03F091B3
:1049A0002B033383228324173507D0F5C0902A03C5
:1049B000D0902B0396012E5F3F4FD60112964D915A
:1049C0005C91FC0133964F3F540731F4DC0117969C
:1049D000ED91FC9109C0FB0162817381DB01ED90D7
:1049E000FC904E155F05B8F742815381D6011596AC
:1049F0005C934E931497DA0115963C932E9314977B
:104A0000D6011796FC93EE931697338322831B9659
:104A10009C938E931A97FC0120812F5F208344C0C2
:104A200080912A0390912B03AC014E5F5F4FDC0114
:104A300012966D917C91F30133966F3F760731F4B6
:104A4000D3011796ED91FC9109C0F701E280F38044
:104A5000D701CD90DC906C157D05B8F7628173812C
:104A6000DC0115967C936E931497DB0115965C938D
:104A70004E931497DC011796FC93EE93169753838D
:104A800042831B967C926E921A97F30180818F5F0E
:104A900080838091C3029091C4022817390720F4C3
:104AA0003093C4022093C3020FB6F8940F92809102
:104AB000AB0181508093AB018091AB01882311F051
:104AC00080E0E5C180912C038823D1F34091ED0271
:104AD0005091EE02F0E0E0E08BC0DA011696ED9125
:104AE000FC91E488F5882685378580899189D901EC
:104AF00015969C938E93149780899189DC01139667
:104B00003C932E9312979F01245F3F4FD70111963C
:104B10006D917C9112976217730721F412969C9302
:104B20008E931197158A148AD7018C9181508C939A
:104B3000E284F3848481958126813781DC01159696
:104B40003C932E93149726813781D90113969C9319
:104B50008E931297CF010296D70111966D917C9199
:104B600012976817790721F412963C932E931197A8
:104B700013861286D7012C9121502C93A68920915F
:104B800027032A1710F4A0932703CA9FD0011124EA
:104B9000AD5FBC4F11966D917C9175836483DB0191
:104BA00014962D913C9115973783268314962D9159
:104BB0003C91D90113969C938E931297DB01159625
:104BC0009C938E93149796899C9FD0011124AD5F7E
:104BD000BC4FB387A2878C918F5F8C93A0912A03DF
:104BE000B0912B0356968C91891710F4D093CE0276
:104BF0008091E802811171CFEF2BC9F0E091D402CE
:104C0000F091D5028081811105C01093C4020093F8
:104C1000C3020DC0E091D402F091D5020580F68167
:104C2000E02D808191819093C4028093C3022091F2
:104C3000A9013091AA012115310509F41CC1809107
:104C4000AB01811103C18091CF029091D0020196F6
:104C50009093D0028093CF02009771F54091D402D7
:104C60005091D5026091D2027091D3027093D50217
:104C70006093D4025093D3024093D2024091D10268
:104C80004F5F4093D102E091D402F091D502408170
:104C9000411105C01093C4020093C3020DC0E091FE
:104CA000D402F091D5020580F681E02D408151813A
:104CB0005093C4024093C3024091C3025091C40276
:104CC000D12C8417950708F4ADC0D12CE091D40203
:104CD000F091D5024081411105C01093C4020093A8
:104CE000C302A0C0E091D402F091D5020580F68104
:104CF000E02D0680F781E02D4281538184179507CE
:104D000028F45093C4024093C3028CC0628473841D
:104D10004481558166817781DA0115967C936E9383
:104D2000149766817781DB0113965C934E931297FB
:104D3000AF014E5F5F4FD3011196ED90FC9012973B
:104D4000E416F50621F412967C936E931197138660
:104D50001286D3016C9161506C932488358821149C
:104D6000310429F166857785E088F188DB011596A5
:104D7000FC92EE921497E088F188D70113967C9309
:104D80006E931297D10111966D907C901297BF018E
:104D9000645F7F4F6616770621F41296FC92EE92BE
:104DA0001197158A148AD1016C9161506C93A68970
:104DB000609127036A1710F4A0932703CA9FD001BC
:104DC0001124AD5FBC4F1196ED90FC90F582E4820A
:104DD000D70114966D917C9115977783668314960D
:104DE0006D917C91DB0113965C934E931297D701E2
:104DF00015965C934E93149756895C9FD0011124AD
:104E0000AD5FBC4FB387A2874C914F5F4C93E0914D
:104E10002A03F0912B034689451708F057CFDD246C
:104E2000D39454CFE0912A03F0912B03E689CE9FCF
:104E3000F0011124ED5FFC4F8081823010F0DD2401
:104E4000D3948091CE0281110CC00AC08091A90137
:104E50009091AA0101969093AA018093A90103C0A1
:104E6000D110D093CE022150310909F0E8CE109232
:104E7000AA011092A9018091CE02882309F420CEC4
:104E800080912A0390912B030E94751281E00F906C
:104E90000FBE811102C00E9475123FB7F894809135
:104EA000CA029091CB02A091CC02B091CD0226B55E
:104EB000A89B05C02F3F19F00196A11DB11D3FBF52
:104EC000BA2FA92F982F8827820F911DA11DB11DE0
:104ED00042E0880F991FAA1FBB1F4A95D1F758E0DF
:104EE000C52ED12CE12CF12C0EC0E1E0CE1AD10858
:104EF000E108F10888519C4FAF4FBF4FC114D10456
:104F0000E104F10469F13FB7F8944091CA0250916D
:104F1000CB026091CC027091CD0226B5A89B06C051
:104F20002F3F21F04F5F5F4F6F4F7F4F3FBF762F77
:104F3000652F542F4427420F511D611D711DF2E052
:104F4000440F551F661F771FFA95D1F7481B590B61
:104F50006A0B7B0B483E53406105710530F6D3CF99
:104F6000F2018491F4019491F5012491222309F432
:104F70003FC0882371F1833069F028F48130B1F0AB
:104F80008230C1F026C08730C9F08830E9F0843023
:104F900001F506C0809180008F778093800019C052
:104FA000809180008F7D8093800013C084B58F77BF
:104FB00084BD0FC084B58F7D84BD0BC08091B000CF
:104FC0008F778093B00005C08091B0008F7D809373
:104FD000B000E22FF0E0EE0FFF1FEB50FB4FA5916A
:104FE000B4918FB7F8942C91909592239C938FBF96
:104FF0008091AB018F5F8093AB014091CF025091C4
:10500000D0026090D4027090D5028091D20290912B
:10501000D302E0912A03F0912B0322853385E480AB
:10502000F58066817781D70115967C936E931497EE
:1050300066817781DB011396FC92EE9212977F01D5
:10504000B2E0EB0EF11CD9011196CD90DC901297D5
:10505000CE14DF0421F412967C936E93119713867D
:105060001286F9016081615060839A01295F3F4F88
:10507000E0912A03F0912B03338322832417350711
:10508000D0F5C0902A03D0902B0396012E5F3F4F9E
:10509000D60112964D915C91FC0133964F3F540717
:1050A00031F4DC011796ED91FC9109C0FB0162819E
:1050B0007381DB01ED90FC904E155F05B8F74281DE
:1050C0005381D60115965C934E931497DA01159689
:1050D0003C932E931497D6011796FC93EE93169754
:1050E000338322831B969C938E931A97FC01208115
:1050F0002F5F208344C080912A0390912B03AC0141
:105100004E5F5F4FDC0112966D917C91F3013396F7
:105110006F3F760731F4D3011796ED91FC9109C0EA
:10512000F701E280F380D701CD90DC906C157D050E
:10513000B8F762817381DC0115967C936E931497A6
:10514000DB0115965C934E931497DC011796FC9344
:10515000EE931697538342831B967C926E921A9716
:10516000F30180818F5F80838091C3029091C4029C
:105170002817390720F43093C4022093C3020FB6D6
:10518000F8940F928091AB0181508093AB01809194
:10519000AB01882311F080E0E5C180912C038823C6
:1051A000D1F34091ED025091EE02F0E0E0E08BC0CF
:1051B000DA011696ED91FC91E488F588268537850D
:1051C00080899189D90115969C938E931497808933
:1051D0009189DC0113963C932E9312979F01245FD3
:1051E0003F4FD70111966D917C911297621773070B
:1051F00021F412969C938E931197158A148AD701E5
:105200008C9181508C93E284F384848195812681F2
:105210003781DC0115963C932E93149726813781B4
:10522000D90113969C938E931297CF010296D701C2
:1052300011966D917C9112976817790721F4129657
:105240003C932E93119713861286D7012C912150EF
:105250002C93A689209127032A1710F4A0932703E3
:10526000CA9FD0011124AD5FBC4F11966D917C9106
:1052700075836483DB0114962D913C9115973783D8
:10528000268314962D913C91D90113969C938E936D
:105290001297DB0115969C938E93149796899C9F89
:1052A000D0011124AD5FBC4FB387A2878C918F5F73
:1052B0008C93A0912A03B0912B0356968C91891759
:1052C00010F4D093CE028091E802811171CFEF2BC0
:1052D000C9F0E091D402F091D5028081811105C01E
:1052E0001093C4020093C3020DC0E091D402F09168
:1052F000D5020580F681E02D808191819093C402D2
:105300008093C3022091A9013091AA012115310592
:1053100009F41CC18091AB01811103C18091CF02BE
:105320009091D00201969093D0028093CF02009783
:1053300071F54091D4025091D5026091D2027091E2
:10534000D3027093D5026093D4025093D30240935A
:10535000D2024091D1024F5F4093D102E091D4023A
:10536000F091D5024081411105C01093C402009311
:10537000C3020DC0E091D402F091D5020580F68100
:10538000E02D408151815093C4024093C30240916B
:10539000C3025091C402D12C8417950708F4ADC004
:1053A000D12CE091D402F091D5024081411105C089
:1053B0001093C4020093C302A0C0E091D402F09104
:1053C000D5020580F681E02D0680F781E02D42812F
:1053D00053818417950728F45093C4024093C30265
:1053E0008CC0628473844481558166817781DA013F
:1053F00015967C936E93149766817781DB011396E3
:105400005C934E931297AF014E5F5F4FD30111969D
:10541000ED90FC901297E416F50621F412967C9319
:105420006E93119713861286D3016C9161506C9321
:10543000248835882114310429F166857785E08830
:10544000F188DB011596FC92EE921497E088F188C2
:10545000D70113967C936E931297D10111966D909C
:105460007C901297BF01645F7F4F6616770621F428
:105470001296FC92EE921197158A148AD1016C91C2
:1054800061506C93A689609127036A1710F4A0936A
:105490002703CA9FD0011124AD5FBC4F1196ED9038
:1054A000FC90F582E482D70114966D917C9115975A
:1054B0007783668314966D917C91DB0113965C93E0
:1054C0004E931297D70115965C934E931497568975
:1054D0005C9FD0011124AD5FBC4FB387A2874C9174
:1054E0004F5F4C93E0912A03F0912B0346894517B7
:1054F00008F057CFDD24D39454CFE0912A03F091E4
:105500002B03E689CE9FF0011124ED5FFC4F8081D3
:10551000823010F0DD24D3948091CE0281110CC032
:105520000AC08091A9019091AA0101969093AA01C5
:105530008093A90103C0D110D093CE02215031092C
:1055400009F0E8CE1092AA011092A9018091CE0232
:10555000882309F420CE80912A0390912B030E9486
:10556000751281E00F900FBE811102C00E9475126A
:105570003FB7F8948091CA029091CB02A091CC02DF
:10558000B091CD0226B5A89B05C02F3F19F001961A
:10559000A11DB11D3FBFBA2FA92F982F8827820FB9
:1055A000911DA11DB11D22E0880F991FAA1FBB1FCD
:1055B0002A95D1F738E0C32ED12CE12CF12C0FC065
:1055C000E1E0CE1AD108E108F10888519C4FAF4FB5
:1055D000BF4FC114D104E104F10409F457C93FB726
:1055E000F8944091CA025091CB026091CC02709124
:1055F000CD0226B5A89B06C02F3F21F04F5F5F4F1D
:105600006F4F7F4F3FBF762F652F542F4427420F98
:10561000511D611D711DE2E0440F551F661F771F6C
:10562000EA95D1F7481B590B6A0B7B0B483E534058
:105630006105710528F6D3CF2091270389E001C0C9
:105640002150422F50E0849FF001859FF00D1124DE
:10565000ED5FFC4F9081992399F3A181B28112965D
:105660006D917C9172836183289FC00111248A5FB0
:105670009C4F6817790721F48581968192838183F5
:1056800089E0849FF001859FF00D1124ED5FFC4FB0
:105690000180F281E02D8681978190932B03809386
:1056A0002A032093270380912A0390912B03A09132
:1056B0002A03B0912B03CD91CDBFDD91DEBFFF91C9
:1056C000EF91DF91CF91BF91AF919F918F917F919A
:1056D0006F915F914F913F912F911F910F91FF908B
:1056E000EF90DF90CF90BF90AF909F908F907F9082
:1056F0006F905F904F903F902F901F900F900FBE34
:105700000F900895CF93DF93EC010E946F12CE01AA
:105710000E94872EEC010E94391A209709F584EB2C
:1057200092E09F938F930E94AC2F61E08DE00E94E6
:1057300029050F900F9061E08DE00E94DD046EE579
:1057400071E080E090E00E94901F60E08DE00E9498
:10575000DD046EE571E080E090E00E94901FEBCFE9
:10576000CE01DF91CF9108957F928F929F92AF9259
:10577000BF92CF92DF92EF92FF920F931F93CF933E
:10578000DF93982EA92E762E872E7A01B22ECA018B
:105790000E94822B6C01892B09F484C180E390E084
:1057A0000E94822BEC01892B09F475C180E3DE0194
:1057B0001D928A95E9F7D88ECF8AA70165EA70E035
:1057C000C6010E94A837B1E0EB1AF108EF89F88D05
:1057D000EE0DFF1D672D782DCE0149969B01205FB0
:1057E0003F4FDB014D91BD01DC014D93CD01AB017C
:1057F00041505109DA014C91442319F062177307A3
:1058000081F718A6BE8AB9A61B861A861D8A1C8A2D
:10581000D987C88784E090E08B1991099D878C8790
:10582000DB8BCA8B9082DF011197AC9211971C928F
:10583000119780E88C9311971C9257971C9211979F
:105840001C92B397F983E8830115110519F0F8014B
:10585000D183C0830FB6F8940F9280912C038F5F91
:1058600080932C0380912A0390912B03892B09F0BC
:1058700028C1D0932B03C0932A0380912C0381303D
:1058800009F0C2C026E033E03093050320930403FF
:105890008FEF9FEF909307038093060330930903E4
:1058A0002093080330930B0320930A031092030301
:1058B0002FE033E030930E0320930D0390931003F9
:1058C00080930F033093120320931103309314033A
:1058D0002093130310920C0328E133E03093170355
:1058E00020931603909319038093180330931B039E
:1058F00020931A0330931D0320931C031092150369
:1059000021E233E03093200320931F03909322037E
:1059100080932103309324032093230330932603A1
:105920002093250310921E032DEF32E03093FC02EA
:105930002093FB029093FE028093FD0230930003BC
:105940002093FF0230930203209301031092FA0286
:1059500024EF32E03093F3022093F2029093F502A9
:105960008093F4023093F7022093F6023093F90209
:105970002093F8021092F1022BEE32E03093EA020B
:105980002093E9029093EC028093EB023093EE02B5
:105990002093ED023093F0022093EF021092E80280
:1059A00022EE32E03093E1022093E0029093E30292
:1059B0008093E2023093E5022093E4023093E70201
:1059C0002093E6021092DF0229ED32E03093D802F4
:1059D0002093D7029093DA028093D9023093DC02AD
:1059E0002093DB023093DE022093DD021092D60278
:1059F0008AEF92E09093D5028093D40281EF92E0F7
:105A00009093D3028093D202809128038F5F80937A
:105A10002803AE89809127038A1710F4A0932703E7
:105A200029E02A9FD0011124AD5FBC4F11960D9043
:105A3000BC91A02DBD83AC8314968D919C9115973C
:105A40009F838E831496ED91FC911597CE0102965B
:105A50009383828315969C938E931497EE89E29F8D
:105A6000F0011124ED5FFC4FFB87EA8780818F5F97
:105A700080830F900FBE80912903882351F0E0911D
:105A80002A03F0912B0396898E89981710F40E94AF
:105A9000751281E008C00E946F12C6010E94232F78
:105AA0000E94391A8FEFDF91CF911F910F91FF90D4
:105AB000EF90DF90CF90BF90AF909F908F907F90AE
:105AC00008958091290381119FCFE0912A03F091DD
:105AD0002B0396898E89891708F496CFD0932B03D0
