:100000000C9431060C9462060C9462060C94620601
:100010000C9462060C9462060C9462060C946206C0
:100020000C9462060C9462060C9462060C946206B0
:100030000C9499320C9462060C9462060C9462063D
:100040000C9462060C9462060C9462060C94620690
:100050000C9462060C9462060C9462060C9468136D
:100060000C9462060C94DC130C94B2130C9462068C
:100070000C9462060C9462060C9462060C94620660
:100080000C9462060C9462060C9462060C94620650
:100090000C9462060C9462060C9462060C94620640
:1000A0000C9462060C9462060C9462060C94620630
:1000B0000C9462060C9462060C9462060C94620620
:1000C0000C9462060C9462060C9462060C94620610
:1000D0000C9462060C9462060C9462060C94620600
:1000E0000C94620608000000BE922449123EABAA9E
:1000F000AA2ABECDCCCC4C3E00000080BEABAAAA42
:10010000AA3E00000000BF000000803F0000000089
:1001100000084178D3BB4387D1133D190E3CC3BDC2
:100120004282AD2B3E68EC8276BED98FE1A93E4C6F
:1001300080EFFFBE01C4FF7F3F00000000000C9471
:1001400011180C9402060C94A6080C94DF1B0C9456
:1001500064050C94462D0C94502D0C94B11B0C94FA
:1001600086290C9429180C94742D0C94A0290C94B5
:10017000940F0C94ED080C94CA290C94080B0C9461
:1001800064060C946E2D0C94A1080C94F61B0C9430
:10019000F11B0C94C4290C94FB170C942F180C948D
:1001A00080290C94A71B0C94A1050C949B1B0C9408
:1001B0006A0A0C948F050C94422D0C94B8290C9467
:1001C000D0290C94D7080C9428070C94DF080C94C1
:1001D000E51B0C9487060C94C7070C9417180C9415
:1001E000240A0C9440180C94F7080C940F110C94EA
:1001F0004A2D0C94FF170C94F1170C94CD1B0C9402
:100200008C070C94E9080C94F3080C943C2D0C9486
:100210002B080C94EB170C94AC290C947A290C94B1
:10022000802D0C94B2290C947A2D0C94BB1B0C9449
:10023000B51B0C94120B0C94C0080C94C4080C94BD
:10024000B8080C94F7170C9490290C94362D0C9444
:100250009A290C94E5170C94302D0C94A4070C9457
:100260001D180C94030C0C94050C0C94B70A0C94F8
:10027000010A0C94C11B0C943B180C9405180C94A7
:10028000570D0C94D1080C94A6290C9420080C94BA
:100290005C2D0C94BE290C94C7080C94100A0C9485
:1002A000320A0C94622D0C94E5080C94BC080C9452
:1002B0009C070C94D31B0C940B180C94A11B0C944E
:1002C000AD1B0C94C71B0C94A7050C94D4090C947B
:1002D000D8330C94A0070C94EB1B0C9494290C9429
:1002E000862D0C94D5290C9430040C94682D0C9414
:1002F000D91B0C945E090C9435180C94240B0C94A7
:100300008B2D0C948C290C94CD080C94DB080C9448
:1003100023180C94562D00407A10F35A00A0724E08
:1003200018090010A5D4E80000E87648170000E49A
:100330000B54020000CA9A3B000000E1F5050000E2
:1003400080969800000040420F000000A086010047
:100350000000102700000000E80300000000640017
:10036000000000000A000000000001000000000082
:100370002C76D888DC674F0823DFC1DFAE59E1B1A6
:10038000B796E5E3E453C63AE651997696E8E6C2B5
:100390008426EB898C9B62ED407C6FFCEFBC9C9FBC
:1003A00040F2BAA56FA5F490055A2AF75C936B6CDE
:1003B000F9676DC11BFCE0E40D47FEF520E6B500D2
:1003C000D0ED902E0300943577050080841E080040
:1003D00000204E0A000000C80C333333330F986EF0
:1003E00012831141EF8D2114893BE65516CFFEE6AD
:1003F000DB18D1844B381BF77C1D901DA4BBE42473
:10040000203284725E228100C9F124ECA1E53D27EF
:100410005B494E49545D2053797374656D20726554
:100420006164792C207363686564756C65722073F0
:1004300074617274696E670A005B4552525D2054A4
:1004400061736B206372656174696F6E20666169A8
:100450006C65640A005B494E49545D2043726561D6
:1004600074696E67207461736B732E2E2E0A005BA5
:100470004552525D2053796E63206F626A656374E2
:1004800073206661696C65640A005B494E49545D7E
:100490002053656E736F72733A204E544320546834
:1004A00065726D6973746F722028413029202B208A
:1004B000444854313120284437290A005B494E49C9
:1004C000545D204C616236202D2053656E736F722F
:1004D000204D6F6E69746F72696E67205379737403
:1004E000656D0A005B464154414C5D205374616365
:1004F0006B206F766572666C6F7720696E20746111
:10050000736B3A2025730A005B464154414C5D20D1
:100510004D616C6C6F63206661696C65640A005B99
:100520004143515D204163717569736974696F6EF0
:10053000207461736B20737461727465640A005B6C
:10054000434F4E5D20436F6E646974696F6E696ED0
:1005500067207461736B20737461727465640A0040
:100560005B5448525D205468726573686F6C6420F8
:100570007461736B20737461727465640A003D3D2D
:100580003D3D3D3D3D3D3D3D3D3D3D3D3D3D3D3D9B
:100590003D3D3D3D3D3D3D3D3D3D3D0A005B434FC5
:1005A0004E465D20484947483D32362E30204C4F5C
:1005B000573D32342E302043207C2044626E633A13
:1005C00025750A005B44485431315D2057616974D8
:1005D000696E6720666F722076616C696420646161
:1005E00074612E2E2E0A004E4F524D414C00414C4C
:1005F00045525421005B44485431315D2054656DAF
:10060000703A2533642043207C2048756D3A2533A9
:10061000642525207C202553202825752F25752924
:100620000A005B412D4C41545D2057616974696E2D
:100630006720666F72206669727374204E4F524D48
:10064000414C2D3E414C455254207472616E736989
:1006500074696F6E2E2E2E0A005B412D4C41545D45
:10066000204E4F524D414C2D3E414C455254206C32
:100670006174656E63793A202575206D730A004EAA
:100680004F524D414C00414C45525421005B412D8D
:100690005448525D2053746174653A2553202825CF
:1006A000752F2575290A005B544845524D5D204140
:1006B00044433A253475207C205261773A257320D3
:1006C00043207C205361743A25732043207C204DC5
:1006D00065643A25732043207C20574D413A2573A9
:1006E0002043207C2056616C69643A25630A005BD4
:1006F0004453505D204D757465782074696D656F45
:1007000075740A003D3D3D3D3D3D3D2053454E53F2
:100710004F52205245504F5254203D3D3D3D3D3DAE
:100720003D0A005B4453505D20446973706C6179ED
:10073000207461736B20737461727465640A0000C5
:10074000002100240027002A002D00300033000182
:10075000010000040107010A010000220025002811
:10076000002B002E003100340002010000050108BA
:10077000010B0100000A0B02090C0D0E080703040F
:100780000100000000000000000000000000000068
:100790000000000000000000000000000000001247
:1007A0001110000000000000000000000000000028
:1007B0000000000000000000000505050507050811
:1007C000080808020202020A0A08080404040401D4
:1007D00001010101010101030303030303030304F6
:1007E0000707070C0C0C0C0C0C0C0C020202020686
:1007F000060606060606060B0B0B0B0B0B0B0B0176
:100800000210202008081020401020408002010221
:1008100001080402010102040810204080804020E9
:100820001008040201800402018040201008040224
:1008300001080402010102040810204080010204A2
:100840000810204080000020002300260029002CF2
:10085000002F003200000100000301060109010021
:10086000CF93DF9300D000D000D01F92CDB7DEB77A
:1008700085E0B82ECE0101967C01E091D003F09185
:10088000D1031081D12CC12C112329F00580F681D0
:10089000E02DC080D1800E94F7160E94ED164C0119
:1008A0008091B5029091B6028816990608F092C020
:1008B0000E94FC149092B6028092B5020E94931F8F
:1008C000D701EB2D1D92EA95E9F70091E60310910F
:1008D000E7031A86198680E04801F1E18F0E911C2A
:1008E0000FB6F8940F92D8015A96DC905A97DD20F3
:1008F00009F431C15C964C915C974423F9F050E0C7
:1009000016968D919C911797840F951F17969C931F
:100910008E93169714962D913C91159782179307F5
:1009200038F08D919C91119717969C938E93169702
:10093000F80166817781C7010E944A3DDA94D801A7
:100940005A96DC925A9718968C91882339F0C801F0
:1009500008960E94F51581110E942D170F900FBE69
:10096000A980A7FCB2CF0C811D81D8011A968D9168
:100970009C91892B21F0C80102960E941D140E94AF
:10098000ED166C018091B5029091B602C816D90699
:1009900010F40E94FC14D092B602C092B502EFEFA0
:1009A000EA0DE93008F091CF0E2E000CFF0BD801B4
:1009B00052969C9152978827EF51FB4F8F4F0C9482
:1009C0007A3A64056405A7058F05A10564056405E9
:1009D000A7058F059092B6028092B502112351F0BF
:1009E0008C149D0470F00E94931FB401C6010E94F4
:1009F000D21466CFE091CE03F091CF0361E0808105
:100A0000811160E00091E6031091E7030FB6F894BE
:100A10000F92D8015D968C915D978F3F11F45D9692
:100A20001C92F801868D8F3F09F4168E0F900FBE31
:100A3000D8015A968C915A9781113CC05296ED91EB
:100A4000FC91A0914E04B0914F041F96FC93EE933D
:100A50001E97A0914E04B0914F04848195815196C8
:100A60009C938E93509780914E0490914F04A48153
:100A7000B5810C9613969C938E93129780914E0499
:100A800090914F040C9695838483E0914E04F091ED
:100A90004F04C8014196958B848BF80181898F5F43
:100AA000818BC60188199909662311F08FEF9FEF9A
:100AB0000E941A15C8010E949A160E94931F811164
:100AC000FFCE0E942D17FCCE9160F801928B8A8098
:100AD0009B8064857585680D791D9401A601C80108
:100AE0000E948414882309F4F0CED80152968C9188
:100AF000529782FF10C01C966D917C91680D791DF4
:100B0000A601C8010E94AE14D8015096ED91FC9147
:100B1000C8011995DACE8E7FF801828BF5CF9160EE
:100B200052969C9352976A817B811D967C936E931B
:100B30001C976C0D7D1D9601A601C8010E948414AE
:100B4000C4CE91FD04C0C8010E942831BECE9E7F54
:100B5000F801928BBACE29853A85232B19F40F9090
:100B60000FBE8BCE811109C08091F5038E838091D9
:100B7000F3039091F40398878F830F900FBE0E9428
:100B8000F7160FB6F8940F92F801858D8F3F09F490
:100B9000158ED8015E968C915E978F3F11F45E960C
:100BA0001C920F900FBEBE01675F7F4FCE0106966D
:100BB0000E94C21581111BC0C8010E941214882313
:100BC00081F069857A85C4010E94DC16C8010E9403
:100BD0009A160E94931F811102C00E942D1781E076
:100BE0007FCEC8010E949A160E94931FF8CFC801B9
:100BF0000E949A160E94931FC8010E941214882313
:100C000071F33BCE8091B102811109C0809127041C
:100C1000823010F00E942D170E94D70AF3CF0FB632
:100C2000F8940F92E0910804F0910904C681D781ED
:100C3000CE0102960E941D14809150048150809331
:100C400050048091B10281508093B1020F900FBE89
:100C50008F89988D0E942831CE010E942831D2CFF1
:100C6000D83311241FBECFEFD1E2DEBFCDBF00E0ED
:100C70000CBF12E0A0E0B2E0E8EBFAE700E00BBF47
:100C800002C007900D92A038B107D9F724E0A0E880
:100C9000B2E001C01D92AB35B207E1F716E0C1E347
:100CA000D6E000E006C021970109802FFE010E94D6
:100CB0007A3AC033D10780E00807A9F70E949C3236
:100CC0000C945A3D0C940000CF92DF92EF92FF9269
:100CD0000F931F93CF93DF93EC017A016901E881B1
:100CE000F9810190F081E02D1995E881F981008466
:100CF000F185E02D9801A601B701CE01DF91CF91DA
:100D00001F910F91FF90EF90DF90CF9019946F9209
:100D10007F928F929F92AF92BF92CF92DF92EF928B
:100D2000FF920F931F93CF93DF93CDB7DEB7AC97AE
:100D30000FB6F894DEBF0FBECDBFDC011696ED9165
:100D4000FC91319609F480C059013A016B018C0184
:100D5000FE0131964F0188E2DF011D928A95E9F785
:100D6000D801ED91FC910488F589E02DB401C8010A
:100D700019957C01892B09F051C01AA619A61CA649
:100D80001BA6D801ED91FC910688F789E02D9E0104
:100D9000255D3F4FAE01475D5F4FB401C801199516
:100DA0007C01892BD9F5A114B10439F088E2F40152
:100DB000D50101900D928A95E1F709A51AA5C114F4
:100DC000D10479F0612F772767FD7A95072E000C03
:100DD000880B990B0E949E3BF6016083718382838E
:100DE00093836114710489F08CA5682F782F770F95
:100DF000770B072E000C880B990B0E949E3BD301AA
:100E00006D937D938D939C931397012B39F48BA550
:100E10009CA5892B19F496E1E92EF12CC701AC961B
:100E20000FB6F894DEBF0FBECDBFDF91CF911F91FB
:100E30000F91FF90EF90DF90CF90BF90AF909F9079
:100E40008F907F906F90089587E1E82EF12CE6CF88
:100E50008F929F92AF92BF92CF92DF92EF92FF92CA
:100E60000F931F93CF93DF93EC018B016A017901FC
:100E7000E881F9810288F389E02D1995B82EB8012F
:100E8000685F7F4FE881F9810288F389E02DCE0108
:100E90001995982EB801605F7F4FE881F98102882B
:100EA000F389E02DCE011995A82EB801685E7F4F19
:100EB000E881F9810288F389E02DCE011995882E09
:100EC000B801605E7F4FE881F9810288F389E02DE7
:100ED000CE0119959B2D990D9A0D980D891319C066
:100EE0009A2D882DF601918380839B2D892DF70102
:100EF0009183808390E080E0DF91CF911F910F91EB
:100F0000FF90EF90DF90CF90BF90AF909F908F9029
:100F1000089585E190E0F0CF47E050E080E0FB01EC
:100F20002191BF01042E01C0220F0A94EAF7820F1B
:100F300041505109A0F70895FC01828590E0089581
:100F4000FC01818590E00895CF92DF92EF92FF92AD
:100F50000F931F93CF93DF93EC017A016901E8812E
:100F6000F9810190F081E02D1995E881F9810480E3
:100F7000F581E02D9801A601B701CE01DF91CF9157
:100F80001F910F91FF90EF90DF90CF901994CF9227
:100F9000DF92EF92FF920F931F93CF93DF9300D0D6
:100FA00000D01F921F92CDB7DEB7DC011696ED91EF
:100FB000FC91319609F440C08A017B0119821A82A2
:100FC0001B821C821D821E821F821886DC01ED910D
:100FD000FC910084F185E02DAE014B5F5F4FBE01B7
:100FE0006F5F7F4F19956C01892BB1F4E114F10407
:100FF00041F069817A818B819C810E94663BF70177
:1010000060830115110541F06D817E818F81988586
:101010000E94663BD8016C93C60128960FB6F894DF
:10102000DEBF0FBECDBFDF91CF911F910F91FF901B
:10103000EF90DF90CF90089587E1C82ED12CECCFB0
:10104000262F2D7F29F4FC01608790E080E0089531
:1010500088E190E00895DC0117967C936E931697D3
:10106000FB01E150F84FE4911996EC9319976754FE
:10107000784FFB0164911A966C930895CF93DF9398
:10108000EC019A01AB018A859B85009729F00197B5
:10109000B9F0DF91CF910895688179818A819B8130
:1010A0000E94EF3A87FF0AC089858F5F89879885FC
:1010B000891778F381E090E09B878A871986E9CFCA
:1010C0006C817D818E819F810E944E3C1816B4F701
:1010D00089858F5F898798858917D8F21B861A863C
:1010E000EDCF282F30E0F901ED58F84F9491F90138
:1010F000E150F84F44912754384FF90124912223AD
:1011000009F435C0992311F191509231F8F4E92F87
:10111000F0E08827E157F74F8F4F0C947A3AC008D8
:10112000C408A108B808BC08A608C708CD08D1089B
:10113000D708DB08DF08E508E908A608ED08F3088A
:10114000F708809180008F7780938000E22FF0E095
:10115000EE0FFF1FE75AF84FA591B4918FB7F8949F
:10116000EC91611148C040954E234C938FBF089578
:10117000809180008F7DE8CF80918000877FE4CFD1
:1011800084B58F7784BDE2CF84B58F7DFBCF80910E
:10119000B0008F778093B000D9CF8091B0008F7D61
:1011A000F9CF809190008F7780939000CFCF80917E
:1011B00090008F7DF9CF80919000877FF5CF80914F
:1011C000A0008F778093A000C1CF8091A0008F7D79
:1011D000F9CF8091A000877FF5CF809120018F7794
:1011E00080932001B3CF809120018F7DF9CF809132
:1011F0002001877FF5CF4E2BB8CFCF93DF9390E0C0
:10120000FC01E150F84F24918754984FFC018491E0
:101210008823C9F090E0880F991FFC01E15CF84F2A
:10122000A591B491FC01E75AF84FC591D491611191
:101230000DC09FB7F8948C91209582238C93888160
:10124000282328839FBFDF91CF910895623051F406
:101250009FB7F8943C91822F809583238C93E881EB
:101260002E2BEFCF8FB7F894EC912E2B2C938FBFB2
:10127000EACF3FB7F8948091EF039091F003A091EB
:10128000F103B091F20326B5A89B05C02F3F19F0DA
:101290000196A11DB11D3FBFBA2FA92F982F8827F6
:1012A000BC01CD01620F711D811D911D42E0660FD1
:1012B000771F881F991F4A95D1F708953F924F9243
:1012C0005F926F927F928F929F92AF92BF92CF92D6
:1012D000DF92EF92FF920F931F93CF93DF93EC0176
:1012E000162F7A0169010E9439094B015C01312CEA
:1012F000111139843601660C771C660C771C85E069
:10130000681A71082701440C551C440C551C85E0D3
:10131000481A510810E000E060E070E0CB012A813B
:101320003B814C815D8126173707480759070CF12F
:101330000115110599F582E0E816F1041CF0C201CF
:101340000197F1F70E943909681979098A099B09FF
:10135000EA85F0E0EE0FFF1FEB5BF74FA591B4912C
:101360002C910F5F1F4F39852323231105C097FF51
:10137000D6CF6FEF7FEFCB01DF91CF911F910F9110
:10138000FF90EF90DF90CF90BF90AF909F908F90A5
:101390007F906F905F904F903F90089582E0C816C5
:1013A000D10484F2C301CCCFAF92BF92CF92DF922F
:1013B000EF92FF920F931F93CF93DF936C017B010A
:1013C0008B01040F151FEB015E01AE18BF08C0179B
:1013D000D10759F06991D601ED91FC910190F0810E
:1013E000E02DC6011995892B79F7C501DF91CF91C1
:1013F0001F910F91FF90EF90DF90CF90BF90AF9033
:101400000895FC01538D448D252F30E0842F90E00A
:10141000821B930B541710F0CF96089501970895EF
:10142000FC01918D828D981761F0A28DAE0FBF2FB8
:10143000B11D5D968C91928D9F5F9F73928F90E00E
:1014400008958FEF9FEF0895FC01918D828D98177D
:1014500031F0828DE80FF11D858D90E008958FEFBA
:101460009FEF0895FC01918D228D892F90E0805C83
:101470009F4F821B91098F73992708958FE293E004
:101480000E94320A21E0892B09F420E0822F08957E
:10149000FC01A48DA80FB92FB11DA35ABF4F2C91E9
:1014A000848D90E001968F739927848FA689B789E0
:1014B0002C93A089B1898C91837080648C93938DD7
:1014C000848D981306C00288F389E02D80818F7D7A
:1014D00080830895EF92FF920F931F93CF93DF9332
:1014E000EC0181E0888F9B8D8C8D98131AC0E88960
:1014F000F989808185FF15C09FB7F894EE89FF892F
:101500006083E889F98980818370806480839FBFCC
:1015100081E090E0DF91CF911F910F91FF90EF90CC
:101520000895F62E0B8D10E00F5F1F4F0F731127DC
:10153000E02E8C8D8E110CC00FB607FCFACFE88917
:10154000F989808185FFF5CFCE010E94480AF1CF4D
:10155000EB8DEC0FFD2FF11DE35AFF4FF0829FB78B
:10156000F8940B8FEA89FB8980818062CFCFCF937B
:10157000DF93EC01888D8823B9F0AA89BB89E889BB
:10158000F9898C9185FD03C0808186FD0DC00FB661
:1015900007FCF7CF8C9185FFF2CF808185FFEDCFDF
:1015A000CE010E94480AE9CFDF91CF91089580E0F3
:1015B00090E0892B29F00E943E0A81110E940000D0
:1015C00080E090E0892B49F080E090E0892B29F0C1
:1015D0000E94000081110E94000080E090E0892BB1
:1015E00049F080E090E0892B29F00E9400008111F1
:1015F0000E94000080E090E0892B49F080E090E0BC
:10160000892B29F00E94000081110C94000008959C
:101610008FE293E00E94320A892BD1F38FE293E0AC
:101620000C94100ACF93C82F8A3029F46DE08FE212
:1016300093E00E946A0A6C2F8FE293E00E946A0A8C
:1016400090E080E0CF9108958F929F92AF92BF92E9
:10165000CF92DF92EF92FF920F931F93CF93DF937E
:10166000EC018B0188E2FB0111928A95E9F761E0B8
:101670008E810E94FD0860E08E810E9471080E94A8
:1016800039094B015C01F4E1CF2ED12CE12CF12C76
:101690000E943909681979098A099B09683E7340D3
:1016A00081059105A8F3F1E0CF1AD108E108F1080E
:1016B00028EE820E23E0921EA11CB11CC114D1049D
:1016C000E104F10429F761E08E810E9471086885C8
:1016D0008E810E94FD088FE590E00197F1F7E88187
:1016E000F9810088F189E02D26E030E04AE050E001
:1016F00060E0CE0119956E317105810591059CF46C
:10170000982F872F762F66276061CB01DF91CF91CD
:101710001F910F91FF90EF90DF90CF90BF90AF900F
:101720009F908F900895E881F9810088F189E02DDC
:1017300026E030E04AE050E061E0CE011995780102
:10174000F8E2EF0EF11C623371058105910534F466
:10175000982F872F762F66276161D7CFE881F9818F
:101760000088F189E02D26E030E04AE050E060E0BA
:10177000CE011995683171058105910534F4982FD2
:10178000872F762F66276261C0CFE881F9810088B4
:10179000F189E02D26E030E04AE050E061E0CE0142
:1017A00019956B3071058105910534F4982F872FB9
:1017B000762F66276361A9CF21E069327105810523
:1017C00091050CF420E0F80121938F01EE15FF053F
:1017D00029F6E881F9810088F189E02D26E030E0E2
:1017E0004AE050E060E0CE0119956831710581054D
:1017F000910534F4982F872F762F6627646185CF63
:1018000070E060E082CF0E94453DCF93DF9300D02F
:1018100000D0CDB7DEB780E695E09F938F930E940E
:10182000483500E010E020ED31E40093F70210931A
:10183000F8022093F9023093FA0240E050E060ECA5
:1018400071E44093FB025093FC026093FD0270939D
:10185000FE0282E08093FF021092000310920203C6
:10186000109201030093EB021093EC022093ED021F
:101870003093EE024093EF025093F0026093F10236
:101880007093F2028093F3021092F4021092F60227
:101890001092F5020E94ED169A8389830F900F90A3
:1018A0002224239470E060E080912D0390912E0318
:1018B0000E948A22182F813009F0B9C0C090180305
:1018C000D0901903E0901A03F0901B0300911C03C1
:1018D0008090240390902503A0902603B0902703C6
:1018E00030902C0380912D0390912E030E945F2154
:1018F000002309F494C08091EA02811125C08091EF
:10190000010390910203892BF9F420E030E040EDCF
:1019100051E4C701B6010E944E3C1816ACF42FB733
:10192000F8948091EB039091EC03A091ED03B091BA
:10193000EE032FBF8093E6029093E702A093E802A4
:10194000B093E9021093EA0200910103109102039F
:10195000B701A60187EF92E00E943E08012B09F033
:101960004CC08091010390910203019709F045C09A
:101970008091EA02882309F440C08FB7F89420913F
:10198000EB033091EC034091ED035091EE032B8378
:101990003C834D835E838FBF4090E6025090E70208
:1019A0006090E8027090E90270E060E080912D03A1
:1019B00090912E030E948A228130E9F48B819C81D0
:1019C000AD81BE8184199509A609B709009731E058
:1019D000A307B10520F08FEF9FEFA0E0B0E0909358
:1019E0000703809306032092080380912D039091B2
:1019F0002E030E945F211092EA02809101039091D0
:101A00000203892B61F420E030E040ED51E4C7018E
:101A1000B6010E94EF3A181614F01092EA02332031
:101A200031F0B501A4018BEE92E00E943E0870E017
:101A300060E080912D0390912E030E948A228130D4
:101A4000F1F4809101039091020390930403809339
:101A5000030380910003809305038091F502909128
:101A6000F60290930A03809309038091F402809315
:101A70000B0380912D0390912E030E945F21809192
:101A800001039091020361E0019739F08091F50222
:101A90009091F602019709F060E08DE00E947108D4
:101AA00061E070E0CE0101960E945F24FBCECF93EF
:101AB000DF93CDB7DEB7E5970FB6F894DEBF0FBE64
:101AC000CDBF8FE395E09F938F930E944835EBEB5A
:101AD000F2E08FEC92E00F900F9011921192119220
:101AE0001192108A118A128A138A8E179F07A9F7FA
:101AF0001092E3021092E4021092E5020E94ED16A9
:101B00009AA789A770E060E080912D0390912E0341
:101B10000E948A22813009F0E8C1D0901F03E09032
:101B20002003F090210390902203109123038091D1
:101B30002D0390912E030E945F21112309F4E7C128
:101B400020E030E040EA51EC6D2D7E2D8F2D992D57
:101B50000E94EF3A87FDA2C020E030E040EA52E464
:101B60006D2D7E2D8F2D992D0E944E3C18160CF058
:101B70009CC0812C312C10EA212E22E42FA78091C9
:101B8000E30290E0FC01EE0FFF1FEE0FFF1FE55494
:101B9000FD4F482D532D622D7FA5408351836283D5
:101BA0007383019665E070E00E94663A282F809367
:101BB000E3028091E502853018F48F5F8093E5029F
:101BC0003091E502DE015596CD0100E02150301341
:101BD00071C0FE01319680E0081384C09E012B5F26
:101BE0003F4F39AB28ABCC24C394C01608F084C057
:101BF000A8A9B9A94D905D906D907D90B9ABA8ABA7
:101C00001FEF1C0DA12E012E000CBB08F501EE0FDD
:101C1000FF1FEE0FFF1F21E030E02C0F3D1FE20FF2
:101C2000F31F80819181A281B3818BA79CA7ADA76F
:101C3000BEA79FEFA91AB90A2BA53CA54DA55EA585
:101C4000C301B2010E94EF3A87FF14C0AA0CBB1C6B
:101C5000AA0CBB1CE1E0F0E0EC0FFD1FEA0DFB1D40
:101C60008BA59CA5ADA5BEA580839183A283B383DC
:101C7000115040F6E12F110FFF0B3196EE0FFF1FB1
:101C8000EE0FFF1FA1E0B0E0AC0FBD1FEA0FFB1F7E
:101C90004082518262827382C394A7CF812C312CFF
:101CA000B0EA2B2E31EC3FA76ACF8D2C3E2C2F2C87
:101CB0009FA665CFE22FE01BE7FF02C0EB5FFCCFE2
:101CC00044E0E402F0011124E554FD4F40815181CC
:101CD00062817381FC014193519361937193CF01B0
:101CE0000F5F75CF4D915D916D917D9141935193B2
:101CF000619371938F5F70CFA02FA695EA2FF0E0CC
:101D000000FD52C0A15024E0A29FD001112481E027
:101D100090E08C0F9D1FA80FB91FEE0FFF1FEE0F55
:101D2000FF1FE80FF91F20813181428153816D919E
:101D30007D918D919C910E94833A20E030E040E0BB
:101D40005FE30E94A33C6BA7672E782EA92E80919B
:101D5000E40290E0FC01EE0FFF1FEE0FFF1FE153C6
:101D6000FD4F4BA5562D672D7A2D408351836283FD
:101D70007383019665E070E00E94663AC82E8093F6
:101D8000E402002309F4ACC0BB24B394B00E11E00C
:101D9000512C412C18AA19AA1AAA1BAA8C2D811BF6
:101DA00087FF12C08B5FFCCFEE0FFF1FEE0FFF1FF0
:101DB000A1E0B0E0AC0FBD1FEA0FFB1FB081BBA7D5
:101DC00061807280A380C3CFE5E0E11BF0E0E15CBD
:101DD000FD4F0081E4E08E02C00111249C012153DB
:101DE0003D4F3DAB2CAB602F70E090E080E00E9457
:101DF0009C3BACA9BDA92D913D914D915C910E9458
:101E0000A33C9B01AC0168A979A98AA99BA90E945E
:101E1000833A68AB79AB8AAB9BAB400E511C1F5F1A
:101E2000B112BCCF4114510409F45AC0B20190E080
:101E300080E00E949C3B9B01AC0168A979A98AA91A
:101E40009BA90E94F43AB62EC72E8C0144244394D9
:101E500070E060E080912D0390912E030E948A2211
:101E60008130B9F58D2D9E2DAF2DB92D80930C03AA
:101E700090930D03A0930E03B0930F03882D932D21
:101E8000A22DBFA58093100390931103A09312037A
:101E9000B09313038BA5962DA72DBA2D8093140311
:101EA00090931503A0931603B09317038B2D9C2DCD
:101EB000D8018093180390931903A0931A03B09349
:101EC0001B0340921C0380912D0390912E030E94CE
:101ED0005F2161E070E0CE0189960E945F2412CEFE
:101EE000B12CC12C00E010E0B1CFD12CE12CF12CB1
:101EF000912C412CB12CC12C00E010E01BA6612CD0
:101F0000712CA12C812C312C212C1FA6A1CFBD2CF2
:101F1000CE2C0F2D192DDBA63701A92C8D2C3E2C94
:101F20002F2C9FA6412C94CFCF93DF93CDB7DEB754
:101F3000EF970FB6F894DEBF0FBECDBF83E297E0F8
:101F40009F938F930E9448350E94ED169AA389A310
:101F50000F900F907E0129E1E20EF11C6E0181E1EC
:101F6000C80ED11C1E0199E0290E311C6FE170E0F2
:101F7000CE0181960E945F2463E070E080912D0382
:101F800090912E030E948A22813009F02AC1A091EB
:101F90001D03ACAFB0911E03BDAF8091240390919F
:101FA0002503A0912603B09127038BA39CA3ADA387
:101FB000BEA38091280390912903A0912A03B09198
:101FC0002B038FA398A7A9A7BAA790912C039BA72F
:101FD00080910C0390910D03A0910E03B0910F031B
:101FE0008CA79DA7AEA7BFA74090100350901103E8
:101FF0006090120370901303809014039090150367
:10200000A0901603B09017038091180390911903C4
:10201000A0911A03B0911B0388AB99ABAAABBBABE1
:1020200090911C039CABA0910303B0910403BEAB41
:10203000ADABB0910503BFAB209106032EAF8091ED
:1020400007038FAF9091080398AFA0910903B09157
:102050000A03BAAFA9AFB0910B03BBAF80912D03B8
:1020600090912E030E945F21870121E045E06CA53D
:102070007DA58EA59FA50E940534860121E045E03F
:10208000C301B2010E940534810121E045E0C50190
:10209000B4010E9405348E010F5F1F4F21E045E01F
:1020A00068A979A98AA99BA90E94053484E097E0D0
:1020B0009F938F930E9448350F900F90BCA989E59C
:1020C000B11101C08EE41F928F9381E090E08C0FDC
:1020D0009D1F9F938F933F922F92DF92CF92FF92FB
:1020E000EF929DAD9F93ACADAF9387EA96E09F933F
:1020F0008F930E9448350FB6F894DEBF0FBECDBF58
:10210000ADA9BEA98FE796E0119711F486E896E095
:102110001F9222E02F931F92BFA9BF939F938F938B
:102120008DE896E09F938F930E9448350FB6F89400
:10213000DEBF0FBECDBF98AD992309F45BC0AFAD34
:10214000AF93BEADBF9389E596E09F938F930E94B6
:1021500048350F900F900F900F902BA5222309F474
:1021600055C089AD9AAD019709F44DC087EE95E051
:102170001F9222E02F931F92ABADAF939F938F934B
:102180006FA178A589A59AA50E94663B7F936F935E
:102190006BA17CA18DA19EA10E94663B7F936F9352
:1021A00085EF95E09F938F930E9448350FB6F89482
:1021B000DEBF0FBECDBF1F9282E08F938DE995E009
:1021C0009F938F930E9448358EE795E09F938F935E
:1021D0000E9448350F900F900F900F900F900F9026
:1021E000C5CE8FEE96E09F938F930E9448350F9057
:1021F0000F90BCCE82E296E09F938F930E94483569
:102200000F900F90AACF8EEE95E0B2CFA4ECB5E080
:10221000BF93AF930E9448350F900F90CCCFCF93D0
:10222000DF9300D01F921F92CDB7DEB78FE195E00C
:102230009F938F930E9448350E94ED169A8389835D
:102240000F900F9010E000E08091B802863308F004
:10225000865320917B00982F9870277F922B909324
:102260007B008770806480937C0080917A0080641A
:1022700080937A0080917A0086FDFCCF20907800D0
:1022800030907900C10101978E3F934008F09EC0C5
:10229000B10190E080E00E949C3B6B017C0120E05A
:1022A00030E44CE156E40E94A33C4B015C01A701E1
:1022B000960160E070EC8FE794E40E94823A9B0103
:1022C000AC01C501B4010E94F43A20E030E44CE1D5
:1022D00056E40E94F43A0E945B3C20E030EE46E770
:1022E00055E40E94F43A2FE03FEC4BE55BE30E949B
:1022F000833A9B01AC0160E070E080E89FE30E94BC
:10230000F43A23E333E948E853E40E94823A2B018C
:102310003C010436110508F488C08091B9029091FF
:10232000BA02009709F05AC0C12CD12C760146019F
:1023300057011D8210E000E00F5F1F4F70E060E06A
:1023400080912D0390912E030E948A228130B9F54D
:1023500030921E0320921D0340921F0350922003CF
:1023600060922103709222033324339420E030E002
:1023700048E453ECC301B2010E944E3C18160CF025
:10238000312C309223032D81222399F08092240353
:1023900090922503A0922603B0922703C0922803AF
:1023A000D0922903E0922A03F0922B0381E08093DC
:1023B0002C0380912D0390912E030E945F2161E0F8
:1023C00070E0CE0101960E945F243ECF412C80EC4C
:1023D000582E89E7682E84EC782E9BCF1C821B82B6
:1023E000DC01ED91FC910480F581E02D30E020E0EE
:1023F000AE014D5F5F4FBE016C5F7F4F1995892B1A
:1024000009F092CF6C8170E090E080E00E949C3BEC
:102410004B015C016B8170E090E080E00E949C3B8E
:102420006B017C01B1E0BD8385CFC12CD12C76013D
:10243000460157011D8280CFDF92EF92FF920F93EA
:102440001F93CF93DF931F921F92CDB7DEB7E0911A
:102450003F03F091400382E08083E0913B03F091E1
:102460003C031082E0913D03F0913E038FEC8083AA
:1024700010924703E0914303F091440386E0808388
:10248000E0914103F0914203808180618083E0917B
:102490004103F0914203808188608083E091410391
:1024A000F0914203808180688083E0914103F09144
:1024B000420380818F7D80831A82198289819A816B
:1024C0008033954730F489819A8101969A83898374
:1024D000F5CF82E19BE0909399028093980210924D
:1024E0009B0210929A0282E08093930210929D02C6
:1024F00010929C0210928B0210928A0288E09BE05C
:1025000090938D0280938C0211E0109385021092BB
:102510008F0210928E0280E992E09093580480938B
:10252000570482E892E090935604809355048CEB14
:1025300094E09F938F930E9448358AE894E09F939C
:102540008F930E94483586E38093B80260E00E9432
:10255000FD080F900F900F900F908091A9028111AC
:102560002CC08BE092E090939F0280939E0280E2C9
:1025700091EAA7E0B0E08093A0029093A102A0931B
:10258000A202B093A3028FEF9FEF9093A5028093D6
:10259000A4021092A6028093A7028093A80267E08B
:1025A00070E08EE992E00E942B0887E292E090931F
:1025B0009F0280939E021093A9028EE992E090936D
:1025C000BA028093B90261E08DE00E94FD0860E0EC
:1025D0008DE00E9471088FE190E00E9439318C01FA
:1025E000009791F0FC019183808381E0838F148EAA
:1025F000C8010E94FD16F801158214821182108212
:102600001682C8010E945F2110932E0300932D03B0
:10261000012B49F48FE694E09F938F930E944835F5
:102620000F900F90FFCF85E594E09F938F930E94CA
:10263000483510E000E023E04CED50E06EE572E03C
:102640008FE091E10E946B31D82E22E040E451E00E
:1026500062E672E087E59DE00E946B31E82E22E0A1
:102660004CED50E067E672E085E09CE00E946B3143
:10267000F82E21E044E551E06EE672E084E99FE047
:102680000E946B310F900F90F1E0DF1218C0EF1233
:1026900016C0FF1214C0813091F480E194E09F9342
:1026A0008F930E9448350F900F900F900F90DF91FD
:1026B000CF911F910F91FF90EF90DF90089589E3E4
:1026C00094E09F938F930E9448350F900F90FFCF17
:1026D0001F920F920FB60F9211242F933F938F9357
:1026E0009F93AF93BF938091EB039091EC03A091E4
:1026F000ED03B091EE033091EA0323E0230F2D3771
:1027000058F50196A11DB11D2093EA038093EB03B8
:102710009093EC03A093ED03B093EE038091EF034D
:102720009091F003A091F103B091F2030196A11DE5
:10273000B11D8093EF039093F003A093F103B09346
:10274000F203BF91AF919F918F913F912F910F9085
:102750000FBE0F901F90189526E8230F0296A11D1B
:10276000B11DD2CF1F920F920FB60F9211240BB64C
:102770000F922F933F934F935F936F937F938F931A
:102780009F93AF93BF93EF93FF938FE293E00E94E9
:10279000480AFF91EF91BF91AF919F918F917F91E7
:1027A0006F915F914F913F912F910F900BBE0F90C2
:1027B0000FBE0F901F9018951F920F920FB60F9299
:1027C00011240BB60F922F938F939F93EF93FF9348
:1027D000E0913F03F09140038081E0914503F09147
:1027E000460382FD1DC09081809148038F5F8F73E7
:1027F00020914903821741F0E0914803F0E0E15D48
:10280000FC4F958F80934803FF91EF919F918F919B
:102810002F910F900BBE0F900FBE0F901F90189529
:102820008081F2CF0FB6F8940F92FC01928D0F9039
:102830000FBE81E0911180E00895CF93DF93FC01FA
:10284000A085B1858281938124813581EC013D830E
:102850002C83C481D5819B838A8311968D919C9111
:1028600012978E179F0721F41296DC93CE9311973F
:10287000118610868C9181508C93DF91CF910895B1
:102880000F931F93CF93DF938C01FB018081918184
:10289000D80113968F3F9807F1F4E801AF81B8850E
:1028A00012968D919C91139793838283EC01FD8303
:1028B000EC83B583A4831396FC93EE931297118750
:1028C0000087F80180818F5F8083DF91CF911F9116
:1028D0000F910895D90112962D913C911397E9011A
:1028E0004881598184179507A8F7DACFFC01039630
:1028F000928381832FEF3FEF3483238396838583F5
:102900009087878310820895FC0173836283918787
:1029100080874617570790F0421B530B8485958597
:1029200048175907C8F4BF016E5F7F4F8091CE03EF
:102930009091CF030E94401480E0089542175307FE
:1029400018F46217730740F4BF016E5F7F4F8091E8
:10295000D0039091D103EECF81E00895EF92FF92E2
:102960000F931F93CF93DF93EC018B017A016C855A
:102970007D85600F711F9801A701CE010E9484140C
:10298000811107C0DF91CF911F910F91FF90EF90C0
:1029900008958C859D85080F191FE889F989CE0156
:1029A0001995E5CFEF92FF920F931F93CF93DF938B
:1029B0008C017B01E091D003F091D1030580F68179
:1029C000E02DC681D781CE0102960E941D148A890E
:1029D00082FF0FC0A701B801CE010E94AE14E889A2
:1029E000F989CE01DF91CF911F910F91FF90EF9068
:1029F00019948E7F8A8BF3CFE091D003F091D103AD
:102A0000808181110DC08091CE039091CF0390936E
:102A1000D1038093D003F093CF03E093CE030895C6
:102A20000580F681E02D6FEF7FEF808191810E941C
:102A3000D214E2CFBF92CF92DF92EF92FF920F9328
:102A40001F93CF93DF93EC01B62EC090F303D09089
:102A5000F4030091F8031091F903E090F603F0906D
:102A6000F70380914E0490914F0402960E941D142A
:102A7000CF3FDC0709F042C0BB2009F43FC0E09122
:102A8000FB03F091FC03A0914E04B0914F04159606
:102A9000FC93EE931497A0914E04B0914F0484815F
:102AA000958117969C938E93169780914E049091E2
:102AB0004F04A481B581029613969C938E9312972E
:102AC00080914E0490914F04029695838483E09107
:102AD0004E04F0914F048AEF93E0938782878091B0
:102AE000FA038F5F8093FA03DF91CF911F910F91CB
:102AF000FF90EF90DF90CF90BF900895CC0DDD1D3B
:102B0000E0914E04F0914F04D383C28360914E0450
:102B100070914F046E5F7F4FCC15DD0560F4C701E7
:102B2000DF91CF911F910F91FF90EF90DF90CF90A9
:102B3000BF900C944014C8010E9440148091E80397
:102B40009091E903C817D90778F6D093E903C093A9
:102B5000E803CACFE091F803F091F9038081811175
:102B600007C08FEF9FEF9093E9038093E8030895E8
:102B7000E091F803F091F9030580F681E02D808162
:102B80009181F1CFFC01DB010FB6F8940F924091D7
:102B9000F3035091F4032D913C9111972F3F32078D
:102BA00011F1818192816091F5037081761749F06E
:102BB0004817590730F01D921C9281E00F900FBE0C
:102BC0000895481B590B42175307A8F7241B350BD0
:102BD0002D933C938091F50380838091F303909132
:102BE000F4039283818380E0E9CFCF93DF93DC010C
:102BF0001596ED91FC910680F781E02DA489B589A9
:102C00008685978520893189EC013D832C83C08995
:102C1000D1899B838A83CF010C9611962D913C918B
:102C200012972817390721F41296DC93CE93119747
:102C3000158A148A2C9121502C932091B4022111D1
:102C400057C0A285B3858481958126813781EC01A7
:102C50003D832C83C681D7819B838A83CF010296D3
:102C600011962D913C9112972817390721F412964D
:102C7000DC93CE931197138612862C9121502C93BE
:102C8000C68920914B042C1710F4C0934B0429E003
:102C90002C9FE0011124C95DDB4F0980DA81C02D32
:102CA000D583C4834C815D8157834683AC81BD81CC
:102CB00013969C938E9312979D838C83A689A29FD3
:102CC000D0011124A95DBB4FB387A2878C918F5F80
:102CD0008C93A0914E04B0914F04968956968C9196
:102CE000891730F581E08093B702DF91CF91089585
:102CF000A0910D04B0910E04B787A68714962D916C
:102D00003C911597318B208B1496CD91DC911597C2
:102D10009B838A8315969C938E9314978CE094E002
:102D2000958B848B80910C048F5F80930C04D1CFA2
:102D300080E0DBCFEF92FF920F931F93CF93DF934F
:102D4000EC010FB6F8940F921E8D7C0181E1E80E24
:102D5000F11C01E01116D4F08FEF8E8F0F900FBE93
:102D60000FB6F8940F921D8D7E0188E0E80EF11CDD
:102D700001E01116B4F08FEF8D8F0F900FBEDF9131
:102D8000CF911F910F91FF90EF900895898988232B
:102D900019F3C7010E94F51581110093B702115074
:102DA000D9CF8885882339F3C7010E94F515811191
:102DB0000093B7021150DDCFCF93DF93EB01609109
:102DC0004E0470914F04645F7F4F0E94401461E095
:102DD000CE01DF91CF910C941A150FB6F8940F9293
:102DE0008091F3039091F4030F900FBE08958091AA
:102DF000B4028F5F8093B4020895CF93DF93EC0108
:102E00000FB6F8940F92888199812B8D4C8DBC015F
:102E1000249F600D711D11247D836C831A8E9B830A
:102E20008A832150330B429FB001439F700D1124C0
:102E3000860F971F9F838E838FEF8D8F8E8FCE018E
:102E400008960E947614CE0141960E9476140F9047
:102E50000FBE81E0DF91CF9108950F920FB6F894E5
:102E60000F920BB60F920CB60F921F9211242F9255
:102E70003F924F925F926F927F928F929F92AF920A
:102E8000BF92CF92DF92EF92FF920F931F932F93F7
:102E90003F934F935F936F937F938F939F93AF93E2
:102EA000BF93CF93DF93EF93FF93A0914E04B09124
:102EB0004F040DB60D920EB60D928091B402882388
:102EC00029F081E08093B7020C94641F1092B7023E
:102ED000A0914E04B0914F04E0914E04F0914F0444
:102EE0002D913C918789908D8217930710F40C9453
:102EF000291F80914E0490914F04499620914E04D1
:102F000030914F04009711F486E592E09F938F93E0
:102F100084EE94E09F938F930E944835FCE08F2EBF
:102F2000F8E09F2EF4012491A6ECAA2EA7E0BA2E79
:102F3000F50184910F900F900F900F90882399F0D6
:102F400090E0880F991FFC01E15CF84FA591B491C6
:102F5000FC01E75AF84F859194918FB7F8949C91B2
:102F6000292B2C938FBF70E8472E77E0572EC9E0AE
:102F7000D1E00FEF1FEFF2018491F4012491F501EC
:102F80009491992309F48AC0882309F479C0815067
:102F9000823108F075C0E82FF0E08827ED52F84E36
:102FA0008F4F0C947A3AF717FB17E517EB17F117C9
:102FB0004018FF1705180B18111817181D1823189B
:102FC000291840182F1835183B18809180008F77EA
:102FD0008093800055C0809180008F7D8093800019
:102FE0004FC080918000877F8093800049C084B566
:102FF0008F7784BD45C084B58F7D84BD41C08091ED
:10300000B0008F778093B0003BC08091B0008F7D7F
:103010008093B00035C0809190008F7780939000AE
:103020002FC0809190008F7D8093900029C0809167
:103030009000877F8093900023C08091A0008F77BD
:103040008093A0001DC08091A0008F7D8093A00080
:1030500017C08091A000877F8093A00011C080914D
:1030600020018F77809320010BC0809120018F7DFC
:103070008093200105C080912001877F80932001EB
:10308000E92FF0E0EE0FFF1FE75AF84FA591B4913A
:103090008FB7F8949C91292B2C938FBF8091B40209
:1030A0008F5F8093B4024091F3035091F4036090DA
:1030B000F8037090F9038091F6039091F703E09183
:1030C0004E04F0914F0422853385E480F5806681BB
:1030D0007781D70115967C936E93149766817781DB
:1030E000DB011396FC92EE9212977F01B2E0EB0E99
:1030F000F11CD9011196CD90DC901297CE14DF040B
:1031000021F412967C936E93119713861286F9011F
:103110006081615060839A01295F3F4FE0914E04C6
:10312000F0914F043383228324173507D0F5C090E4
:103130004E04D0904F0496012E5F3F4FD601129659
:103140004D915C91FC0133964F3F540731F4DC0103
:103150001796ED91FC9109C0FB0162817381DB013F
:10316000ED90FC904E155F05B8F742815381D60172
:1031700015965C934E931497DA0115963C932E9313
:103180001497D6011796FC93EE93169733832283F8
:103190001B969C938E931A97FC0120812F5F2083AE
:1031A00044C080914E0490914F04AC014E5F5F4F3C
:1031B000DC0112966D917C91F30133966F3F760797
:1031C00031F4D3011796ED91FC9109C0F701E2802B
:1031D000F380D701CD90DC906C157D05B8F7628146
:1031E0007381DC0115967C936E931497DB01159621
:1031F0005C934E931497DC011796FC93EE9316970D
:10320000538342831B967C926E921A97F3018081BE
:103210008F5F80838091E8039091E9032817390735
:1032200020F43093E9032093E8030FB6F8940F924B
:103230008091B40281508093B4028091B4028823BB
:1032400011F080E0E5C1809150048823D1F34091D2
:10325000110450911204F0E0E0E08BC0DA01169600
:10326000ED91FC91E488F5882685378580899189E0
:10327000D90115969C938E93149780899189DC01CE
:1032800013963C932E9312979F01245F3F4FD701D3
:1032900011966D917C9112976217730721F4129623
:1032A0009C938E931197158A148AD7018C91815023
:1032B0008C93E284F3848481958126813781DC01BB
:1032C00015963C932E93149726813781D901139636
:1032D0009C938E931297CF010296D70111966D9110
:1032E0007C9112976817790721F412963C932E93DC
:1032F000119713861286D7012C9121502C93A68901
:1033000020914B042A1710F4A0934B04CA9FD001BC
:103310001124A95DBB4F11966D917C9175836483D7
:10332000DB0114962D913C911597378326831496D3
:103330002D913C91D90113969C938E931297DB01AA
:1033400015969C938E93149796899C9FD001112477
:10335000A95DBB4FB387A2878C918F5F8C93A0919F
:103360004E04B0914F0456968C91891710F4D09367
:10337000B70280910C04811171CFEF2BC9F0E0915D
:10338000F803F091F9038081811105C01093E903DE
:103390000093E8030DC0E091F803F091F903058074
:1033A000F681E02D808191819093E9038093E80379
:1033B0002091B2023091B3022115310509F41CC1EC
:1033C0008091B402811103C18091F3039091F403C1
:1033D00001969093F4038093F303009771F5409165
:1033E000F8035091F9036091F6037091F70370931D
:1033F000F9036093F8035093F7034093F603409169
:10340000F5034F5F4093F503E091F803F091F90362
:103410004081411105C01093E9030093E8030DC0FA
:10342000E091F803F091F9030580F681E02D4081E9
:1034300051815093E9034093E8034091E803509190
:10344000E903D12C8417950708F4ADC0D12CE09185
:10345000F803F091F9034081411105C01093E9038D
:103460000093E803A0C0E091F803F091F903058010
:10347000F681E02D0680F781E02D4281538184178B
:10348000950728F45093E9034093E8038CC06284C5
:1034900073844481558166817781DA0115967C9326
:1034A0006E93149766817781DB0113965C934E933C
:1034B0001297AF014E5F5F4FD3011196ED90FC90D4
:1034C0001297E416F50621F412967C936E931197E9
:1034D00013861286D3016C9161506C9324883588D1
:1034E0002114310429F166857785E088F188DB01B4
:1034F0001596FC92EE921497E088F188D701139606
:103500007C936E931297D10111966D907C901297D7
:10351000BF01645F7F4F6616770621F41296FC9216
:10352000EE921197158A148AD1016C9161506C93B7
:10353000A68960914B046A1710F4A0934B04CA9FAC
:10354000D0011124A95DBB4F1196ED90FC90F5823E
:10355000E482D70114966D917C91159777836683E9
:1035600014966D917C91DB0113965C934E931297A8
:10357000D70115965C934E93149756895C9FD001A2
:103580001124A95DBB4FB387A2874C914F5F4C9329
:10359000E0914E04F0914F044689451708F057CF4B
:1035A000DD24D39454CFE0914E04F0914F04E6898A
:1035B000CE9FF0011124E95DFB4F8081823010F035
:1035C000DD24D3948091B70281110CC00AC0809190
:1035D000B2029091B30201969093B3028093B2022B
:1035E00003C0D110D093B7022150310909F0E8CEC1
:1035F0001092B3021092B2028091B702882309F4AC
:1036000020CE80914E0490914F040E942D1781E0AE
:103610000F900FBE811102C00E942D173FB7F89482
:103620008091EF039091F003A091F103B091F20328
:1036300026B5A89B05C02F3F19F00196A11DB11D0D
:103640003FBFBA2FA92F982F8827820F911DA11D48
:10365000B11D42E0880F991FAA1FBB1F4A95D1F7E1
:1036600058E0C52ED12CE12CF12C0EC0E1E0CE1A91
:10367000D108E108F10888519C4FAF4FBF4FC114EA
:10368000D104E104F10469F13FB7F8944091EF03EC
:103690005091F0036091F1037091F20326B5A89B5D
:1036A00006C02F3F21F04F5F5F4F6F4F7F4F3FBFEF
:1036B000762F652F542F4427420F511D611D711D18
:1036C000F2E0440F551F661F771FFA95D1F7481B8C
:1036D000590B6A0B7B0B483E53406105710530F670
:1036E000D3CFF2018491F4012491F50194919923AF
:1036F00009F48BC0882309F479C08150823108F025
:1037000075C0E82FF0E08827E757F44E8F4F0C94F0
:103710007A3AAD1BB11B9B1BA11BA71BF61BB51B4C
:10372000BB1BC11BC71BCD1BD31BD91BDF1BF61B30
:10373000E51BEB1BF11B809180008F77809380004D
:1037400055C0809180008F7D809380004FC0809114
:103750008000877F8093800049C084B58F7784BDC7
:1037600045C084B58F7D84BD41C08091B0008F7706
:103770008093B0003BC08091B0008F7D8093B000FB
:1037800035C0809190008F77809390002FC08091FA
:1037900090008F7D8093900029C080919000877F5A
:1037A0008093900023C08091A0008F778093A00029
:1037B0001DC08091A0008F7D8093A00017C08091D4
:1037C000A000877F8093A00011C0809120018F7797
:1037D000809320010BC0809120018F7D8093200178
:1037E00005C080912001877F80932001E92FF0E0C0
:1037F000EE0FFF1FE75AF84FA591B4918FB7F894D9
:103800009C91209529232C938FBF8091B4028F5FC8
:103810008093B4024091F3035091F4036090F80355
:103820007090F9038091F6039091F703E0914E04B4
:10383000F0914F0422853385E480F580668177819D
:10384000D70115967C936E93149766817781DB017F
:103850001396FC92EE9212977F01B2E0EB0EF11CF0
:10386000D9011196CD90DC901297CE14DF0421F48B
:1038700012967C936E93119713861286F9016081DC
:10388000615060839A01295F3F4FE0914E04F091AF
:103890004F043383228324173507D0F5C0904E049C
:1038A000D0904F0496012E5F3F4FD60112964D9156
:1038B0005C91FC0133964F3F540731F4DC011796BD
:1038C000ED91FC9109C0FB0162817381DB01ED90F8
:1038D000FC904E155F05B8F742815381D6011596CD
:1038E0005C934E931497DA0115963C932E9314979C
:1038F000D6011796FC93EE931697338322831B967B
:103900009C938E931A97FC0120812F5F208344C0E3
:1039100080914E0490914F04AC014E5F5F4FDC01EB
:1039200012966D917C91F30133966F3F760731F4D7
:10393000D3011796ED91FC9109C0F701E280F38065
:10394000D701CD90DC906C157D05B8F7628173814D
:10395000DC0115967C936E931497DB0115965C93AE
:103960004E931497DC011796FC93EE9316975383AE
:1039700042831B967C926E921A97F30180818F5F2F
:1039800080838091E8039091E9032817390720F498
:103990003093E9032093E8030FB6F8940F928091D7
:1039A000B40281508093B4028091B402882311F054
:1039B00080E0E5C1809150048823D1F34091110447
:1039C00050911204F0E0E0E08BC0DA011696ED9120
:1039D000FC91E488F5882685378580899189D9010D
:1039E00015969C938E93149780899189DC01139688
:1039F0003C932E9312979F01245F3F4FD70111965E
:103A00006D917C9112976217730721F412969C9323
:103A10008E931197158A148AD7018C9181508C93BB
:103A2000E284F3848481958126813781DC011596B7
:103A30003C932E93149726813781D90113969C933A
:103A40008E931297CF010296D70111966D917C91BA
:103A500012976817790721F412963C932E931197C9
:103A600013861286D7012C9121502C93A689209180
:103A70004B042A1710F4A0934B04CA9FD0011124C1
:103A8000A95DBB4F11966D917C9175836483DB01B9
:103A900014962D913C9115973783268314962D917A
:103AA0003C91D90113969C938E931297DB01159646
:103AB0009C938E93149796899C9FD0011124A95DA5
:103AC000BB4FB387A2878C918F5F8C93A0914E04DC
:103AD000B0914F0456968C91891710F4D093B70289
:103AE00080910C04811171CFEF2BC9F0E091F803A4
:103AF000F091F9038081811105C01093E9030093CF
:103B0000E8030DC0E091F803F091F9030580F68118
:103B1000E02D808191819093E9038093E8032091C7
:103B2000B2023091B3022115310509F41CC1809114
:103B3000B402811103C18091F3039091F4030196C3
:103B40009093F4038093F303009771F54091F80389
:103B50005091F9036091F6037091F7037093F903A4
:103B60006093F8035093F7034093F6034091F503F5
:103B70004F5F4093F503E091F803F091F903408122
:103B8000411105C01093E9030093E8030DC0E091D3
:103B9000F803F091F9030580F681E02D4081518111
:103BA0005093E9034093E8034091E8035091E903FF
:103BB000D12C8417950708F4ADC0D12CE091F803FF
:103BC000F091F9034081411105C01093E90300937E
:103BD000E803A0C0E091F803F091F9030580F681B5
:103BE000E02D0680F781E02D4281538184179507EF
:103BF00028F45093E9034093E8038CC062847384F3
:103C00004481558166817781DA0115967C936E93A4
:103C1000149766817781DB0113965C934E9312971C
:103C2000AF014E5F5F4FD3011196ED90FC9012975C
:103C3000E416F50621F412967C936E931197138681
:103C40001286D3016C9161506C93248835882114BD
:103C5000310429F166857785E088F188DB011596C6
:103C6000FC92EE921497E088F188D70113967C932A
:103C70006E931297D10111966D907C901297BF01AF
:103C8000645F7F4F6616770621F41296FC92EE92DF
:103C90001197158A148AD1016C9161506C93A68991
:103CA00060914B046A1710F4A0934B04CA9FD00193
:103CB0001124A95DBB4F1196ED90FC90F582E48232
:103CC000D70114966D917C9115977783668314962E
:103CD0006D917C91DB0113965C934E931297D70103
:103CE00015965C934E93149756895C9FD0011124CE
:103CF000A95DBB4FB387A2874C914F5F4C93E09176
:103D00004E04F0914F044689451708F057CFDD2443
:103D1000D39454CFE0914E04F0914F04E689CE9FA6
:103D2000F0011124E95DFB4F8081823010F0DD2429
:103D3000D3948091B70281110CC00AC08091B20265
:103D40009091B30201969093B3028093B20203C0A4
:103D5000D110D093B7022150310909F0E8CE10926A
:103D6000B3021092B2028091B702882309F420CEE8
:103D700080914E0490914F040E942D1781E00F9086
:103D80000FBE811102C00E942D173FB7F894809199
:103D9000EF039091F003A091F103B091F20326B5E7
:103DA000A89B05C02F3F19F00196A11DB11D3FBF73
:103DB000BA2FA92F982F8827820F911DA11DB11D01
:103DC00022E0880F991FAA1FBB1F2A95D1F738E060
:103DD000C32ED12CE12CF12C0FC0E1E0CE1AD1087A
:103DE000E108F10888519C4FAF4FBF4FC114D10477
:103DF000E104F10409F4BFC83FB7F8944091EF0320
:103E00005091F0036091F1037091F20326B5A89BE5
:103E100006C02F3F21F04F5F5F4F6F4F7F4F3FBF77
:103E2000762F652F542F4427420F511D611D711DA0
:103E3000E2E0440F551F661F771FEA95D1F7481B34
:103E4000590B6A0B7B0B483E53406105710528F600
:103E5000D3CF20914B0489E001C02150422F50E084
:103E6000849FF001859FF00D1124E95DFB4F908147
:103E7000992399F3A181B28112966D917C917283FD
:103E80006183289FC0011124865D9B4F68177907C5
:103E900021F4858196819283818389E0849FF0015A
:103EA000859FF00D1124E95DFB4F0180F281E02D2B
:103EB0008681978190934F0480934E0420934B0406
:103EC00080914E0490914F04A0914E04B0914F0404
:103ED000CD91CDBFDD91DEBFFF91EF91DF91CF910D
:103EE000BF91AF919F918F917F916F915F914F9112
:103EF0003F912F911F910F91FF90EF90DF90CF9006
:103F0000BF90AF909F908F907F906F905F904F90F9
:103F10003F902F901F900F900CBE0F900BBE0F90F4
:103F20000FBE0F9008958F929F92BF92CF92DF9213
:103F3000EF92FF920F931F93CF93DF930FB6F894F6
:103F40000F928091B40281508093B4028091B402A8
:103F5000882379F080E00F900FBEDF91CF911F9101
:103F60000F91FF90EF90DF90CF90BF909F908F9038
:103F7000089580915004882369F3E0901104F09033
:103F80001204F0E0E0E039E041E080910C0481119E
:103F90005EC0EF2B11F00E94AA15E090B202F090E3
:103FA000B302E114F10409F47DC189E0D82ECC24D8
:103FB000C3940FEF1FEF8091B402811161C1C091D2
:103FC000F303D091F4034E018FEF881A980A909270
:103FD000F4038092F30381149104B9F48091F803FF
:103FE0009091F9032091F6033091F7033093F90390
:103FF0002093F8039093F7038093F6038091F503E1
:104000008F5F8093F5030E94AA158091E803909139
:10401000E903B12C8816990608F026C1E0914E04F8
:10402000F0914F04E689DE9EF0011124E95DFB4F1B
:104030008081823010F0BB24B3948091B70281114B
:1040400003C0BB2009F425C1C092B70222C1D70129
:104050001696ED91FC91A489B5896685778580894E
:104060009189EB019D838C8380899189EC017B830D
:104070006A83BF01645F7F4F11960D911C91129767
:104080000617170721F412969C938E931197158AA1
:10409000148A8C9181508C93A285B38584819581FB
:1040A00066817781EC017D836C8366817781EB018A
:1040B0009B838A83CF01029611960D911C911297D2
:1040C0000817190721F412967C936E9311971386A3
:1040D00012862C9121502C93A68920914B042A17EB
:1040E00010F4A0934B043A9FD0011124A95DBB4F5B
:1040F00011960D90BC91A02DB583A48314966D915B
:104100007C9115977783668314966D917C911597B2
:10411000EB019B838A8315969C938E9314979689C3
:10412000939FD0011124A95DBB4FB387A2878C91C7
:104130008F5F8C93A0914E04B0914F0456968C9152
:10414000891708F022CF4093B7021FCFE091F80300
:10415000F091F9030580F681E02D0680F781E02DCE
:10416000828193818816990628F49093E9038093BD
:10417000E80354CFC285D385848195812681378118
:10418000DC0115963C932E93149726813781D90133
:1041900013969C938E931297CF01029649815A8170
:1041A0004817590711F43A83298313861286288108
:1041B00021502883A489B5891097F9F02685378581
:1041C00040895189E9015D834C8340895189EA0125
:1041D0003B832A8311966D917C9112979F01245FF6
:1041E0003F4F6217730721F412965C934E93119719
:1041F000158A148A2C9121502C93A68920914B0466
:104200002A1710F4A0934B04DA9ED0011124A95D63
:10421000BB4F11960D90BC91A02DB583A48314962D
:104220002D913C9115973783268314962D913C91BF
:104230001597E9019B838A8315969C938E93149717
:1042400096899D9DD0011124A95DBB4FB387A2879C
:104250008C918F5F8C93E0914E04F0914F0486898E
:10426000891710F4BB24B394E091F803F091F9039B
:10427000808181116BCF1093E9030093E803CECEC8
:104280008091B2029091B30201969093B302809311
:10429000B202D1E0ED1AF10809F08DCE1092B3020E
:1042A0001092B2028091B702882309F453CE809114
:1042B0004E0490914F040E942D1781E04CCEAF9296
:1042C000BF92DF92EF92FF920F931F93CF93DF93F2
:1042D00000D01F921F92CDB7DEB78C011D821C82C9
:1042E00080E0780198E0E90EF11C0FB6F8940F9287
:1042F000D8015A962C915A975B969C915B972917F7
:1043000008F0B0C05A96DC905A975C964C915C9736
:1043100041118CC08D919C91892B11F080E00AC0D5
:10432000F801E480F580E114F10431F580E0F80152
:1043300015821482D394D8015A96DC925A975196DA
:104340009C91992321F0C80141960E94F515811195
:104350000E942D170F900FBE81E00F900F900F90CD
:104360000F900F90DF91CF911F910F91FF90EF90E1
:10437000DF90BF90AF900895D7019A968C919A974D
:1043800081509A968C939A9756962C915697999617
:104390009C91291759F28111C9CF5701B2E0AB0E98
:1043A000B11CC5010E941D14F70181A5868B482F01
:1043B00050E024E030E0241B350B358724879091B2
:1043C0004B04981710F480934B0489E0849FD0012C
:1043D000859FB00D1124A95DBB4F11960D90BC9126
:1043E000A02DF701B583A48314962D913C911597C8
:1043F000378326831496ED91FC911597B382A282A0
:104400001596BC92AE921497D7015696EC9156979A
:10441000E89FF0011124E95DFB4F1B96FC93EE939E
:104420001A9780818F5F808381E081CF50E070E0B8
:1044300060E012968D919C910E944A3DF801848D16
:1044400022813381820F932F911D93838283248154
:1044500035818217930708F461CF8081918193831E
:1044600082835CCF2C813D81232B21F40F900FBEE2
:1044700080E073CF811109C08091F5038983809119
:10448000F3039091F4039B838A830F900FBE0E94E5
:10449000F7160FB6F8940F92F801858D8F3F09F447
:1044A000158ED8015E968C915E978F3F11F45E96C3
:1044B0001C920F900FBEBE016C5F7F4FCE01019624
:1044C0000E94C215811120C00FB6F8940F92F80116
:1044D000928D838D0F900FBE981310C06C817D81DB
:1044E000C7010E94DC16C8010E949A160E94931F01
:1044F000811102C00E942D1781E0F7CEC8010E94F1
:104500009A160E94931FF8CFC8010E949A160E9423
:10451000931FAECF7F928F929F92AF92BF92CF9216
:10452000DF92EF92FF920F931F93CF93DF9300D010
:104530001F921F92CDB7DEB78C017D836C83D12C87
:1045400090E0580121E1A20EB11C89E0782E24E010
:10455000822E912C0FB6F8940F92D8015A968C9116
:104560005A978823C9F181505A968C935A978D9106
:104570009C91892B71F4E0914E04F0914F04309797
:1045800019F082A58F5F82A7D8011596FC93EE9350
:104590001497F8018085882339F0C80108960E9495
:1045A000F51581110E942D170F900FBEDD24D394B5
:1045B0008D2D0F900F900F900F900F90DF91CF9156
:1045C0001F910F91FF90EF90DF90CF90BF90AF9031
:1045D0009F908F907F9008952C813D81232B21F413
:1045E0000F900FBED12CE4CF911109C08091F5033B
:1045F00089838091F3039091F4039B838A830F90C6
:104600000FBE0E94F7160FB6F8940F92D8015D9670
:104610008C915D978F3F11F45D961C92F801868D09
:104620008F3F09F4168E0F900FBEBE016C5F7F4F57
:10463000CE0101960E94C2158111AFC0C8010E942F
:104640001214882309F4A3C0D8018D919C91892B61
:1046500009F078C00FB6F8940F92F801E480F58065
:10466000E114F10409F491C0D70156968C91569744
:10467000E0914E04F0914F049689891708F07AC0B2
:104680001C962D913C911D9737FD0CC0E0914E0476
:10469000F0914F0496899401291B31091D963C9392
:1046A0002E931C97879DC0011124895D9B4FF701B4
:1046B000228533852817390709F054C06701F2E0D5
:1046C000CF0ED11CC6010E941D14E0914E04F09142
:1046D0004F04E689D7015696EC9380914B048E17D0
:1046E00010F4E0934B047E9EF0011124E95DFB4F32
:1046F0000180F281E02DD7011596FC93EE9314977B
:104700008481958117969C938E931697A481B58189
:104710001396DC92CE921297D582C482D701569618
:10472000EC915697E79DF0011124E95DFB4F1B9634
:10473000FC93EE931A9780818F5F8083DD24D3945E
:104740000F900FBE6C817D81C5010E94DC16C801EF
:104750000E949A160E94931F811102C00E942D1779
:1047600091E0F8CEE0914E04F0914F048689F70174
:10477000868BE4CFE0914E04F0914F04DD24D39476
:1047800099969C9186899817D8F2D12CD9CFC801D7
:104790000E949A160E94931FE3CFC8010E949A16A6
:1047A0000E94931FC8010E9412148823C9F2DD20C1
:1047B00009F4FECE0FB6F8940F92F8018189882390
:1047C00009F47BC00688F789E02D908184E0891B7D
:1047D000D80114960D911C910115110509F400CF13
:1047E000F80191A5981708F4982FD80156968C9146
:1047F0005697981709F4F4CE9A962C919A972130EF
:1048000009F0EECE56969C9356971C962D913C91AE
:104810001D9737FD08C024E030E0291B31091D96A3
:104820003C932E931C97B9E08B9FC0011124895DA6
:104830009B4FF801228533852817390709F0D0CE20
:104840007801F2E0EF0EF11CC7010E941D14F8017F
:10485000A68980914B048A1710F4A0934B0489E039
:104860008A9FD0011124A95DBB4F11960D90BC9178
:10487000A02DF801B583A48314962D913C91159732
:10488000378326831496ED91FC911597F382E2828B
:104890001596FC92EE921497D8015696EC91569785
:1048A000E89FF0011124E95DFB4F1B96FC93EE930A
:1048B0001A9780818F5F808393CE80E089CF0F939A
:1048C0001F93CF93DF93EC018B010E94F716209189
:1048D000F3033091F40348815981CA01800F911F7D
:1048E000998388832417350780F48417950780F00F
:1048F000C0E00E94931F811102C00E942D178C2FCF
:10490000DF91CF911F910F9108958417950718F0AB
:104910002817390768F760E0821B930B0E941A156D
:10492000C1E0E7CF7F928F929F92AF92BF92CF92DA
:10493000DF92EF92FF920F931F93CF93DF936B0160
:104940007C018091B4028F5F8093B4020091F303E5
:104950001091F403A090F803B090F903C091F6030E
:10496000D091F703E0914E04F0914F048285938536
:104970004481558126813781DA0115963C932E9327
:10498000149726813781D90113965C934E93129721
:10499000AF014E5F5F4FDC0111966D917C911297D4
:1049A0006417750721F412963C932E931197138682
:1049B0001286FC01208121502083D701C60124E00A
:1049C000B695A795979587952A95D1F7800F911F52
:1049D000E0914E04F0914F049383828380179107F6
:1049E00008F0ADC000914E0410914F04C80102962A
:1049F000D80112962D913C91FE0133962F3F32073C
:104A000009F094C0EF81F88522813381D801159691
:104A10003C932E931497D90115969C938E931497DB
:104A2000D8011796FC93EE931697938382831B9677
:104A3000DC93CE931A9788818F5F88830FB6F894A2
:104A40000F928091B40281508093B4028091B4029D
:104A5000882309F4B0C080E00F900FBE811102C01E
:104A60000E942D17DFE0CD22DD24EE24FF243FB786
:104A7000F8948091EF039091F003A091F103B0912D
:104A8000F20326B5A89B05C02F3F19F00196A11D82
:104A9000B11D3FBFBA2FA92F982F8827820F911DD4
:104AA000A11DB11DC2E0880F991FAA1FBB1FCA9587
:104AB000D1F7C114D104E104F10409F448C23FB7AD
:104AC000F8944091EF035091F0036091F1037091DD
:104AD000F20326B5A89B06C02F3F21F04F5F5F4F22
:104AE0006F4F7F4F3FBF762F652F542F4427420FC4
:104AF000511D611D711DE2E0440F551F661F771F98
:104B0000EA95D1F7481B590B6A0B7B0B483E534083
:104B10006105710570F2E1E0CE1AD108E108F108F3
:104B200088519C4FAF4FBF4FC4CFFA014281538190
:104B3000DA016D917C9126173707B8F765CFC091E0
:104B40004E04D0914F048E010E5F1F4F2A813B818E
:104B5000F50133962F3F320729F5D5011796ED91D0
:104B6000FC91228133813D832C83D90115961C93BE
:104B70000E931497FF83EE8313830283BB86AA866A
:104B8000E50128812F5F28832091E8033091E90314
:104B90008217930708F052CF9093E9038093E803BC
:104BA0004DCFFA0142815381DA016D917C91261734
:104BB0003707B8F7D6CF80915004882309F44BCF3C
:104BC000A0901104B0901204F0E0E0E039E041E080
:104BD00080910C0481116EC0EF2B69F0E091F80315
:104BE000F091F90380818111E4C08FEF9FEF9093E2
:104BF000E9038093E8032091B2023091B3022115BA
:104C0000310509F497C1D9E0AD2E772473940FEFE5
:104C10001FEF8091B40281117CC18091F3039091C8
:104C2000F40301969093F4038093F303009701F546
:104C30004091F8035091F9036091F6037091F703E6
:104C40007093F9036093F8035093F7034093F603CE
:104C50004091F5034F5F4093F503E091F803F09125
:104C6000F90340814111AFC01093E9030093E803B9
:104C70004091E8035091E903B12C8417950708F09F
:104C80003CC1E0914E04F0914F04E689AE9EF001E4
:104C90001124E95DFB4F8081823010F0BB24B39476
:104CA0008091B702811103C0BB2009F43BC170920F
:104CB000B70238C1D5011696ED91FC91A489B5894A
:104CC0006685778580899189EB019D838C838089B6
:104CD0009189EC017B836A83BF01645F7F4F1196EA
:104CE0000D911C9112970617170721F412969C93A9
:104CF0008E931197158A148A8C9181508C93A2857A
:104D0000B3858481958166817781EC017D836C8395
:104D100066817781EB019B838A83CF01029611968E
:104D20000D911C9112970817190721F412967C9384
:104D30006E931197138612862C9121502C93A6897D
:104D400020914B042A1710F4A0934B043A9FD001F2
:104D50001124A95DBB4F11960D90BC91A02DB58378
:104D6000A48314966D917C9115977783668314962E
:104D70006D917C911597EB019B838A8315969C938B
:104D80008E9314979689939FD0011124A95DBB4FF0
:104D9000B387A2878C918F5F8C93A0914E04B091C2
:104DA0004F0456968C91891708F012CF4093B702A2
:104DB0000FCFE091F803F091F9030580F681E02D23
:104DC0008081918114CFE091F803F091F90305807F
:104DD000F681E02D408151815093E9034093E8032F
:104DE00047CFE091F803F091F9030580F681E02DBB
:104DF0000680F781E02D428153818417950728F4BE
:104E00005093E9034093E8033CCFA285B3854481E6
:104E1000558166817781EA017D836C83C681D78164
:104E20005B834A83AF014E5F5F4F11966D917C911A
:104E300012976417750721F41296DC93CE9311979D
:104E4000138612866C9161506C93A489B589109772
:104E5000F1F06685778580889188EB019D828C8250
:104E6000C089D1897B836A8311968D909C9012971B
:104E7000BF01645F7F4F8616970621F41296DC937C
:104E8000CE931197158A148A6C9161506C93A68900
:104E900060914B046A1710F4A0934B04AA9ED001B2
:104EA0001124A95DBB4F11960D90BC91A02DB58327
:104EB000A48314966D917C911597778366831496DD
:104EC000CD91DC9115975B834A8315965C934E9345
:104ED000149756895A9DD0011124A95DBB4FB38701
:104EE000A2874C914F5F4C93E0914E04F0914F0498
:104EF0004689451710F4BB24B394E091F803F09170
:104F0000F903408141116DCF1093E9030093E80349
:104F1000B8CE8091B2029091B30201969093B30201
:104F20008093B2022150310909F073CE1092B3027E
:104F30001092B2028091B702882309F48CCD80913F
:104F40004E0490914F040E942D1781E085CDDF9192
:104F5000CF911F910F91FF90EF90DF90CF90BF9076
:104F6000AF909F908F907F9008950F920FB6F89416
:104F70000F920BB60F920CB60F921F9211242F9224
:104F80003F924F925F926F927F928F929F92AF92D9
:104F9000BF92CF92DF92EF92FF920F931F932F93C6
:104FA0003F934F935F936F937F938F939F93AF93B1
:104FB000BF93CF93DF93EF93FF93A0914E04B091F3
:104FC0004F040DB60D920EB60D9213BE8091B40231
:104FD0008111F9C08091F3039091F40301969093AD
:104FE000F4038093F303009781F52091F803309147
:104FF000F9034091F6035091F7035093F90340935E
:10500000F8033093F7032093F6032091F5032F5F05
:105010002093F503E091F803F091F9032081211129
:1050200007C02FEF3FEF3093E9032093E8030DC053
:10503000E091F803F091F9030580F681E02D2081DD
:1050400031813093E9032093E8032091E803309104
:10505000E9038217930710F420E0A1C020E0B9E033
:10506000DB2EE091F803F091F9033081311107C094
:105070008FEF9FEF9093E9038093E80390C0E09156
:10508000F803F091F9030580F681E02D0680F781A1
:10509000E02D428153818417950728F45093E9034A
:1050A0004093E8037CC0A285B38544815581668125
:1050B0007781EA017D836C8366817781EB015B8375
:1050C0004A83AF014E5F5F4F11960D911C9112976D
:1050D0000417150721F412967C936E93119713868B
:1050E00012863C9131503C93A489B5891097F9F010
:1050F0006685778500891189EB011D830C83008902
:105100001189E8017B836A831196ED90FC901297D8
:10511000BF01645F7F4FE616F70621F412961C93D9
:105120000E931197158A148A3C9131503C93A689AD
:1051300030914B043A1710F4A0934B04DA9ED0013F
:105140001124A95DBB4F11960D90BC91A02DB58384
:10515000A48314966D917C9115977783668314963A
:105160006D917C911597EB015B834A8315965C9357
:105170004E93149746894D9DD0011124A95DBB4FD4
:10518000B387A2873C913F5F3C93E0914E04F0913E
:105190004F043689341708F064CF21E062CFE091E4
:1051A0004E04F0914F04E689D9E0ED9FF0011124FF
:1051B000E95DFB4F8081823008F021E08091B702E9
:1051C000811110C00BC08091B2029091B302019680
:1051D0009093B3028093B2020C94F930222311F41D
:1051E0000C94F9308091B402882329F081E08093F7
:1051F000B7020C94F9301092B702A0914E04B0910E
:105200004F04E0914E04F0914F042D913C91878919
:10521000908D8217930710F40C94BE3080914E0449
:1052200090914F04499620914E0430914F0400977D
:1052300011F486E592E09F938F9384EE94E09F9320
:105240008F930E944835FCE08F2EF8E09F2EF401EA
:105250002491A6ECAA2EA7E0BA2EF50184910F9016
:105260000F900F900F90882399F090E0880F991F6E
:10527000FC01E15CF84FA591B491FC01E75AF84FAD
:10528000859194918FB7F8949C91292B2C938FBF83
:1052900070E8472E77E0572EC9E0D1E00FEF1FEFFF
:1052A000F2018491F4012491F5019491992309F478
:1052B0008AC0882309F479C08150823108F075C012
:1052C000E82FF0E08827E859F64D8F4F0C947A3A92
:1052D0008C2990297A2980298629D52994299A29E7
:1052E000A029A629AC29B229B829BE29D529C429C3
:1052F000CA29D029809180008F778093800055C083
:10530000809180008F7D809380004FC080918000CD
:10531000877F8093800049C084B58F7784BD45C066
:1053200084B58F7D84BD41C08091B0008F7780931C
:10533000B0003BC08091B0008F7D8093B00035C03D
:10534000809190008F77809390002FC08091900083
:105350008F7D8093900029C080919000877F8093FB
:10536000900023C08091A0008F778093A0001DC083
:105370008091A0008F7D8093A00017C08091A00035
:10538000877F8093A00011C0809120018F77809348
:1053900020010BC0809120018F7D8093200105C0EA
:1053A00080912001877F80932001E92FF0E0EE0FAC
:1053B000FF1FE75AF84FA591B4918FB7F8949C91CD
:1053C000292B2C938FBF8091B4028F5F8093B402FE
:1053D0004091F3035091F4036090F8037090F90347
:1053E0008091F6039091F703E0914E04F0914F0401
:1053F00022853385E480F58066817781D701159613
:105400007C936E93149766817781DB011396FC92EF
:10541000EE9212977F01B2E0EB0EF11CD9011196CA
:10542000CD90DC901297CE14DF0421F412967C9379
:105430006E93119713861286F90160816150608323
:105440009A01295F3F4FE0914E04F0914F0433835E
:10545000228324173507D0F5C0904E04D0904F0416
:1054600096012E5F3F4FD60112964D915C91FC0143
:1054700033964F3F540731F4DC011796ED91FC91C0
:1054800009C0FB0162817381DB01ED90FC904E1538
:105490005F05B8F742815381D60115965C934E9310
:1054A0001497DA0115963C932E931497D60117960C
:1054B000FC93EE931697338322831B969C938E93D3
:1054C0001A97FC0120812F5F208344C080914E04F5
:1054D00090914F04AC014E5F5F4FDC0112966D91CD
:1054E0007C91F30133966F3F760731F4D301179621
:1054F000ED91FC9109C0F701E280F380D701CD90D6
:10550000DC906C157D05B8F762817381DC0115961E
:105510007C936E931497DB0115965C934E931497CE
:10552000DC011796FC93EE931697538342831B96E8
:105530007C926E921A97F30180818F5F80838091B5
:10554000E8039091E9032817390720F43093E90321
:105550002093E8030FB6F8940F928091B402815023
:105560008093B4028091B402882311F080E0E5C1F9
:10557000809150048823D1F340911104509112047A
:10558000F0E0E0E08BC0DA011696ED91FC91E48842
:10559000F5882685378580899189D90115969C9350
:1055A0008E93149780899189DC0113963C932E93F6
:1055B00012979F01245F3F4FD70111966D917C9107
:1055C00012976217730721F412969C938E9311978A
:1055D000158A148AD7018C9181508C93E284F384CC
:1055E0008481958126813781DC0115963C932E9329
:1055F000149726813781D90113969C938E93129725
:10560000CF010296D70111966D917C911297681780
:10561000790721F412963C932E93119713861286E4
:10562000D7012C9121502C93A68920914B042A1745
:1056300010F4A0934B04CA9FD0011124A95DBB4F65
:1056400011966D917C9175836483DB0114962D9185
:105650003C9115973783268314962D913C91D9015F
:1056600013969C938E931297DB0115969C938E93C1
:10567000149796899C9FD0011124A95DBB4FB387D5
:10568000A2878C918F5F8C93A0914E04B0914F04B0
:1056900056968C91891710F4D093B70280910C0420
:1056A000811171CFEF2BC9F0E091F803F091F9036C
:1056B0008081811105C01093E9030093E8030DC0B8
:1056C000E091F803F091F9030580F681E02D8081E7
:1056D00091819093E9038093E8032091B202309185
:1056E000B3022115310509F41CC18091B402811166
:1056F00003C18091F3039091F40301969093F40316
:105700008093F303009771F54091F8035091F903EA
:105710006091F6037091F7037093F9036093F803B7
:105720005093F7034093F6034091F5034F5F409386
:10573000F503E091F803F091F9034081411105C0B0
:105740001093E9030093E8030DC0E091F803F09192
:10575000F9030580F681E02D408151815093E903E2
:105760004093E8034091E8035091E903D12C84175A
:10577000950708F4ADC0D12CE091F803F091F9033E
:105780004081411105C01093E9030093E803A0C0D4
:10579000E091F803F091F9030580F681E02D068091
:1057A000F781E02D428153818417950728F45093A7
:1057B000E9034093E8038CC062847384448155817B
:1057C00066817781DA0115967C936E9314976681D2
:1057D0007781DB0113965C934E931297AF014E5F76
:1057E0005F4FD3011196ED90FC901297E416F506E9
:1057F00021F412967C936E93119713861286D3012F
:105800006C9161506C93248835882114310429F1FE
:1058100066857785E088F188DB011596FC92EE922B
:105820001497E088F188D70113967C936E931297B2
:10583000D10111966D907C901297BF01645F7F4FEC
:105840006616770621F41296FC92EE921197158A4D
:10585000148AD1016C9161506C93A68960914B04BC
:105860006A1710F4A0934B04CA9FD0011124A95DBC
:10587000BB4F1196ED90FC90F582E482D70114960F
:105880006D917C9115977783668314966D917C91C9
:10589000DB0113965C934E931297D70115965C9398
:1058A0004E93149756895C9FD0011124A95DBB4F7C
:1058B000B387A2874C914F5F4C93E0914E04F091D7
:1058C0004F044689451708F057CFDD24D39454CFB1
:1058D000E0914E04F0914F04E689CE9FF00111242F
:1058E000E95DFB4F8081823010F0DD24D3948091FC
:1058F000B70281110CC00AC08091B2029091B3022C
:1059000001969093B3028093B20203C0D110D0935A
:10591000B7022150310909F0E8CE1092B30210927B
:10592000B2028091B702882309F420CE80914E0400
:1059300090914F040E942D1781E00F900FBE8111AE
:1059400002C00E942D173FB7F8948091EF03909109
:10595000F003A091F103B091F20326B5A89B05C016
:105960002F3F19F00196A11DB11D3FBFBA2FA92FDE
:10597000982F8827820F911DA11DB11D42E0880F2D
:10598000991FAA1FBB1F4A95D1F758E0C52ED12CED
:10599000E12CF12C0EC0E1E0CE1AD108E108F108AB
:1059A00088519C4FAF4FBF4FC114D104E104F104A3
:1059B00069F13FB7F8944091EF035091F003609183
:1059C000F1037091F20326B5A89B06C02F3F21F08A
:1059D0004F5F5F4F6F4F7F4F3FBF762F652F542F25
:1059E0004427420F511D611D711DF2E0440F551FE8
:1059F000661F771FFA95D1F7481B590B6A0B7B0B73
:105A0000483E53406105710530F6D3CFF2018491D1
:105A1000F4012491F5019491992309F48BC0882312
:105A200009F479C08150823108F075C0E82FF0E0A8
:105A30008827E25EF24D8F4F0C947A3A422D462D24
:105A4000302D362D3C2D8B2D4A2D502D562D5C2D75
:105A5000622D682D6E2D742D8B2D7A2D802D862D27
:105A6000809180008F778093800055C08091800066
:105A70008F7D809380004FC080918000877F8093CE
:105A8000800049C084B58F7784BD45C084B58F7DC3
:105A900084BD41C08091B0008F778093B0003BC03F
:105AA0008091B0008F7D8093B00035C080919000D0
:105AB0008F77809390002FC0809190008F7D80938E
:105AC000900029C080919000877F8093900023C030
:105AD0008091A0008F778093A0001DC08091A000CE
